:100000000C9446000C9465000C9465000C946500FB
:100010000C9465000C9465000C9465000C946500CC
:100020000C9465000C9465000C9465000C946500BC
:100030000C9465000C9465000C9465000C946500AC
:100040000C9465000C9465000C9465000C9465009C
:100050000C9465000C9465000C9465000C9465008C
:100060000C9465000C9465000C9465000C9465007C
:100070000C9465000C9465000C9465000C9465006C
:100080000C9465000C9465000C94650011241FBE4F
:10009000CFEFD0E1DEBFCDBF11E0A0E0B1E0EAE1FB
:1000A000FCE000E00BBF02C007900D92A837B1073B
:1000B000D9F721E0A8E7B1E001C01D92A838B20746
:1000C000E1F70E942D040C940B060C940000E2E66C
:1000D000F0E08081886080838081877F80830895BD
:1000E0001FB8779BFECF81E08FB9779BFECF8091C1
:1000F000620088608093620080916200877F8093B5
:1001000062008FE891E00197F1F700C000008FE3F3
:100110009FE10197F1F700C0000008951FB8779B99
:10012000FECF80E88FB9779BFECF80916200886018
:100130008093620080916200877F809362008FE8E5
:1001400091E00197F1F700C0000008951FB8779B78
:10015000FECF80EC8FB9779BFECF809162008860E4
:100160008093620080916200877F809362008FE8B5
:1001700091E00197F1F700C0000008951FB8779B48
:10018000FECF8FE08FB9779BFECF809162008860B1
:100190008093620080916200877F809362008FE885
:1001A00091E00197F1F700C0000008951FB8779B18
:1001B000FECF8CE08FB9779BFECF80916200886084
:1001C0008093620080916200877F809362008FE855
:1001D00091E00197F1F700C000000895603120F42C
:1001E000813019F08230C9F0089560581FB8779BAC
:1001F000FECF6FB9779BFECF8091620088608093BD
:10020000620080916200877F809362008FE891E0B6
:100210000197F1F700C0000008956054E7CF80E136
:1002200090E041E030E24FB9779BFECF3FB9779B3A
:10023000FECF20916200286020936200209162002E
:10024000277F20936200EFE8F1E03197F1F700C0DB
:1002500000000197009739F70895843608F45DC0CF
:100260009CE9980F943608F45CC0885C22E391E026
:100270009FB9779BFECF2FB9779BFECF90916200FD
:1002800098609093620090916200977F90936200D3
:10029000EFE8F1E03197F1F700C0000091E08A301B
:1002A000C0F190E09F5F8A508A30E0F721E02FB9DB
:1002B000779BFECF905D9FB9779BFECF90916200B8
:1002C00098609093620090916200977F9093620093
:1002D000EFE8F1E03197F1F700C000008823F9F072
:1002E000805D91E09FB9779BFECF8FB9779BFECF62
:1002F0008091620088608093620080916200877FB5
:10030000809362008FE891E00197F1F700C0000050
:100310000895913019F790E0C9CF90E0C0CF80E305
:10032000E0CF892F21E3A3CF803127E2920708F4A1
:10033000BFC020E001C0232F31E0320F805197422F
:10034000803147E29407B8F731E03FB9779BFECFA1
:100350002F5C2FB9779BFECF2091620028602093FD
:10036000620020916200277F20936200EFE8F1E0B5
:100370003197F1F700C0000021E0883EF3E09F07CD
:1003800008F48EC020E02F5F885E9340883E33E003
:100390009307C8F731E03FB9779BFECF205D2FB9B7
:1003A000779BFECF2091620028602093620020910D
:1003B0006200277F20936200EFE8F1E03197F1F7C8
:1003C00000C0000031E08436910508F465C020E0EB
:1003D0002F5F8456910984369105D0F7222309F4C2
:1003E0005BC031E03FB9779BFECF205D2FB9779B93
:1003F000FECF20916200286020936200209162006D
:10040000277F20936200EFE8F1E03197F1F700C019
:10041000000031E08A309105D8F120E02F5F0A9783
:100420008A309105D8F7222399F131E03FB9779BC3
:10043000FECF205D2FB9779BFECF20916200286010
:100440002093620020916200277F20936200EFE8F2
:10045000F1E03197F1F700C00000009759F1805D9D
:1004600091E09FB9779BFECF8FB9779BFECF8091AC
:10047000620088608093620080916200877F809331
:1004800062008FE891E00197F1F700C00000089545
:10049000313019F720E0C9CF313041F030E0BACF28
:1004A000213011F030E08FCF20E074CF20E099CFE1
:1004B00020E063CF80E3D4CF91E09FB9779BFECF5C
:1004C0008FB9779BFECF8091620088608093620035
:1004D00080916200877F809362008FE891E00197AE
:1004E000F1F700C000000895DC0120E030E090E06A
:1004F00041E04FB9779BFECFFD01E20FF31F8081F2
:100500008FB9779BFECF80916200886080936200F4
:1005100080916200877F80936200EFE8F1E031977D
:10052000F1F700C000009F5F292F30E0FD0101902E
:100530000020E9F7EA1BFB0B3297E217F307C8F636
:100540000895E1E6F0E080818860808388B388BB0D
:1005500087B3876087BB80E58DB981E08EB9089548
:1005600080E885BF92E490936D0080936C00809149
:10057000610088608093610088B388BB87B387601F
:1005800087BB80E58DB981E08EB98091610088607C
:10059000809361008FE59AEE0197F1F700C00000AB
:1005A0001FB8779BFECF88E38FB9779BFECF8091F2
:1005B000620088608093620080916200877F8093F0
:1005C00062008FE891E00197F1F700C000008FE131
:1005D0009EE40197F1F700C000001FB8779BFECFA3
:1005E00088E08FB9779BFECF80916200886080930E
:1005F000620080916200877F809362008FE891E0C3
:100600000197F1F700C000008FE39FE10197F1F738
:1006100000C000001FB8779BFECF86E08FB9779BA4
:10062000FECF8091620088608093620080916200BA
:10063000877F809362008FE891E00197F1F700C017
:1006400000001FB8779BFECF80E48FB9779BFECF69
:100650008091620088608093620080916200877F51
:10066000809362008FE891E00197F1F700C00000ED
:1006700081E08FB9779BFECF8EE08FB9779BFECF5D
:100680008091620088608093620080916200877F21
:10069000809362008FE891E00197F1F700C00000BD
:1006A00081E08FB9779BFECF8BE18FB9779BFECF2F
:1006B0008091620088608093620080916200877FF1
:1006C000809362008FE891E00197F1F700C000008D
:1006D00081E08FB9779BFECF81E18FB9779BFECF09
:1006E0008091620088608093620080916200877FC1
:1006F000809362008FE891E00197F1F700C000005D
:1007000081E08FB9779BFECF81E18FB9779BFECFD8
:100710008091620088608093620080916200877F90
:10072000809362008FE891E00197F1F700C000002C
:1007300081E08FB9779BFECF81E18FB9779BFECFA8
:100740008091620088608093620080916200877F60
:10075000809362008FE891E00197F1F700C00000FC
:1007600081E08FB9779BFECF81E18FB9779BFECF78
:100770008091620088608093620080916200877F30
:10078000809362008FE891E00197F1F700C00000CC
:1007900081E08FB9779BFECF81E18FB9779BFECF48
:1007A0008091620088608093620080916200877F00
:1007B000809362008FE891E00197F1F700C000009C
:1007C00081E08FB9779BFECF8FE18FB9779BFECF0A
:1007D0008091620088608093620080916200877FD0
:1007E000809362008FE891E00197F1F700C000006C
:1007F0001FB8779BFECF81E08FB9779BFECF8091AA
:10080000620088608093620080916200877F80939D
:1008100062008FE891E00197F1F700C000008FE1DE
:100820009EE40197F1F700C000001FB8779BFECF50
:100830008CE08FB9779BFECF8091620088608093B7
:10084000620080916200877F809362008FE891E070
:100850000197F1F700C000000895CF93DF9300D017
:1008600000D0CDB7DEB78FEF87BB18BA11BA80E0E2
:1008700090E0412C512CBB24B39447E0742E04E447
:1008800010E054E0852E65E0962EAA24AA947DE718
:10089000C72ED12CE12CF12C8130910509F45BC0DD
:1008A0008130910508F495C08230910509F478C033
:1008B0008330910589F718BAB20180E090E0660FA5
:1008C000771F881F991F660F771F881F991F660F54
:1008D000771F881F991FA70196010E943805298359
:1008E0003A834B835C830E94B00229813A814B8119
:1008F0005C8106B602FC06C0211531054105510593
:1009000009F48EC006B602FC80C089E491E0298318
:100910003A834B835C830E9474020E94A600298163
:100920003A81C9010E94940184E591E00E94740219
:100930001DB88FEF95EAEEE081509040E040E1F77E
:1009400000C0000080B38F3FE9F381E090E0813088
:10095000910509F0A5CF0E94B00282E191E00E94CA
:1009600074020E94A60083E291E00E9474021DB806
:1009700013BE17BEB6BE73BE0E94BB05B8010E946F
:10098000240566587F4F06B600FEFDCFB6BE615007
:10099000710961157105B9F713BE82E090E07CCF53
:1009A0001EBC1FBC17BE10927D0086BE1DBC1CBCA9
:1009B0009EBCA8BA03C080B38F3F19F406B602FEEE
:1009C000FACF4CB45DB48EB588778EBD83E090E0ED
:1009D00063CF0E94B00284E091E00E9474020E9402
:1009E000A60082E191E00E9474021DB82FEF81EE13
:1009F00094E0215080409040E1F700C0000080B3B7
:100A00008F3FE9F381E090E0A2CF88E591E00E947A
:100A100074020E94A60087E691E00E94740288CFCB
:100A200084E391E00E9474020E94A60082E491E0B7
:100A30000E947402EFEFF3ED20E3E150F04020401C
:100A4000E1F700C0000074CF97FB072E16F4009466
:100A500007D077FD09D00E945A0507FC05D03EF467
:100A6000909581959F4F0895709561957F4F08955A
:100A7000A1E21A2EAA1BBB1BFD010DC0AA1FBB1FA2
:100A8000EE1FFF1FA217B307E407F50720F0A21B14
:100A9000B30BE40BF50B661F771F881F991F1A9481
:100AA00069F760957095809590959B01AC01BD01AB
:100AB000CF010895AA1BBB1B51E107C0AA1FBB1F92
:100AC000A617B70710F0A61BB70B881F991F5A95DA
:100AD000A9F780959095BC01CD0108958F929F92C2
:100AE000AF92BF92CF92DF92EF92FF92CF93DF93BC
:100AF000EC01688179818A819B816115710581058D
:100B0000910521F464E279ED8BE597E02DE133EF77
:100B100041E050E00E94CA0549015A019B01AC0125
:100B2000A7EAB1E40E94E9056B017C01ACEEB4EFE9
:100B3000A50194010E94F705C60ED71EE81EF91EF6
:100B4000F7FE06C081E0C81AD108E10880E8F80A7B
:100B5000C882D982EA82FB82C6019F77DF91CF915A
:100B6000FF90EF90DF90CF90BF90AF909F908F90CD
:100B700008950C946E0580E091E00C946E05A0E061
:100B8000B0E08093000190930101A0930201B09323
:100B900003010895052E97FB1EF400940E94E105C1
:100BA00057FD07D00E94380507FC03D04EF40C9483
:100BB000E10550954095309521953F4F4F4F5F4F40
:100BC000089590958095709561957F4F8F4F9F4FB9
:100BD00008950E94FC05A59F900DB49F900DA49FC1
:100BE000800D911D11240895B7FF0C94E9050E9412
:100BF000E905821B930B0895A29FB001B39FC0012A
:100C0000A39F700D811D1124911DB29F700D811D38
:0A0C10001124911D0895F894FFCF00
:100C1A00010000005245464C45582054455354455E
:100C2A005200507265737320616E79206275747414
:100C3A006F6E006166746572204C454473206C695E
:100C4A00676874004E6F206368656174696E672116
:100C5A00210052657472793F00596F757220746968
:100C6A006D653A00206D730054696D657220657870
:100C7A0070697265642E0050726573732062746EB7
:080C8A0020746F2072737400E6
:00000001FF
