:100000000C9446000C9458000C9458000C94580022
:100010000C9458000C9458000C9458000C94580000
:100020000C9458000C9458000C9458000C945800F0
:100030000C9458000C9458000C9458000C945800E0
:100040000C9458000C9458000C9458000C945800D0
:100050000C9458000C9458000C9458000C945800C0
:100060000C9458000C9458000C9458000C945800B0
:100070000C9458000C9458000C9458000C945800A0
:100080000C9458000C9458000C94580011241FBE76
:10009000CFEFD0E1DEBFCDBF21E0A0E0B1E001C0F5
:1000A0001D92A331B207E1F70E945C010C94DF01BD
:1000B0000C9400002091000130910101220F331FA8
:1000C00049B350E002C0559547958A95E2F740FD47
:1000D0000EC081E090EE282B392B30930101209344
:1000E000000181E02115304F09F080E0089580E0A3
:1000F00090EEF1CF811102C080EC0895813091F033
:10010000823091F08330A1F0843081F0853091F01D
:10011000863091F0873091F0883091F0893091F0FD
:1001200080E0089589EF089584EA089589E90895A3
:1001300080EB089582E9089582E8089588EF089594
:1001400080E8089580E90895EF92FF920F931F933E
:10015000CF93DF93EC01883E23E0920750F484565E
:100160009109843833E0930708F07FC003E010E082
:1001700002C004E010E09E01ADECBCEC0E94D00196
:100180009695879596958795969587953C2F2AE025
:10019000829F30191124832F0E947A0080930E01D0
:1001A0009E013695279536952795ABE7B4E10E94D9
:1001B000D0019695879544E6489F9001499F300D60
:1001C0001124CE01821B930B9C01ADECBCEC0E9470
:1001D000D0019695879596958795969587950E94D7
:1001E0007A0080930F019E013695279536952795C5
:1001F00036952795A5ECB0E20E94D0017C01F294DF
:10020000E294EFE0EE22EF24FE22EF2428EE33E02A
:10021000E29EC001E39E900DF29E900D11249E017E
:10022000281B390B3695279536952795ABE7B4E112
:100230000E94D001969587950E947A0080931101C3
:100240008E2D0E947A000230110539F1033011051C
:1002500011F10130110589F080931201DF91CF91E6
:100260001F910F91FF90EF900895865A9F4F8A3506
:100270009105F8F402E010E07ECF8FEF8093120139
:100280008093110180930F01DF91CF911F910F9106
:10029000FF90EF9008958FEFDFCF8FEF80931201E3
:1002A00080931101DF91CF911F910F91FF90EF90FB
:1002B000089501E010E05FCF80E787BB8FEF809368
:1002C0001001C0E0D0E0CC24CA9410E7D12EEE2477
:1002D000E394F12C0EE011E0CBBA8FE39FE101979C
:1002E000F1F700C000001ABACBBA00000000D8BA7B
:1002F00000000000409100015091010120E030E039
:1003000011C041E050EE482B592B5093010140930E
:100310000001411590EF5907A9F02F5F3F4F28309A
:100320003105F1F0CA01880F991F49B350E0022E40
:1003300002C0559547950A94E2F740FFE2CF40E0AE
:1003400050EEE1CFC701022E02C0880F991F0A9418
:10035000E2F7C80FD91F2F5F3F4F2830310511F743
:10036000C11584E0D80710F0CF5FD340CE010E94C2
:10037000A400CABA00000000EEE0F1E08E2F801B5E
:100380008295807F88BB81918BBB8FE99FE001972D
:10039000F1F700C0000091E0E331F90779F79CCF55
:1003A000A29FB001B39FC001A39F700D811D1124B6
:1003B000911DB29F700D811D1124911D0895F89417
:0203C000FFCF6D
:00000001FF
