S01100006C6162335F736B656C2E73726563A3
S11300000C9446000C9465000C9465000C946500F7
S11300100C9465000C9465000C9465000C946500C8
S11300200C9465000C9465000C9465000C946500B8
S11300300C9465000C9465000C9465000C946500A8
S11300400C94CC020C9465000C9465000C9465002F
S11300500C9465000C9465000C9465000C94650088
S11300600C9465000C9465000C9465000C94650078
S11300700C9465000C9465000C9465000C94650068
S11300800C9465000C9465000C94650011241FBE4B
S1130090CFEFD0E1DEBFCDBF11E0A0E0B1E0ECE7EF
S11300A0F6E000E00BBF02C007900D92A231B10749
S11300B0D9F721E0A2E1B1E001C01D92A033B2075B
S11300C0E1F70E9416030C943C030C940000209169
S11300D01B0130911C01220F331F49B350E002C0B1
S11300E0559547958A95E2F740FD0EC081E090EE64
S11300F0282B392B30931C0120931B0181E02115FF
S1130100304F09F080E0089580E090EEF1CF811146
S113011002C080EC0895813091F0823091F08330F8
S1130120A1F0843081F0853091F0863091F08730F1
S113013091F0883091F0893091F080E0089589EF52
S1130140089584EA089589E9089580EB089582E981
S1130150089582E8089588EF089580E8089580E975
S11301600895EF92FF920F931F93CF93DF93EC01C7
S1130170883E23E0920750F484569109843833E092
S1130180930708F07FC003E010E002C004E010E031
S11301909E01ADECBCEC0E942D0396958795969537
S11301A08795969587953C2F2AE0829F30191124D4
S11301B0832F0E94870080932B019E0136952795FB
S11301C036952795ABE7B4E10E942D039695879564
S11301D044E6489F9001499F300D1124CE01821BB3
S11301E0930B9C01ADECBCEC0E942D039695879576
S11301F096958795969587950E94870080932C0104
S11302009E01369527953695279536952795A5EC25
S1130210B0E20E942D037C01F294E294EFE0EE221E
S1130220EF24FE22EF2428EE33E0E29EC001E39E99
S1130230900DF29E900D11249E01281B390B3695CA
S1130240279536952795ABE7B4E10E942D03969543
S113025087950E94870080932E018E2D0E9487002F
S11302600230110539F10330110511F10130110586
S113027089F080932F01DF91CF911F910F91FF900F
S1130280EF900895865A9F4F8A359105F8F402E05D
S113029010E07ECF8FEF80932F0180932E01809307
S11302A02C01DF91CF911F910F91FF90EF90089552
S11302B08FEFDFCF8FEF80932F0180932E01DF919B
S11302C0CF911F910F91FF90EF90089501E010E0FE
S11302D05FCF1ABA8FEF8BBB0000000088B3806732
S11302E088BB0000000080911B0190911C0150917B
S11302F0140140E061E0E4E072E00FC081E090EEC0
S1130300822B932B90931C0180931B01811520EF6A
S1130310920799F04F5F483028F59C01220F331F54
S113032089B390E0042E02C0959587950A94E2F76C
S113033080FFE4CF80E090EEE3CF511114C021E0C0
S113034030911E01311120E020931E0130911D01D6
S1130350211111C03323A9F0E0930001452F4F5F11
S11303604830D8F208955130A1F030911D01209108
S11303701E01222379F3332341F010920001452F0B
S1130380C9CF60930001452FC5CF70930001452F5D
S1130390C1CF31E020911D01211105C030931D0111
S11303A020911E01D5CF30E030931D0120911E0114
S11303B0CFCF81E58DB908958FB9779BFECF08958E
S11303C083B113B8000000001FB81E9A000000009B
S11303D0779BFECF8FB1089581E090911E0191111A
S11303E001C080E090911D01911182608FB9779BCB
S11303F0FECF84E082BB0000000088E082BB0000E6
S11304000000089580911401909115010E94B1009B
S11304108FEF8ABB00000000EBE2F1E080E090E0A7
S113042028B32F7828BB48B39C0122953295307F9E
S11304303227207F3227422B48BB21912BBBAFE1CF
S1130440B3E01197F1F700C00000019685309105E3
S113045039F708958C7090E09595879595958795D3
S1130460382FE0911901EE0FEE0FE82BF0E0EF5F6B
S1130470FE4F2081213039F1223029F0333051F000
S11304808093190108952091180121502093180197
S11304903330B1F7209118013EEF320F3830C8F0F5
S11304A0213F60F040910001209114013091150129
S11304B0241B310930931501209314011092180163
S11304C0809319010895209118012F5F209318013A
S11304D0D5CF409100012091140130911501240FD2
S11304E0311D3093150120931401E8CF8370E091FE
S11304F01701EE0FEE0FE82BF0E0EF5FFE4F908157
S1130500913039F1923029F0833051F08093170102
S11305100895909116019150909316018330B1F78C
S1130520909116012EEF290F2830C8F0913F60F00A
S1130530909100012091140130911501291B31097A
S11305403093150120931401109216018093170122
S11305500895909116019F5F90931601D5CF9091C5
S113056000012091140130911501290F311D3093A0
S1130570150120931401E8CFCF93DF930E94E0018B
S113058080931A01C82FD0E0CE010E942A02CE0126
S1130590DF91CF910C9476021F920F920FB60F92B7
S11305A011240BB60F922F933F934F935F936F9346
S11305B07F938F939F93AF93BF93EF93FF930E9487
S11305C0BC020E9402020E946901FF91EF91BF9157
S11305D0AF919F918F917F916F915F914F913F91D7
S11305E02F910F900BBE0F900FBE0F901F90189578
S11305F0809114019091150182302CEF920758F4E8
S1130600811524E0920730F08F5F93409093150199
S11306108093140108952091000180E094E0821BEE
S113062091099093150180931401089580EC82B987
S11306301F9887EF87BB8A9A8FEF80932D0187B726
S1130640816087BF83B7816083BF81E58DB978946A
S11306500E94EC010E940202FBCFA29FB001B39F53
S1130660C001A39F700D811D1124911DB29F700DB7
S10F0670811D1124911D0895F894FFCF02
S113067C010001020002000001010000020002015D
S105068C000068
S9030000FC
