:100000000C942C010C944B010C944B010C944B015F
:100010000C944B010C944B010C944B010C944B0130
:100020000C944B010C944B010C9413090C944B0150
:100030000C949E070C944B010C944B010C944B01B7
:100040000C941A070C944B010C944B010C944B012B
:100050000C944B010C94DF070C944B010C944B0156
:100060000C944B010C944B010C944B010C944B01E0
:100070000C944B010C944B010C944B010C944B01D0
:100080000C944B010C94C10B0C944B0187018F0114
:1000900097019F01A701B001B90177017F010D030D
:1000A000050300032A031D0325031503DE02D60200
:1000B000D102C9023203E602BC02A4025203FB02CF
:1000C000F302EB027203AC026203B4027F034A0341
:1000D0006A03C40242033A035A039F026D02650297
:1000E00075027703580250027A02330297026002C7
:1000F00043023B0287024B027F022B0211028F0256
:100100000102F9011E0216022302F4010902DC01B8
:10011000EC01D701CF01C701C201E4018904A704A2
:100120008304950477047D0477047D04AD04890479
:10013000A704830495048F0471048F047104D70409
:100140001305CB044305CB04070501057104DD0449
:100150007104EF049B04310577042505B3042B05D6
:10016000B9043705FB04A1049B04E304BF0489041C
:10017000A7048304950477047D0477047D04AD040B
:1001800089040D05A10483048F0471048F04710494
:10019000D7041905E904AD041F05DD04B304B9044F
:1001A0009B04A1043D05BF04E706E006D906D1067D
:1001B000C906EE06FE06010CD80BD80BD80BD80BDF
:1001C000D80BD80BD80B010CD80BD80BD80BD80BED
:1001D000D80BD80BD80B0B0CD80BD80BD80BD80BD3
:1001E000D80BD80BD80BD80BD80BD80BD80BD80BF7
:1001F000D80BD80BD80B0B0CD80BD80BD80BD80BB3
:10020000D80BD80BD80BD80BD80BD80BD80BD80BD6
:10021000D80BD80BD80B220CD80BD80BD80BD80B7B
:10022000D80BD80BD80B260CD80BD80BD80BD80B67
:10023000D80BD80BD80BD80BD80BD80BD80BD80BA6
:10024000D80BD80BD80B340CD80BD80BD80BD80B39
:10025000D80BD80BD80BF20B11241FBECFEFD0E177
:10026000DEBFCDBF11E0A0E0B1E0ECE4FEE100E0D4
:100270000BBF02C007900D92A633B107D9F721E05A
:10028000A6E3B1E001C01D92AD3EB207E1F70E94C6
:100290006C0E0C94240F0C940000929A1092790129
:1002A0001092780190E09093770180937601089501
:1002B000CF939298109279011092780130E03093A8
:1002C00077012093760150E04930510520F01BBCA6
:1002D0001ABCCF9108954A5B5F4FFA01992787FDB9
:1002E0009095A92FB92F815491090C94DA0E87307B
:1002F000910578F7815B9F4FFC010C94DA0E8730F3
:10030000910538F78A5A9F4FFC010C94DA0E87301A
:100310009105F8F6835A9F4FFC010C94DA0E873052
:100320009105B8F68C599F4FFC010C94DA0E87307A
:10033000910578F685599F4FFC010C94DA0E8730B1
:10034000910538F68E589F4FFC010C94DA0E8730D9
:10035000910508F0BECF87589F4FFC010C94DA0E30
:100360008730910508F0B5CF80589F4FFC010C9461
:10037000DA0E8730910508F0ACCF89579F4FFC010A
:100380000C94DA0E88E590E09BBD8ABDA2CF66236F
:1003900009F40FC283E690E09BBD8ABD9ACF662325
:1003A00009F411C28FE690E09BBD8ABD92CF86E72B
:1003B00090E09BBD8ABD8DCF662309F4FFC18AE41E
:1003C00090E09BBD8ABD85CF662309F401C283E519
:1003D00090E09BBD8ABD7DCF662309F4B8C182E45D
:1003E00090E09BBD8ABD75CF81EB90E09BBD8ABD3F
:1003F00070CF662309F4D3C185E890E09BBD8ABD28
:1004000068CF662309F4C1C185E990E09BBD8ABD30
:1004100060CF662309F4BEC187EA90E09BBD8ABD28
:1004200058CF84E691E09BBD8ABD53CF662309F483
:10043000BBC180EE90E09BBD8ABD4BCF8DEE90E0BE
:100440009BBD8ABD46CF662309F48BC187EC90E043
:100450009BBD8ABD3ECF662309F474C180E991E05B
:100460009BBD8ABD36CF662309F4CBC184E893E0F7
:100470009BBD8ABD2ECF662309F4AFC18BE291E00C
:100480009BBD8ABD26CF662309F4B1C182EA92E002
:100490009BBD8ABD1ECF8CED91E09BBD8ABD19CF5F
:1004A000662309F459C187E192E09BBD8ABD11CF53
:1004B000662309F4B0C188E592E09BBD8ABD09CFEF
:1004C0008AEC92E09BBD8ABD04CF662309F435C156
:1004D00086E496E09BBD8ABDFCCE662309F482C10A
:1004E0008AE097E09BBD8ABDF4CE86E995E09BBD8E
:1004F0008ABDEFCE8AEB93E09BBD8ABDEACE662330
:1005000009F47AC181EC91E09BBD8ABDE2CE6623FD
:1005100009F47CC18BE091E09BBD8ABDDACE6623F5
:1005200009F47EC180E591E09BBD8ABDD2CE6623F1
:1005300009F4ADC182E293E09BBD8ABDCACE86E7D5
:1005400097E09BBD8ABDC5CE662309F40FC18EEC32
:1005500092E19BBD8ABDBDCE662309F47AC18DE1CF
:1005600095E19BBD8ABDB5CE662309F4DCC080E66B
:1005700098E09BBD8ABDADCE662309F492C180E1AF
:1005800090E09BBD8ABDA5CE8EE29BE09BBD8ABD5F
:10059000A0CE662309F449C18BE190E09BBD8ABDE2
:1005A00098CE8CE190E09BBD8ABD93CE662309F482
:1005B00041C187E090E09BBD8ABD8BCE662309F4E4
:1005C000DAC08BE090E09BBD8ABD83CE82E190E0F3
:1005D0009BBD8ABD7ECE662309F49BC089E199E16B
:1005E0009BBD8ABD76CE662309F429C180E39CE1D8
:1005F0009BBD8ABD6ECE8CED9DE19BBD8ABD69CE53
:100600008AE390E09BBD8ABD64CE662309F435C1C0
:1006100080E290E09BBD8ABD5CCE662309F432C1C6
:1006200084E290E09BBD8ABD54CE662309F476C077
:1006300089E290E09BBD8ABD4CCE662309F478C068
:1006400081E390E09BBD8ABD44CE8BE290E09BBDF0
:100650008ABD3FCE662309F493C087E390E09BBD3B
:100660008ABD37CE662309F44FC088E190E09BBD78
:100670008ABD2FCE662309F4F6C082EB94E09BBDC1
:100680008ABD27CE662309F416C18DE89AE09BBD8A
:100690008ABD1FCE662309F4D7C086E19EE09BBDCC
:1006A0008ABD17CE662309F4F7C080EC90E19BBDAC
:1006B0008ABD0FCE662309F4D1C08FE294E09BBDC2
:1006C0008ABD07CE662309F4F1C087E699E09BBD99
:1006D0008ABDFFCD662309F4CBC08DE89CE09BBDAD
:1006E0008ABDF7CD8DE596E19BBD8ABDF2CD66232F
:1006F00009F4E6C086E495E09BBD8ABDEACD8DEEA7
:100700009EE09BBD8ABDE5CD85E190E09BBD8ABDA5
:10071000E0CD82EB97E19BBD8ABDDBCD86E290E028
:100720009BBD8ABDD6CD87EE97E09BBD8ABDD1CD5E
:100730008EE290E09BBD8ABDCCCD8BEE95E09BBD5B
:100740008ABDC7CD8AE791E09BBD8ABDC2CD8EE34D
:1007500090E09BBD8ABDBDCD89EF91E09BBD8ABD78
:10076000B8CD8CEB90E09BBD8ABDB3CD80EC91E120
:100770009BBD8ABDAECD89E090E09BBD8ABDA9CD71
:1007800084E390E09BBD8ABDA4CD8DE890E09BBD45
:100790008ABD9FCD8EE990E09BBD8ABD9ACD8DE745
:1007A00090E09BBD8ABD95CD83ED90E09BBD8ABD59
:1007B00090CD8DE590E09BBD8ABD8BCD86E490E029
:1007C0009BBD8ABD86CD89E690E09BBD8ABD81CD6B
:1007D0008EE490E09BBD8ABD7CCD8BE191E09BBD1A
:1007E0008ABD77CD85EA96E09BBD8ABD72CD8CE748
:1007F00092E09BBD8ABD6DCD88EA91E09BBD8ABD2C
:1008000068CD82E593E09BBD8ABD63CD8CEF90E01F
:100810009BBD8ABD5ECD87E392E09BBD8ABD59CD6D
:100820008DE391E09BBD8ABD54CD89E190E09BBDF5
:100830008ABD4FCD85E090E09BBD8ABD4ACD8AE957
:100840009AE19BBD8ABD45CD8CE49DE09BBD8ABDF0
:1008500040CD8DEE93E19BBD8ABD3BCD83EF93E010
:100860009BBD8ABD36CD8FE694E09BBD8ABD31CD60
:1008700088ED9BE09BBD8ABD2CCD8EE190E09BBDB9
:100880008ABD27CD82E290E09BBD8ABD22CD85EF57
:1008900092E09BBD8ABD1DCD80ED9FE09BBD8ABDD2
:1008A00018CD8DE090E09BBD8ABD13CD8FED98E013
:1008B0009BBD8ABD0ECD86EF99E09BBD8ABD09CD5B
:1008C0008AEF94E09BBD8ABD04CD8634910520F06B
:1008D0008FEF809368010895FC01E257FF4F0C945D
:1008E000DA0E22E044E060E081E40C94580126E056
:1008F00044E060E081E40C94580122E044E061E0CF
:1009000081E40C94580128E044E060E084E40C9415
:10091000580128E044E060E086E40C94580126E0A9
:1009200044E061E082E40C94580128E044E060E097
:1009300083E40C94580128E044E060E081E40C94E6
:10094000580128E044E060E087E40C94580128E076
:1009500044E060E085E40C94580120E144E060E06C
:1009600081E40C94580124E045E060E083E40C94B9
:10097000580124E045E060E084E40C945801929A28
:10098000109279011092780188E090E090937701BD
:10099000809376010895929A1092790110927801CD
:1009A00081E090E09093770180937601089520E1B3
:1009B00044E061E082E40C94580128E044E061E006
:1009C00082E40C94580128E144E060E087E40C9450
:1009D000580120E145E060E084E40C945801929ACB
:1009E000109279011092780182E090E09093770163
:1009F00080937601089524E044E060E081E40C9463
:100A0000580126E044E060E087E40C94580124E0BB
:100A100044E061E087E40C94580128E044E061E0A0
:100A200087E40C94580123E044E060E087E40C94F0
:100A3000580120E144E060E084E40C94580120E196
:100A400045E060E083E40C94580122E044E061E07A
:100A500082E40C94580124E045E061E084E40C94C5
:100A6000580124E044E061E081E40C94580128E05E
:100A700044E060E082E40C94580128E144E060E046
:100A800086E40C94580127E044E060E087E40C948D
:100A90005801862F90E00C946504109268018EB581
:100AA0008C7F8EBD929A0895109268018EB58360F6
:100AB0008EBD9298809168019091750190E00C94A0
:100AC00065048F9A87B7816187BF1FBC8EB5886028
:100AD0008EBD10927A0083E390E09BBD8ABD109298
:100AE00068018EB58C7F8EBD929A1092790110921A
:100AF000780110927701109276011092680110929D
:100B0000750108952091590130915A01220F331F28
:100B100049B350E002C0559547958A95E2F740FDEC
:100B20000EC081E090EE282B392B30935A01209390
:100B3000590181E02115304F09F080E0089580E0EF
:100B400090EEF1CF811102C080EC0895813091F0D8
:100B5000823091F08330A1F0843081F0853091F0C3
:100B6000863091F0873091F0883091F0893091F0A3
:100B700080E0089589EF089584EA089589E9089549
:100B800080EB089582E9089582E8089588EF08953A
:100B900080E8089580E90895FF920F931F93CF9303
:100BA000DF93EC0180915B0180FF82C08CEF80932A
:100BB00081019E01ADECBCEC0E94E00E96958795FC
:100BC00096958795969587953C2F2AE0829F3019B8
:100BD0001124832F0E94A205F82E9E013695279599
:100BE00036952795ABE7B4E10E94E00E9695879580
:100BF00044E6489F9001499F300D1124CE01821B8D
:100C0000930B9C01ADECBCEC0E94E00E9695879591
:100C100096958795969587950E94A2058093800169
:100C20009E01369527953695279536952795A5ECFF
:100C3000B0E20E94E00E8C01129502950F70012720
:100C40001F70012748EE53E0049F9001059F300D6F
:100C5000149F300D1124CE01821B930B9C013695FD
:100C6000279536952795ABE7B4E10E94E00E96955F
:100C700087950E94A20580938201802F0E94A20581
:100C80008093830180914001882321F08091670146
:100C9000811112C08F2D806880937F018091610146
:100CA000813091F0DF91CF911F910F91FF900895C6
:100CB0008FEF809381017DCF8F2D8F7780937F0180
:100CC00080916101813071F780913701882351F360
:100CD0008FEF8093830180938201809380018093C2
:100CE0007F01DF91CF911F910F91FF9008951F9386
:100CF000CF93DF931ABA8FEF8BBB0000000088B34D
:100D0000806788BB0000000020E030E0D1E0C3E055
:100D100012E010C061E070EE462B572B50935A0141
:100D2000409359014115504FC9F02F5F3F4F283074
:100D3000310511F1822F4091590150915A01440F10
:100D4000551F69B370E0022E02C0759567950A942D
:100D5000E2F760FFDFCF60E070EEDECF90E001975A
:100D60008730910588F010926101D09349012F5F7F
:100D70003F4F28303105F1F68FEF8ABB00000000AD
:100D8000DF91CF911F9108958C529F4FFC010C94DD
:100D9000DA0E81E090916701911180E08093670104
:100DA000E4CF81E090913601911180E0809336018B
:100DB000DCCF809161018330B1F2C0936101D5CF66
:100DC00080916101823079F210936101CECF8091E0
:100DD0006101813041F2D0936101C7CF8091380128
:100DE000882309F4C2CFD0933A01109238011092AF
:100DF00068018EB58C7F8EBD929AB7CF80913901F4
:100E0000882379F090913801992391F0109268012C
:100E10008EB58C7F8EBD929A1092380190913901D7
:100E200001C090E081E0911180E0809339019DCF75
:100E3000982FF8CF1F920F920FB60F9211240BB676
:100E40000F922F933F934F935F936F937F938F9363
:100E50009F93AF93BF93CF93EF93FF93209158014C
:100E60002F5F2093580120FD03C081E080934B0148
:100E7000822F877081F48091780190917901019699
:100E8000909379018093780181E0909137019111DD
:100E90003FC0809337012F7739F580915B018F5FD9
:100EA00080935B01809160018F5F80936001C1E05E
:100EB000C0934A01809139018823B1F02091440107
:100EC00030914501809146019091470128173907DB
:100ED00041F180913A01882339F080913B018F5F85
:100EE00080933B018A30B0F4FF91EF91CF91BF9195
:100EF000AF919F918F917F916F915F914F913F91B2
:100F00002F910F900BBE0F900FBE0F901F90189552
:100F100080E0BFCF10923A010E94540510923B012D
:100F2000E3CF80913A018111D8CF809138018111AE
:100F3000DBCF0E945405C0933801D6CF1F920F9289
:100F40000FB60F9211240BB60F922F933F934F932E
:100F50005F936F937F938F939F93AF93BF93EF9321
:100F6000FF9382B3805882BBC09A20917801309160
:100F7000790180917601909177012817390760F007
:100F8000809168018F5F80936801809168019091E2
:100F9000750190E00E946504FF91EF91BF91AF91C0
:100FA0009F918F917F916F915F914F913F912F9181
:100FB0000F900BBE0F900FBE0F901F9018951F92B1
:100FC0000F920FB60F9211248F939F9385B18436A1
:100FD00048F081E083BD9F918F910F900FBE0F90DD
:100FE0001F90189595B184E6891B83BD9F918F91C1
:100FF0000F900FBE0F901F90189580916001209167
:101000005F018C3328F02F5F20935F011092600105
:10101000E0915E012C33C0F530E0E831F0F56E2F41
:1010200070E084E6E89FA0011124F0915C018091BA
:101030005D0190E0A4E6FA9F800D911D112490932C
:10104000450180934401C901840F951F9093470186
:101050008093460140916701442339F1EC3050F10F
:10106000EC30D1F16C50710944E6469FC001479FB6
:10107000900D1124820F931F90934301809342019E
:1010800081E0809340010895EF5FE0935E0110924C
:101090005F0120E030E0E83110F210925E0140E0A4
:1010A00050E060E070E0E0E0C0CF909343018093B7
:1010B00042010895EE2339F0909343018093420159
:1010C00010924001089520553B4F309343012093E7
:1010D000420110924001089520553B4F3093430147
:1010E00020934201089580E58DB908958FB9779BCB
:1010F000FECF089583B113B8000000001FB81E9AF8
:1011000000000000779BFECF8FB1089580916101B0
:101110008823B9F09FEF980F81E001C0880F9A955E
:10112000EAF79091390191118FEF8FB9779BFECF3C
:1011300084E082BB0000000088E082BB0000000069
:10114000089580E0EECF80916101833009F441C0C1
:10115000843041F08230A1F18091420190914301AD
:101160000E94CC05209154018DEC289F812D1124E3
:1011700086958695982F990F990F980F822F891B26
:10118000823009F445C078F08330B9F1843059F5E4
:1011900080E488BB809183018BBB809154018F5F79
:1011A0008093540108958130F1F480E188BB8091EF
:1011B00080018BBB809154018F5F8093540108950F
:1011C00080914401909145010E94CC0510928101CB
:1011D000C9CF80918600909187000E94CC058FEF47
:1011E00080938101BFCF18BA80917F018BBB809122
:1011F00054018F5F80935401089580E388BB8091F0
:1012000082018BBB809154018F5F809354010895BC
:1012100080E288BB809181018BBB809154018F5FFC
:101220008093540108951F920F920FB60F921124CC
:101230000BB60F922F933F934F935F936F937F93D0
:101240008F939F93AF93BF93CF93EF93FF93C091EF
:101250005701CF5FC09357018C2F8F73F1F0C77088
:10126000C1F0C13011F40E94A308FF91EF91CF911A
:10127000BF91AF919F918F917F916F915F914F91AE
:101280003F912F910F900BBE0F900FBE0F901F90AC
:10129000189581E080934D01E8CF0E947706DFCF5B
:1012A00080916101813059F0823041F480915D017B
:1012B0008F5F8C3388F010925D01089508958091BE
:1012C0005F018F5F8C3358F010925F018091600155
:1012D0008F5F80936001089580935D0108958093EE
:1012E0005F01809160018F5F80936001089580911C
:1012F0006101813071F0823059F480915D0181503B
:1013000080935D01803F18F08BE380935D01089529
:10131000089580915F01815080935F01803FB8F311
:101320008BE380935F010895CF93DF931F92CDB736
:10133000DEB78370E0915101EE0FEE0FE82BF0E085
:10134000ED5FFE4F9081913009F1923041F0833092
:1013500069F0809351010F90DF91CF9108959091A2
:101360005001915090935001833099F79091500122
:101370002EEF290F2830B8F0913F70F410925001F1
:10138000809351010F90DF91CF910895909150017A
:101390009F5F90935001DBCF89830E9477098981F9
:1013A00010925001EDCF89830E94500989811092DB
:1013B0005001E6CF80916101823021F1B8F0833095
:1013C00051F0843071F581E090913601911124C083
:1013D000809336010895809100018F5F8093000112
:1013E00090E0909387008093860008958130C1F447
:1013F00080915E018F5F80935E01883158F3109277
:101400005E01089580915C018F5F80935C0188315B
:1014100008F310925C01089580E080933601DACFE2
:101420000895089580916101823029F1B8F08330E8
:1014300051F0843081F581E090913601911126C000
:1014400080933601089580910001815080930001BE
:1014500090E0909387008093860008958130D1F4C6
:1014600080915E01815080935E01803F58F387E157
:1014700080935E01089580915C01815080935C01AE
:10148000803F00F387E180935C01089580E08093C2
:101490003601D8CF08950895CF93DF938C70C82F6D
:1014A000D0E0D595C795D595C7959C2FE091530170
:1014B000EE0FEE0FEC2BF0E0ED5FFE4F8081813000
:1014C000F9F0823039F0933061F0C0935301DF912D
:1014D000CF910895809152018150809352019330B1
:1014E000A1F7809152019EEF980F9830A0F0813FB4
:1014F00068F410925201C0935301DF91CF91089587
:10150000809152018F5F80935201DDCF0E94120AB9
:1015100010925201F0CF0E94DA0910925201EBCFE3
:10152000CF93C0915601CF5FC09356010E947A08B5
:1015300080935501C0FF03C0CF910C949409CF91C3
:101540000C944C0ACF93813079F081E00E94810C99
:101550000E94B50CC82F0E94B50C2C2F30E0A901B9
:10156000582BCA01CF91089582E00E94810CF0CFE0
:10157000EF92FF920F931F93CF93DF9300D000D091
:1015800000D0CDB7DEB780914A018823E9F1809180
:101590003601811146C082E00E94DF0C7C0182E0AE
:1015A0000E94A20A8C01E0916401F091650186E439
:1015B0008787E0916201F091630187874AE0BE016D
:1015C0006C5F7F4FC7010E94EF0E4AE0BE016F5F64
:1015D0007F4FC8010E94EF0E8E81E0916401F0916F
:1015E0006501813391F18C8185878D8186878B811F
:1015F000E0916201F0916301813399F189818587DE
:101600008A81868710924A0126960FB6F894DEBF2B
:101610000FBECDBFDF91CF911F910F91FF90EF9043
:10162000089581E00E94A20A8C0181E00E94DF0CF3
:101630007C01E0916401F091650183E48787E0918A
:101640006201F09163018787B9CF9C8194879D8166
:10165000958786878B81E0916201F09163018133E8
:1016600069F6998194879A8195878687CBCF0E9466
:10167000B80A80914F01803150F090EF980F90316F
:10168000F8F08B34B0F48F5F80934F010895E091B0
:101690006401F0916501E80FF11D80810E94730DD6
:1016A00080914F018F3079F70E94430D80914F0157
:1016B000EACF81E08093480110924F010C94310DE4
:1016C000E0916201F0916301E80FF11D7097808154
:1016D0000E94730D80914F018F5F80934F01089599
:1016E00080914E01803130F48F3079F08F5F80939C
:1016F0004E01089590EF980F9031C0F38B34B0F302
:101700008F5F80934E010C94310D0E94430D8091A8
:101710004E01ECCF83B7816083BF80B7886080BF04
:1017200085B58A6785BD87B7816487BF0895E1E67F
:10173000F0E0808180831092620087B1806687B973
:1017400086B18F6E86B98FEF83BD089581E880934F
:101750008B0089E080938A008091000190E0909353
:10176000870080938600089583E191E0909365015E
:101770008093640184E291E090936301809362011D
:1017800008951F920F920FB60F9211240BB60F926D
:101790002F933F938F939F93AF93BF93EF93FF93B9
:1017A0008091710090E0FC013897E135F105B0F0CF
:1017B000809171008093840184E080937400FF9194
:1017C000EF91BF91AF919F918F913F912F910F908A
:1017D0000BBE0F900FBE0F901F901895E552FF4F54
:1017E0000C94DA0E80916601E0918501F0918601FA
:1017F000E80FF11D80917300808384E98093740069
:10180000DECF80918701809373001092660185E896
:1018100080937400D4CF80916601909188018917DC
:1018200060F7E0918501F091860191E0980F909327
:101830006601E80FF11D80818093730085E8809335
:101840007400BDCF85EA80937400B9CF2091660102
:101850008091880130E090E0019728173907DCF487
:1018600085EC80937400ABCFE0918501F091860107
:101870008091660121E0280F20936601E80FF11D99
:101880008091730080838091880130E090E001971F
:10189000281739072CF385E88093740090CF809146
:1018A0007400817008959091740090FDFCCF8E7F3C
:1018B000809387017093860160938501409388012E
:1018C00085EA8093740008959091740090FDFCCF98
:1018D00081608093870170938601609385014093B6
:1018E000880185EA8093740008958FEF80937300D8
:1018F000109271008CE08093700082B3836082BB91
:1019000008955D9BFECF8CB95D9BFECF0895FC01D1
:101910002081222349F031965D9BFECF2CB95D9B3F
:10192000FECF21912111F8CF08959C01FC01449133
:10193000442369F00196F90124915D9BFECF2CB9F7
:101940005D9BFECF9C01FC0144914111F3CF0895B2
:101950008AB188618AB9E5E9F0E080818660808398
:101960001092900087E689B9089580E89EE303C04D
:101970000197009721F05F9BFBCF8CB1089580E029
:101980000895623009F008959C01220F331F220F41
:10199000331F220F331F280F391FADECBCEC0E9400
:1019A000E00E969587959695879580960895109266
:1019B000D90142E069ED71E080E90C94530CCF93BA
:1019C000C82F42E06BED71E080E90E94640C8FE368
:1019D0009FE10197F1F700C000002091DB0130E0AA
:1019E000922F88272091DC01822B880F892F881F56
:1019F000990B9195C23091F49C01220F331F220F55
:101A0000331F220F331F280F391FADECBCEC0E948F
:101A1000E00E96958795969587958096CF91089537
:101A2000E2E6F0E08081886080838081877F808328
:101A300008951FB8779BFECF81E08FB9779BFECFCB
:101A40008091620088608093620080916200877F4D
:101A5000809362008FE39FE10197F1F700C00000DF
:101A600008951FB8779BFECF82E08FB9779BFECF9A
:101A70008091620088608093620080916200877F1D
:101A80008093620008951FB8779BFECF80EC8FB9DA
:101A9000779BFECF80916200886080936200809186
:101AA0006200877F80936200089580E190E041E0CA
:101AB00030E24FB9779BFECF3FB9779BFECF2091A5
:101AC000620028602093620020916200277F2093AB
:101AD0006200EFE9FFE03197F1F700C000000197E5
:101AE000009739F7089591E09FB9779BFECF8FB9A2
:101AF000779BFECF80916200886080936200809126
:101B00006200877F809362008FE99FE00197F1F781
:101B100000C0000008951FB8779BFECF8CE08FB9FE
:101B2000779BFECF809162008860809362008091F5
:101B30006200877F809362008FE99FE00197F1F751
:101B400000C000000895DC0180E090E020E030E07B
:101B500041E04FB9779BFECFFD01E80FF91F80816F
:101B60008FB9779BFECF809162008860809362007E
:101B700080916200877F809362008FE891E00197F7
:101B8000F1F700C000002F5F3F4FC901FD01019038
:101B90000020E9F7EA1BFB0B3297E217F307C8F6C0
:101BA0000895809161008860809361008FE59AEECE
:101BB0000197F1F700C0000083E090E030E31FB828
:101BC000779BFECF3FB9779BFECF209162002860C4
:101BD0002093620020916200277F20936200EFE54E
:101BE000FDE63197F1F700C000000197009739F743
:101BF0001FB8779BFECF88E38FB9779BFECF80918C
:101C0000620088608093620080916200877F809389
:101C100062008FE19EE40197F1F700C000001FB859
:101C2000779BFECF88E08FB9779BFECF80916200D3
:101C300088608093620080916200877F8093620059
:101C4000EFE1FEE43197F1F700C000001FB8779B89
:101C5000FECF81E08FB9779BFECF809162008860D4
:101C60008093620080916200877F809362008FE1A1
:101C70009EE40197F1F700C000001FB8779BFECFEC
:101C800086E08FB9779BFECF809162008860809359
:101C9000620080916200877F80936200EFE1FEE442
:101CA0003197F1F700C000001FB8779BFECF8EE0A0
:101CB0008FB9779BFECF809162008860809362002D
:101CC00080916200877F809362008FE19EE401979C
:101CD000F1F700C0000008959FEF92B91F9887EFB9
:101CE00087BB8A9A84E68093000183B7816083BFB3
:101CF00080B7886080BF85B58A6785BD87B78164F6
:101D000087BF80916100809361001092620087B16B
:101D1000806687B986B18F6E86B993BD0E946105D2
:101D200080E58DB90E94D10D0E94750C0E94A80C0F
:101D300081E880938B0089E080938A008091000184
:101D400090E090938700809386000E94D70C0E94B9
:101D50008B0D83E191E0909365018093640184E2AF
:101D600091E09093630180936201789408C0809120
:101D70004901811112C080914B01811116C00E944E
:101D8000FD0780914D01882391F30E94900A1092E3
:101D90004D0180914901882371F30E9486081092B9
:101DA000490180914B01882351F30E94370B109217
:101DB0004B01E5CFEE0FFF1F0590F491E02D099444
:101DC000A29FB001B39FC001A39F700D811D11247C
:101DD000911DB29F700D811D1124911D0895BB2787
:101DE0004A3031F4992322F4BDE2909581959F4FBA
:101DF0000C94FB0EBB27FB015527AA27880F991FC0
:101E0000AA1FA41710F0A41B83955051B9F7A05D29
:101E1000AA3308F0A95DA193009779F7B111B193A6
:101E20001192CB010C94140FDC01FC01672F71910E
:101E30007723E1F7329704C07C916D9370836291B0
:0C1E4000AE17BF07C8F30895F894FFCF59
:101E4C0064FF010001020002000001010000020019
:101E5C000201004C6F63616C202074656D703A2038
:101E6C002020430052656D6F74652074656D703A67
:061E7C00202020430000BD
:00000001FF
