S00C00006C6162362E73726563B3
S11300000C942C010C944B010C944B010C944B015B
S11300100C944B010C944B010C944B010C944B012C
S11300200C94F2070C944B010C9441090C944B0171
S11300300C94B1070C944B010C944B010C944B01A0
S11300400C942D070C944B010C944B010C944B0114
S11300500C944B010C940E080C944B010C944B0122
S11300600C944B010C944B010C944B010C944B01DC
S11300700C944B010C944B010C944B010C944B01CC
S11300800C944B010C94FA0B0C944B0187018F01D7
S113009097019F01A701B001B90177017F010D0309
S11300A0050300032A031D0325031503DE02D602FC
S11300B0D102C9023203E602BC02A4025203FB02CB
S11300C0F302EB027203AC026203B4027F034A033D
S11300D06A03C40242033A035A039F026D02650293
S11300E075027703580250027A02330297026002C3
S11300F043023B0287024B027F022B0211028F0252
S11301000102F9011E0216022302F4010902DC01B4
S1130110EC01D701CF01C701C201E4018904A7049E
S11301208304950477047D0477047D04AD04890475
S1130130A704830495048F0471048F047104D70405
S11301401305CB044305CB04070501057104DD0445
S11301507104EF049B04310577042505B3042B05D2
S1130160B9043705FB04A1049B04E304BF04890418
S1130170A7048304950477047D0477047D04AD0407
S113018089040D05A10483048F0471048F04710490
S1130190D7041905E904AD041F05DD04B304B9044B
S11301A09B04A1043D05BF040107E606DD06D30652
S11301B0C906EF060A073A0C110C110C110C110CAC
S11301C0110C110C110C3A0C110C110C110C110C1A
S11301D0110C110C110C440C110C110C110C110C00
S11301E0110C110C110C110C110C110C110C110C23
S11301F0110C110C110C440C110C110C110C110CE0
S1130200110C110C110C110C110C110C110C110C02
S1130210110C110C110C5B0C110C110C110C110CA8
S1130220110C110C110C5F0C110C110C110C110C94
S1130230110C110C110C110C110C110C110C110CD2
S1130240110C110C110C6D0C110C110C110C110C66
S1130250110C110C110C2B0C11241FBECFEFD0E18B
S1130260DEBFCDBF11E0A0E0B1E0E6E4F1E200E0E2
S11302700BBF02C007900D92A633B107D9F722E055
S1130280A6E3B1E001C01D92AC32B207E1F70E94CF
S1130290C80F0C94A1100C940000929A1092800143
S11302A010927F0190E090937D0180937C010895EA
S11302B0CF9392981092800110927F0130E0309396
S11302C07D0120937C0150E04930510520F01BBC96
S11302D01ABCCF9108954A5B5F4FFA01992787FDB5
S11302E09095A92FB92F815491090C9457108730F8
S11302F0910578F7815B9F4FFC010C945710873070
S1130300910538F78A5A9F4FFC010C945710873097
S11303109105F8F6835A9F4FFC010C9457108730CF
S11303209105B8F68C599F4FFC010C9457108730F7
S1130330910578F685599F4FFC010C94571087302E
S1130340910538F68E589F4FFC010C945710873056
S1130350910508F0BECF87589F4FFC010C945710AD
S11303608730910508F0B5CF80589F4FFC010C945D
S113037057108730910508F0ACCF89579F4FFC0187
S11303800C94571088E590E09BBD8ABDA2CF6623EC
S113039009F40FC283E690E09BBD8ABD9ACF662321
S11303A009F411C28FE690E09BBD8ABD92CF86E727
S11303B090E09BBD8ABD8DCF662309F4FFC18AE41A
S11303C090E09BBD8ABD85CF662309F401C283E515
S11303D090E09BBD8ABD7DCF662309F4B8C182E459
S11303E090E09BBD8ABD75CF81EB90E09BBD8ABD3B
S11303F070CF662309F4D3C185E890E09BBD8ABD24
S113040068CF662309F4C1C185E990E09BBD8ABD2C
S113041060CF662309F4BEC187EA90E09BBD8ABD24
S113042058CF84E691E09BBD8ABD53CF662309F47F
S1130430BBC180EE90E09BBD8ABD4BCF8DEE90E0BA
S11304409BBD8ABD46CF662309F48BC187EC90E03F
S11304509BBD8ABD3ECF662309F474C180E991E057
S11304609BBD8ABD36CF662309F4CBC184E893E0F3
S11304709BBD8ABD2ECF662309F4AFC18BE291E008
S11304809BBD8ABD26CF662309F4B1C182EA92E0FE
S11304909BBD8ABD1ECF8CED91E09BBD8ABD19CF5B
S11304A0662309F459C187E192E09BBD8ABD11CF4F
S11304B0662309F4B0C188E592E09BBD8ABD09CFEB
S11304C08AEC92E09BBD8ABD04CF662309F435C152
S11304D086E496E09BBD8ABDFCCE662309F482C106
S11304E08AE097E09BBD8ABDF4CE86E995E09BBD8A
S11304F08ABDEFCE8AEB93E09BBD8ABDEACE66232C
S113050009F47AC181EC91E09BBD8ABDE2CE6623F9
S113051009F47CC18BE091E09BBD8ABDDACE6623F1
S113052009F47EC180E591E09BBD8ABDD2CE6623ED
S113053009F4ADC182E293E09BBD8ABDCACE86E7D1
S113054097E09BBD8ABDC5CE662309F40FC18EEC2E
S113055092E19BBD8ABDBDCE662309F47AC18DE1CB
S113056095E19BBD8ABDB5CE662309F4DCC080E667
S113057098E09BBD8ABDADCE662309F492C180E1AB
S113058090E09BBD8ABDA5CE8EE29BE09BBD8ABD5B
S1130590A0CE662309F449C18BE190E09BBD8ABDDE
S11305A098CE8CE190E09BBD8ABD93CE662309F47E
S11305B041C187E090E09BBD8ABD8BCE662309F4E0
S11305C0DAC08BE090E09BBD8ABD83CE82E190E0EF
S11305D09BBD8ABD7ECE662309F49BC089E199E167
S11305E09BBD8ABD76CE662309F429C180E39CE1D4
S11305F09BBD8ABD6ECE8CED9DE19BBD8ABD69CE4F
S11306008AE390E09BBD8ABD64CE662309F435C1BC
S113061080E290E09BBD8ABD5CCE662309F432C1C2
S113062084E290E09BBD8ABD54CE662309F476C073
S113063089E290E09BBD8ABD4CCE662309F478C064
S113064081E390E09BBD8ABD44CE8BE290E09BBDEC
S11306508ABD3FCE662309F493C087E390E09BBD37
S11306608ABD37CE662309F44FC088E190E09BBD74
S11306708ABD2FCE662309F4F6C082EB94E09BBDBD
S11306808ABD27CE662309F416C18DE89AE09BBD86
S11306908ABD1FCE662309F4D7C086E19EE09BBDC8
S11306A08ABD17CE662309F4F7C080EC90E19BBDA8
S11306B08ABD0FCE662309F4D1C08FE294E09BBDBE
S11306C08ABD07CE662309F4F1C087E699E09BBD95
S11306D08ABDFFCD662309F4CBC08DE89CE09BBDA9
S11306E08ABDF7CD8DE596E19BBD8ABDF2CD66232B
S11306F009F4E6C086E495E09BBD8ABDEACD8DEEA3
S11307009EE09BBD8ABDE5CD85E190E09BBD8ABDA1
S1130710E0CD82EB97E19BBD8ABDDBCD86E290E024
S11307209BBD8ABDD6CD87EE97E09BBD8ABDD1CD5A
S11307308EE290E09BBD8ABDCCCD8BEE95E09BBD57
S11307408ABDC7CD8AE791E09BBD8ABDC2CD8EE349
S113075090E09BBD8ABDBDCD89EF91E09BBD8ABD74
S1130760B8CD8CEB90E09BBD8ABDB3CD80EC91E11C
S11307709BBD8ABDAECD89E090E09BBD8ABDA9CD6D
S113078084E390E09BBD8ABDA4CD8DE890E09BBD41
S11307908ABD9FCD8EE990E09BBD8ABD9ACD8DE741
S11307A090E09BBD8ABD95CD83ED90E09BBD8ABD55
S11307B090CD8DE590E09BBD8ABD8BCD86E490E025
S11307C09BBD8ABD86CD89E690E09BBD8ABD81CD67
S11307D08EE490E09BBD8ABD7CCD8BE191E09BBD16
S11307E08ABD77CD85EA96E09BBD8ABD72CD8CE744
S11307F092E09BBD8ABD6DCD88EA91E09BBD8ABD28
S113080068CD82E593E09BBD8ABD63CD8CEF90E01B
S11308109BBD8ABD5ECD87E392E09BBD8ABD59CD69
S11308208DE391E09BBD8ABD54CD89E190E09BBDF1
S11308308ABD4FCD85E090E09BBD8ABD4ACD8AE953
S11308409AE19BBD8ABD45CD8CE49DE09BBD8ABDEC
S113085040CD8DEE93E19BBD8ABD3BCD83EF93E00C
S11308609BBD8ABD36CD8FE694E09BBD8ABD31CD5C
S113087088ED9BE09BBD8ABD2CCD8EE190E09BBDB5
S11308808ABD27CD82E290E09BBD8ABD22CD85EF53
S113089092E09BBD8ABD1DCD80ED9FE09BBD8ABDCE
S11308A018CD8DE090E09BBD8ABD13CD8FED98E00F
S11308B09BBD8ABD0ECD86EF99E09BBD8ABD09CD57
S11308C08AEF94E09BBD8ABD04CD8634910520F067
S11308D08FEF80936E010895FC01E257FF4F0C9453
S11308E0571022E044E060E081E40C94580126E0D3
S11308F044E060E081E40C94580122E044E061E0CB
S113090081E40C94580128E044E060E084E40C9411
S1130910580128E044E060E086E40C94580126E0A5
S113092044E061E082E40C94580128E044E060E093
S113093083E40C94580128E044E060E081E40C94E2
S1130940580128E044E060E087E40C94580128E072
S113095044E060E085E40C94580120E144E060E068
S113096081E40C94580124E045E060E083E40C94B5
S1130970580124E045E060E084E40C945801929A24
S11309801092800110927F0188E090E090937D01A5
S113099080937C010895929A1092800110927F01B5
S11309A081E090E090937D0180937C01089520E1A3
S11309B044E061E082E40C94580128E044E061E002
S11309C082E40C94580128E144E060E087E40C944C
S11309D0580120E145E060E084E40C945801929AC7
S11309E01092800110927F0182E090E090937D014B
S11309F080937C01089524E044E060E081E40C9459
S1130A00580126E044E060E087E40C94580124E0B7
S1130A1044E061E087E40C94580128E044E061E09C
S1130A2087E40C94580123E044E060E087E40C94EC
S1130A30580120E144E060E084E40C94580120E192
S1130A4045E060E083E40C94580122E044E061E076
S1130A5082E40C94580124E045E061E084E40C94C1
S1130A60580124E044E061E081E40C94580128E05A
S1130A7044E060E082E40C94580128E144E060E042
S1130A8086E40C94580127E044E060E087E40C9489
S1130A905801862F90E00C94650410926E018EB577
S1130AA08C7F8EBD929A089510926E018EB58360EC
S1130AB08EBD929880916E0190917B0190E00C9490
S1130AC065048F9A87B7816187BF1FBC8EB5886024
S1130AD08EBD10927A0083E390E09BBD8ABD109294
S1130AE06E018EB58C7F8EBD929A10928001109209
S1130AF07F0110927D0110927C0110926E01109280
S1130B007B01089520915C0130915D01220F331F18
S1130B1049B350E002C0559547958A95E2F740FDE8
S1130B200EC081E090EE282B392B30935D01209389
S1130B305C0181E02115304F09F080E0089580E0E8
S1130B4090EEF1CF811102C080EC0895813091F0D4
S1130B50823091F08330A1F0843081F0853091F0BF
S1130B60863091F0873091F0883091F0893091F09F
S1130B7080E0089589EF089584EA089589E9089545
S1130B8080EB089582E9089582E8089588EF089536
S1130B9080E8089580E90895FF920F931F93CF93FF
S1130BA0DF93EC0180915E0180FF82C08CEF809323
S1130BB08B019E01ADECBCEC0E945D10969587956F
S1130BC096958795969587953C2F2AE0829F3019B4
S1130BD01124832F0E94A205F82E9E013695279595
S1130BE036952795ABE7B4E10E945D1096958795FD
S1130BF044E6489F9001499F300D1124CE01821B89
S1130C00930B9C01ADECBCEC0E945D10969587950E
S1130C1096958795969587950E94A20580938A015B
S1130C209E01369527953695279536952795A5ECFB
S1130C30B0E20E945D108C01129502950F7001279D
S1130C401F70012748EE53E0049F9001059F300D6B
S1130C50149F300D1124CE01821B930B9C013695F9
S1130C60279536952795ABE7B4E10E945D109695DC
S1130C7087950E94A20580938C01802F0E94A20573
S1130C8080938D0180914201882321F080916B0132
S1130C90811112C08F2D8068809389018091640135
S1130CA0813091F0DF91CF911F910F91FF900895C2
S1130CB08FEF80938B017DCF8F2D8F778093890168
S1130CC080916401813071F780913901882351F357
S1130CD08FEF80938D0180938C0180938A018093A0
S1130CE08901DF91CF911F910F91FF9008951F9378
S1130CF0CF93DF931ABA8FEF8BBB0000000088B349
S1130D00806788BB0000000020E030E0D1E0C3E051
S1130D1012E010C061E070EE462B572B50935D013A
S1130D2040935C014115504FC9F02F5F3F4F28306D
S1130D30310511F1822F40915C0150915D01440F06
S1130D40551F69B370E0022E02C0759567950A9429
S1130D50E2F760FFDFCF60E070EEDECF90E0019756
S1130D608730910588F0D0934A01D0934C012F5FCE
S1130D703F4F28303105F1F68FEF8ABB00000000A9
S1130D80DF91CF911F9108958C529F4FFC010C94D9
S1130D90571081E090916B01911180E080936B0179
S1130DA0D0934C01E4CF81E090913801911180E01F
S1130DB080933801D0934C01DACF80916401833061
S1130DC0E1F1C0936401D0934C01D1CF80916401CF
S1130DD0823099F110936401D0934C01C8CF809173
S1130DE03A01882309F4C1CFD0933C0110923A010F
S1130DF010926E018EB58C7F8EBD929AD0934C0169
S1130E00B6CF809164018130C1F0D0936401D09356
S1130E104C01ADCF80913B018823A1F090913A0120
S1130E209923C9F010926E018EB58C7F8EBD929A73
S1130E3010923A0190913B0106C010926401D09344
S1130E404C0195CF90E081E0911180E080933B01CB
S1130E50D0934C018CCF982FF6CF1F920F920FB6E0
S1130E600F9211240BB60F922F933F934F935F93DE
S1130E706F937F938F939F93AF93BF93CF93EF938E
S1130E80FF9320915B012F5F20935B0120FD03C042
S1130E9081E080934E01822F877081F480917F01DD
S1130EA09091800101969093800180937F0181E06D
S1130EB09091390191113FC0809339012F7739F511
S1130EC080915E018F5F80935E01809163018F5FEB
S1130ED080936301C1E0C0934D0180913B0188235D
S1130EE0B1F02091460130914701809148019091E1
S1130EF049012817390741F180913C01882339F0D1
S1130F0080913D018F5F80933D018A30B0F4FF9161
S1130F10EF91CF91BF91AF919F918F917F916F91FD
S1130F205F914F913F912F910F900BBE0F900FBE89
S1130F300F901F90189580E0BFCF10923C010E9443
S1130F40540510923D01E3CF80913C018111D8CF2B
S1130F5080913A018111DBCF0E945405C0933A017C
S1130F60D6CF1F920F920FB60F9211240BB60F9289
S1130F702F933F934F935F936F937F938F939F939D
S1130F80AF93BF93EF93FF9382B3805882BBC09A11
S1130F9020917F013091800180917C0190917D01AD
S1130FA02817390760F080916E018F5F80936E017E
S1130FB080916E0190917B0190E00E946504FF9105
S1130FC0EF91BF91AF919F918F917F916F915F91BD
S1130FD04F913F912F910F900BBE0F900FBE0F902A
S1130FE01F9018951F920F920FB60F9211248F9392
S1130FF09F9381E080938401809162018F5F80934D
S113100062018FE797E090934901809348019F9193
S11310108F910F900FBE0F901F9018951F920F92F3
S11310200FB60F9211248F939F9385B1843648F0A5
S113103081E083BD9F918F910F900FBE0F901F9001
S1131040189595B184E6891B83BD9F918F910F906C
S11310500FBE0F901F90189580916301209162013B
S11310608C3328F02F5F2093620110926301E0918A
S113107061012C33C0F530E0E831F0F56E2F70E0FB
S113108084E6E89FA0011124F0915F018091600142
S113109090E0A4E6FA9F800D911D112490934701DE
S11310A080934601C901840F951F90934901809351
S11310B0480140916B01442339F1EC3050F1EC309C
S11310C0D1F16C50710944E6469FC001479F900DD1
S11310D01124820F931F909345018093440181E072
S11310E0809342010895EF5FE093610110926201E1
S11310F020E030E0E83110F21092610140E050E06D
S113110060E070E0E0E0C0CF90934501809344013B
S11311100895EE2339F09093450180934401109291
S11311204201089520553B4F3093450120934401DB
S113113010924201089520553B4F3093450120936E
S11311404401089580E58DB908958FB9779BFECF4A
S113115008951E98000000001FB81E9A00000000A9
S1131160779BFECF8FB10895809164018823B9F0F5
S11311709FEF980F81E001C0880F9A95EAF790914C
S11311803B0191118FEF8FB9779BFECF84E082BB37
S11311900000000088E082BB00000000089580E0A9
S11311A0EECF80916401833009F441C0843041F072
S11311B08230A1F180914401909145010E94CC05B7
S11311C0209157018DEC289F812D112486958695B9
S11311D0982F990F990F980F822F891B823009F449
S11311E045C078F08330B9F1843059F580E488BB88
S11311F080918D018BBB809157018F5F8093570144
S113120008958130F1F480E188BB80918A018BBB21
S1131210809157018F5F8093570108958091460113
S1131220909147010E94CC0510928B01C9CF809107
S11312308600909187000E94CC058FEF80938B01EC
S1131240BFCF18BA809189018BBB809157018F5F02
S113125080935701089580E388BB80918C018BBBF8
S1131260809157018F5F80935701089580E288BB76
S113127080918B018BBB809157018F5F80935701C5
S113128008951F920F920FB60F9211240BB60F926E
S11312902F933F934F935F936F937F938F939F937A
S11312A0AF93BF93CF93EF93FF93C0915A01CF5F56
S11312B0C0935A018C2F8F73F1F0C770C1F0C13005
S11312C011F40E94D108FF91EF91CF91BF91AF919A
S11312D09F918F917F916F915F914F913F912F914A
S11312E00F900BBE0F900FBE0F901F90189581E0CA
S11312F080935001E8CF0E947706DFCF809164018C
S1131300813059F0823041F4809160018F5F8C33D9
S113131088F01092600108950895809162018F5FB2
S11313208C3358F010926201809163018F5F809337
S11313306301089580936001089580936201809110
S113134063018F5F8093630108958091640181300C
S113135071F0823059F48091600181508093600172
S1131360803F18F08BE38093600108950895809185
S11313706201815080936201803FB8F38BE38093D4
S113138062010895CF93DF931F92CDB7DEB78370C8
S1131390E0915401EE0FEE0FE82BF0E0ED5FFE4F0D
S11313A09081913009F1923041F0833069F080935B
S11313B054010F90DF91CF91089590915301915072
S11313C090935301833099F7909153012EEF290F95
S11313D02830B8F0913F70F4109253018093540177
S11313E00F90DF91CF910895909153019F5F909357
S11313F05301DBCF89830E94A5098981109253018F
S1131400EDCF89830E947E09898110925301E6CF32
S113141080916401823021F1B8F0833051F084303E
S113142071F581E090913801911124C080933801C5
S11314300895809100018F5F8093000190E0909364
S113144087008093860008958130C1F48091610102
S11314508F5F80936101883158F310926101089580
S113146080915F018F5F80935F01883108F3109250
S11314705F01089580E080933801DACF08950895DC
S113148080916401823029F1B8F0833051F08430C6
S113149081F581E090913801911126C08093380143
S11314A008958091000181508093000190E0909311
S11314B087008093860008958130D1F48091610182
S11314C0815080936101803F58F387E180936101EB
S11314D0089580915F01815080935F01803F00F304
S11314E087E180935F01089580E080933801D8CF2D
S11314F008950895CF93DF938C70C82FD0E0D595CD
S1131500C795D595C7959C2FE0915601EE0FEE0F28
S1131510EC2BF0E0ED5FFE4F80818130F9F08230FA
S113152039F0933061F0C0935601DF91CF91089563
S1131530809155018150809355019330A1F780919A
S113154055019EEF980F9830A0F0813F68F41092F7
S11315505501C0935601DF91CF91089580915501B3
S11315608F5F80935501DDCF0E94400A1092550190
S1131570F0CF0E94080A10925501EBCFCF93C0918F
S11315805901CF5FC09359010E94A9088093580163
S1131590C0FF03C0CF910C94C209CF910C947A0A76
S11315A0CF93813079F081E00E94B70C0E94EB0C5C
S11315B0C82F0E94EB0C2C2F30E0A901582BCA0134
S11315C0CF91089582E00E94B70CF0CFEF92FF9282
S11315D00F931F93CF93DF9300D000D000D0CDB7EB
S11315E0DEB780914D018823E9F1809138018111A2
S11315F046C082E00E94150D7C0182E00E94D00A60
S11316008C01E0916701F091680186E48787E0919D
S11316106501F091660187874AE0BE016C5F7F4FE8
S1131620C7010E946C104AE0BE016F5F7F4FC80182
S11316300E946C108E81E0916701F0916801813302
S113164091F18C8185878D8186878B81E0916501FD
S1131650F0916601813399F1898185878A81868732
S113166010924D0126960FB6F894DEBF0FBECDBF83
S1131670DF91CF911F910F91FF90EF90089581E03A
S11316800E94D00A8C0181E00E94150D7C01E0913A
S11316906701F091680183E48787E0916501F09127
S11316A066018787B9CF9C8194879D8195878687BA
S11316B08B81E0916501F0916601813369F699812E
S11316C094879A8195878687CBCF0E94E60A80917A
S11316D05201803150F090EF980F9031F8F08B3434
S11316E0B0F48F5F809352010895E0916701F09107
S11316F06801E80FF11D80810E94A90D80915201BB
S11317008F3079F70E94790D80915201EACF81E000
S113171080934B01109252010C94670DE091650186
S1131720F0916601E80FF11D709780810E94A90D68
S1131730809152018F5F80935201089580915101ED
S1131740803130F48F3079F08F5F809351010895A8
S113175090EF980F9031C0F38B34B0F38F5F809388
S113176051010C94670D0E94790D80915101ECCFC9
S113177083B7816083BF80B7886080BF85B58A677F
S113178085BD87B7816487BF0895E1E6F0E0808175
S113179080831092620087B1806687B986B18F6EAC
S11317A086B98FEF83BD089581E880938B0089E02B
S11317B080938A008091000190E090938700809349
S11317C08600089583E191E0909368018093670116
S11317D084E291E090936601809365010895E1E6C7
S11317E0F0E080818C7F8083E2E6F0E08081806895
S11317F0808308951F920F920FB60F9211240BB697
S11318000F922F933F938F939F93AF93BF93EF9335
S1131810FF938091710090E0FC013897E135F10568
S1131820B0F08091710080938E0184E08093740005
S1131830FF91EF91BF91AF919F918F913F912F9124
S11318400F900BBE0F900FBE0F901F901895E5528E
S1131850FF4F0C94571080916901E0918F01F09132
S11318609001E80FF11D80917300808384E98093D7
S11318707400DECF8091910180937300109269010E
S113188085E880937400D4CF80916901909192018E
S1131890891760F7E0918F01F091900191E0980F22
S11318A090936901E80FF11D80818093730085E8AE
S11318B080937400BDCF85EA80937400B9CF2091E2
S11318C069018091920130E090E00197281739076F
S11318D0DCF485EC80937400ABCFE0918F01F09140
S11318E090018091690121E0280F20936901E80F9C
S11318F0F11D8091730080838091920130E090E02B
S11319000197281739072CF385E88093740090CF4A
S113191080917400817008959091740090FDFCCFC3
S11319208E7F809391017093900160938F01409317
S1131930920185EA8093740008959091740090FD5B
S1131940FCCF8160809391017093900160938F012B
S11319504093920185EA8093740008958FEF8093F9
S11319607300109271008CE08093700008955D9B69
S1131970FECF8CB95D9BFECF0895FC01208122230C
S113198049F031965D9BFECF2CB95D9BFECF219132
S11319902111F8CF08959C01FC014491442369F07E
S11319A00196F90124915D9BFECF2CB95D9BFECF7E
S11319B09C01FC0144914111F3CF08958AB18861DF
S11319C08AB9E5E9F0E08081866080831092900016
S11319D087E689B9089580E89EE303C001970097DC
S11319E021F05F9BFBCF8CB1089580E008956230B5
S11319F009F008959C01220F331F220F331F220F79
S1131A00331F280F391FADECBCEC0E945D10969576
S1131A10879596958795809608951092E30142E004
S1131A2063EE71E080E90C948C0CCF93C82F42E0F4
S1131A3065EE71E080E90E949D0C8FE39FE10197C0
S1131A40F1F700C000002091E50130E0922F8827D3
S1131A502091E601822B880F892F881F990B91957D
S1131A60C23091F49C01220F331F220F331F220F27
S1131A70331F280F391FADECBCEC0E945D10969506
S1131A808795969587958096CF910895E2E6F0E044
S1131A908081886080838081877F808308951FB8D8
S1131AA0779BFECF81E08FB9779BFECF8091620058
S1131AB088608093620080916200877F80936200D7
S1131AC08FE39FE10197F1F700C0000008951FB86C
S1131AD0779BFECF82E08FB9779BFECF8091620027
S1131AE088608093620080916200877F80936200A7
S1131AF008951FB8779BFECF80EC8FB9779BFECFFC
S1131B008091620088608093620080916200877F88
S1131B1080936200089580E190E041E030E24FB9A3
S1131B20779BFECF3FB9779BFECF20916200286060
S1131B302093620020916200277F20936200EFE9E6
S1131B40FFE03197F1F700C000000197009739F7E3
S1131B50089591E09FB9779BFECF8FB9779BFECF15
S1131B608091620088608093620080916200877F28
S1131B70809362008FE99FE00197F1F700C00000B5
S1131B8008951FB8779BFECF8CE08FB9779BFECF6B
S1131B908091620088608093620080916200877FF8
S1131BA0809362008FE99FE00197F1F700C0000085
S1131BB00895DC0180E090E020E030E041E04FB99E
S1131BC0779BFECFFD01E80FF91F80818FB9779BCA
S1131BD0FECF8091620088608093620080916200F1
S1131BE0877F809362008FE891E00197F1F700C04E
S1131BF000002F5F3F4FC901FD0101900020E9F76C
S1131C00EA1BFB0B3297E217F307C8F6089580919D
S1131C1061008860809361008FE59AEE0197F1F787
S1131C2000C0000083E090E030E31FB8779BFECF54
S1131C303FB9779BFECF2091620028602093620019
S1131C4020916200277F20936200EFE5FDE6319743
S1131C50F1F700C000000197009739F71FB8779B90
S1131C60FECF88E38FB9779BFECF809162008860B6
S1131C708093620080916200877F809362008FE18D
S1131C809EE40197F1F700C000001FB8779BFECFD8
S1131C9088E08FB9779BFECF809162008860809343
S1131CA0620080916200877F80936200EFE1FEE42E
S1131CB03197F1F700C000001FB8779BFECF81E099
S1131CC08FB9779BFECF8091620088608093620019
S1131CD080916200877F809362008FE19EE4019788
S1131CE0F1F700C000001FB8779BFECF86E08FB9E4
S1131CF0779BFECF80916200886080936200809120
S1131D006200877F80936200EFE1FEE43197F1F790
S1131D1000C000001FB8779BFECF8EE08FB9779B81
S1131D20FECF80916200886080936200809162009F
S1131D30877F809362008FE19EE40197F1F700C0F2
S1131D400000089584E18093F70141E067EF71E0BA
S1131D5082E20E948C0C0E94880C8111FCCF84E6E4
S1131D608A95F1F741E068E172E082E20E949D0CFD
S1131D700E94880C8111FCCF80911802089580E2A2
S1131D808093F7011092F80186E899E29093830119
S1131D908093820189E28093F90186E88093FA01B5
S1131DA01092FB011092840145E067EF71E082E23A
S1131DB00E948C0C809184018823E1F30895809122
S1131DC036019091370181E18093F70141E067EF9B
S1131DD071E082E20E948C0C87E68A95F1F700009C
S1131DE0089583E28093F70181E08093F80142E053
S1131DF067EF71E082E20E948C0C0E94880C8111D2
S1131E00FCCF84E68A95F1F748E060E072E082E274
S1131E100E949D0C0E94880C8111FCCF089582E2DF
S1131E208093F70181E08093F80142E067EF71E06D
S1131E3082E20E948C0C0E94880C8111FCCF84E603
S1131E408A95F1F748E060E072E082E20E949D0C1E
S1131E500E94880C8111FCCF089522E12093F701A0
S1131E601092F8019093F9018093FA017093FB01A9
S1131E706093FC0146E067EF71E082E20E948C0C03
S1131E8083EC99E00197F1F700C00000089581E028
S1131E908093F70180E58093F80185E08093F90150
S1131EA043E067EF71E082E20E948C0C8FE295E7D9
S1131EB00197F1F700C0000061E070E081E090E07C
S1131EC00C942D0F129A169A139A1A9A1E9A089520
S1131ED01F98179A1A9A82E48A95F1F700C01A9803
S1131EE08AE08A95F1F7179808950E94880C811169
S1131EF0FCCF0C94470F0E94880C8111FCCF0C94EA
S1131F00BF0E0E94880C8111FCCF0E94F10E8091BB
S1131F10040280932B02089580912B028930B0F043
S1131F20813180F08931C8F0813298F08932C8F06B
S1131F308133F8F08933C8F08134F8F08FEF80935F
S1131F402B02089581E080932B02089510922B02B6
S1131F50089587E080932B02089583E080932B02F9
S1131F6008958FE080932B0208958FE380932B02D2
S1131F7008958FE180932B0208958FE780932B02BD
S1131F8008958AB780688ABF89B7806889BF089531
S1131F9087EF87BB8A9A84E68093000183B78160C8
S1131FA083BF80B7886080BF85B58A6785BD87B7E2
S1131FB0816487BF80916100809361001092620008
S1131FC087B1806687B986B18F6E86B98FEF83BD7E
S1131FD00E94610580E58DB90E94070E0E94AE0C37
S1131FE00E94DE0C81E880938B0089E080938A0054
S1131FF08091000190E090938700809386000E9476
S11320000D0D0E94C10D83E191E0909368018093CE
S1132010670184E291E090936601809365010E94D8
S1132020C10F0E94620F86E899E290938301809326
S1132030820178940CC080914C01811116C080916A
S11320404E0181111AC080914A0181111EC00E9463
S11320502C0880915001882371F30E94BE0A1092CB
S1132060500180914C01882351F30E94B4081092CE
S11320704C0180914E01882331F30E94650B10922C
S11320804E0180914A01882311F30E94680F0E9437
S1132090750F2FEF83ED90E3215080409040E1F7DE
S11320A000C000000E947B0F10924A01D0CFEE0FB7
S11320B0FF1F0590F491E02D0994A29FB001B39FF6
S11320C0C001A39F700D811D1124911DB29F700D3D
S11320D0811D1124911D0895BB274A3031F49923A1
S11320E022F4BDE2909581959F4F0C947810BB2704
S11320F0FB015527AA27880F991FAA1FA41710F0C0
S1132100A41B83955051B9F7A05DAA3308F0A95DCB
S1132110A193009779F7B111B1931192CB010C946B
S11321209110DC01FC01672F71917723E1F732975D
S113213004C07C916D9370836291AE17BF07C8F39E
S10921400895F894FFCF9E
S113214664FF010001020002000001010000020018
S11321560201004C6F63616C202074656D703A2037
S11321662020430052656D6F74652074656D703A66
S1092176202020430000BC
S9030000FC
