:100000000C942D010C944C010C944C010C944C015B
:100010000C944C010C944C010C944C010C944C012C
:100020000C944C010C944C010C94E6070C944C017C
:100030000C94A5070C944C010C944C010C944C01AD
:100040000C9421070C944C010C944C010C944C0121
:100050000C944C010C941E080C944C010C944C0113
:100060000C944C010C944C010C944C010C944C01DC
:100070000C944C010C944C010C944C010C944C01CC
:100080000C944C010C94420B0C944C01880190018F
:100090009801A001A801B101BA01780180010E0305
:1000A000060301032B031E0326031603DF02D702F8
:1000B000D202CA023303E702BD02A5025303FC02C7
:1000C000F402EC027303AD026303B50280034B0339
:1000D0006B03C50243033B035B03A0026E0266028F
:1000E00076027803590251027B02340298026102BF
:1000F00044023C0288024C0280022C02120290024E
:100100000202FA011F0217022402F5010A02DD01B0
:10011000ED01D801D001C801C301E5018A04A8049A
:100120008404960478047E0478047E04AE048A0471
:10013000A804840496049004720490047204D80401
:100140001405CC044405CC04080502057204DE0441
:100150007204F0049C04320578042605B4042C05CE
:10016000BA043805FC04A2049C04E404C0048A0414
:10017000A8048404960478047E0478047E04AE0403
:100180008A040E05A204840490047204900472048C
:10019000D8041A05EA04AE042005DE04B404BA0447
:1001A0009C04A2043E05C004D506D106DA06FE066C
:1001B000C206F406E306B806820B590B590B590B1D
:1001C000590B590B590B590B820B590B590B590BE6
:1001D000590B590B590B590B8C0B590B590B590BCC
:1001E000590B590B590B590B590B590B590B590BEF
:1001F000590B590B590B590B8C0B590B590B590BAC
:10020000590B590B590B590B590B590B590B590BCE
:10021000590B590B590B590BA30B590B590B590B74
:10022000590B590B590B590BA70B590B590B590B60
:10023000590B590B590B590B590B590B590B590B9E
:10024000590B590B590B590BB50B590B590B590B32
:10025000590B590B590B590B730B11241FBECFEFC0
:10026000D0E1DEBFCDBF11E0A0E0B1E0E8E2FDE10A
:1002700000E00BBF02C007900D92A633B107D9F77B
:1002800021E0A6E3B1E001C01D92AC3EB207E1F768
:100290000E94D80D0C94920E0C940000929A109229
:1002A00078011092770190E0909376018093750128
:1002B0000895CF939298109278011092770130E0D0
:1002C000309376012093750150E04930510520F0BC
:1002D0001BBC1ABCCF9108954A5B5F4FFA01992766
:1002E00087FD9095A92FB92F815491090C94480E40
:1002F0008730910578F7815B9F4FFC010C94480E85
:100300008730910538F78A5A9F4FFC010C94480EAC
:1003100087309105F8F6835A9F4FFC010C94480EE4
:1003200087309105B8F68C599F4FFC010C94480E0C
:100330008730910578F685599F4FFC010C94480E43
:100340008730910538F68E589F4FFC010C94480E6B
:100350008730910508F0BECF87589F4FFC010C9461
:10036000480E8730910508F0B5CF80589F4FFC01AB
:100370000C94480E8730910508F0ACCF89579F4FF9
:10038000FC010C94480E88E590E09BBD8ABDA2CF8D
:10039000662309F40FC283E690E09BBD8ABD9ACF25
:1003A000662309F411C28FE690E09BBD8ABD92CF0F
:1003B00086E790E09BBD8ABD8DCF662309F4FFC11F
:1003C0008AE490E09BBD8ABD85CF662309F401C213
:1003D00083E590E09BBD8ABD7DCF662309F4B8C15B
:1003E00082E490E09BBD8ABD75CF81EB90E09BBD20
:1003F0008ABD70CF662309F4D3C185E890E09BBD28
:100400008ABD68CF662309F4C1C185E990E09BBD30
:100410008ABD60CF662309F4BEC187EA90E09BBD28
:100420008ABD58CF84E691E09BBD8ABD53CF662339
:1004300009F4BBC180EE90E09BBD8ABD4BCF8DEE31
:1004400090E09BBD8ABD46CF662309F48BC187EC43
:1004500090E09BBD8ABD3ECF662309F474C180E95C
:1004600091E09BBD8ABD36CF662309F4CBC184E8F9
:1004700093E09BBD8ABD2ECF662309F4AFC18BE20A
:1004800091E09BBD8ABD26CF662309F4B1C182EA03
:1004900092E09BBD8ABD1ECF8CED91E09BBD8ABDD5
:1004A00019CF662309F459C187E192E09BBD8ABD4B
:1004B00011CF662309F4B0C188E592E09BBD8ABDE7
:1004C00009CF8AEC92E09BBD8ABD04CF662309F474
:1004D00035C186E496E09BBD8ABDFCCE662309F457
:1004E00082C18AE097E09BBD8ABDF4CE86E995E0A3
:1004F0009BBD8ABDEFCE8AEB93E09BBD8ABDEACE61
:10050000662309F47AC181EC91E09BBD8ABDE2CEFD
:10051000662309F47CC18BE091E09BBD8ABDDACEF5
:10052000662309F47EC180E591E09BBD8ABDD2CEF1
:10053000662309F4ADC182E293E09BBD8ABDCACEB9
:1005400086E797E09BBD8ABDC5CE662309F40FC13F
:100550008EEC92E19BBD8ABDBDCE662309F47AC1C3
:100560008DE195E19BBD8ABDB5CE662309F4DCC063
:1005700080E698E09BBD8ABDADCE662309F492C1AA
:1005800080E190E09BBD8ABDA5CE8EE29BE09BBD45
:100590008ABDA0CE662309F449C18BE190E09BBDE2
:1005A0008ABD98CE8CE190E09BBD8ABD93CE662338
:1005B00009F441C187E090E09BBD8ABD8BCE6623E4
:1005C00009F4DAC08BE090E09BBD8ABD83CE82E166
:1005D00090E09BBD8ABD7ECE662309F49BC089E175
:1005E00099E19BBD8ABD76CE662309F429C180E3DB
:1005F0009CE19BBD8ABD6ECE8CED9DE19BBD8ABD0D
:1006000069CE8AE390E09BBD8ABD64CE662309F47F
:1006100035C180E290E09BBD8ABD5CCE662309F4C3
:1006200032C184E290E09BBD8ABD54CE662309F4BA
:1006300076C089E290E09BBD8ABD4CCE662309F46A
:1006400078C081E390E09BBD8ABD44CE8BE290E010
:100650009BBD8ABD3FCE662309F493C087E390E03B
:100660009BBD8ABD37CE662309F44FC088E190E078
:100670009BBD8ABD2FCE662309F4F6C082EB94E0C1
:100680009BBD8ABD27CE662309F416C18DE89AE08A
:100690009BBD8ABD1FCE662309F4D7C086E19EE0CC
:1006A0009BBD8ABD17CE662309F4F7C080EC90E1AC
:1006B0009BBD8ABD0FCE662309F4D1C08FE294E0C2
:1006C0009BBD8ABD07CE662309F4F1C087E699E099
:1006D0009BBD8ABDFFCD662309F4CBC08DE89CE0AD
:1006E0009BBD8ABDF7CD8DE596E19BBD8ABDF2CD60
:1006F000662309F4E6C086E495E09BBD8ABDEACD99
:100700008DEE9EE09BBD8ABDE5CD85E190E09BBD71
:100710008ABDE0CD82EB97E19BBD8ABDDBCD86E251
:1007200090E09BBD8ABDD6CD87EE97E09BBD8ABD8C
:10073000D1CD8EE290E09BBD8ABDCCCD8BEE95E015
:100740009BBD8ABDC7CD8AE791E09BBD8ABDC2CD66
:100750008EE390E09BBD8ABDBDCD89EF91E09BBD4E
:100760008ABDB8CD8CEB90E09BBD8ABDB3CD80EC4B
:1007700091E19BBD8ABDAECD89E090E09BBD8ABD75
:10078000A9CD84E390E09BBD8ABDA4CD8DE890E027
:100790009BBD8ABD9FCD8EE990E09BBD8ABD9ACD61
:1007A0008DE790E09BBD8ABD95CD83ED90E09BBD2C
:1007B0008ABD90CD8DE590E09BBD8ABD8BCD86E452
:1007C00090E09BBD8ABD86CD89E690E09BBD8ABD49
:1007D00081CD8EE490E09BBD8ABD7CCD8BE191E024
:1007E0009BBD8ABD77CD85EA96E09BBD8ABD72CD63
:1007F0008CE792E09BBD8ABD6DCD88EA91E09BBD00
:100800008ABD68CD82E593E09BBD8ABD63CD8CEF48
:1008100090E09BBD8ABD5ECD87E392E09BBD8ABD23
:1008200059CD8DE391E09BBD8ABD54CD89E190E027
:100830009BBD8ABD4FCD85E090E09BBD8ABD4ACD72
:100840008AE99AE19BBD8ABD45CD8CE49DE09BBDC4
:100850008ABD40CD8DEE93E19BBD8ABD3BCD83EF3C
:1008600093E09BBD8ABD36CD8FE694E09BBD8ABDEB
:1008700031CD88ED9BE09BBD8ABD2CCD8EE190E013
:100880009BBD8ABD27CD82E290E09BBD8ABD22CD73
:1008900085EF92E09BBD8ABD1DCD80ED9FE09BBDA5
:1008A0008ABD18CD8DE090E09BBD8ABD13CD8FED44
:1008B00098E09BBD8ABD0ECD86EF99E09BBD8ABDB9
:1008C00009CD8AEF94E09BBD8ABD04CD86349105A5
:1008D00020F08FEF809367010895FC01E257FF4FEE
:1008E0000C94480E22E044E060E081E40C9459014D
:1008F00026E044E060E081E40C94590122E044E009
:1009000061E081E40C94590128E044E060E084E473
:100910000C94590128E044E060E086E40C9459010D
:1009200026E044E061E082E40C94590128E044E0D0
:1009300060E083E40C94590128E044E060E081E445
:100940000C94590128E044E060E087E40C945901DC
:1009500028E044E060E085E40C94590120E144E0A3
:1009600060E081E40C94590124E045E060E083E418
:100970000C94590124E045E060E084E40C945901B2
:10098000929A109278011092770188E090E090930B
:100990007601809375010895929A109278011092D1
:1009A000770181E090E0909376018093750108953E
:1009B00020E144E061E082E40C94590128E044E045
:1009C00061E082E40C94590128E144E060E087E4AE
:1009D0000C94590120E145E060E084E40C94590155
:1009E000929A109278011092770182E090E09093B1
:1009F000760180937501089524E044E060E081E48D
:100A00000C94590126E044E060E087E40C9459011D
:100A100024E044E061E087E40C94590128E044E0DC
:100A200061E087E40C94590123E044E060E087E44E
:100A30000C94590120E144E060E084E40C945901F5
:100A400020E145E060E083E40C94590122E044E0B9
:100A500061E082E40C94590124E045E061E084E423
:100A60000C94590124E044E061E081E40C945901C4
:100A700028E044E060E082E40C94590128E144E07D
:100A800060E086E40C94590127E044E060E087E4EC
:100A90000C945901862F90E00C9466041092670123
:100AA0008EB58C7F8EBD929A0895109267018EB597
:100AB00083608EBD9298809167019091740190E05F
:100AC0000C9466048F9A87B7816187BF1FBC8EB56F
:100AD00088608EBD10927A0083E390E09BBD8ABD52
:100AE000109267018EB58C7F8EBD929A109278011C
:100AF00010927701109276011092750110926701A1
:100B00001092740108952091580130915901220FDB
:100B1000331F49B350E002C0559547958A95E2F7D7
:100B200040FD0EC081E090EE282B392B3093590107
:100B30002093580181E02115304F09F080E008959D
:100B400080E090EEF1CF811102C080EC08958130F9
:100B500091F0823091F08330A1F0843081F08530C3
:100B600091F0863091F0873091F0883091F08930A3
:100B700091F080E0089589EF089584EA089589E965
:100B8000089580EB089582E9089582E8089588EF3A
:100B9000089580E8089580E90895FF920F931F93C8
:100BA000CF93DF93EC0180915A0180FF82C08CEFDC
:100BB000809380019E01ADECBCEC0E944E0E969598
:100BC000879596958795969587953C2F2AE0829FE5
:100BD00030191124832F0E94A305F82E9E0136950B
:100BE000279536952795ABE7B4E10E944E0E969572
:100BF000879544E6489F9001499F300D1124CE010E
:100C0000821B930B9C01ADECBCEC0E944E0E9695A2
:100C1000879596958795969587950E94A3058093CD
:100C20007F019E0136952795369527953695279510
:100C3000A5ECB0E20E944E0E8C01129502950F7049
:100C400001271F70012748EE53E0049F9001059F84
:100C5000300D149F300D1124CE01821B930B9C018B
:100C60003695279536952795ABE7B4E10E944E0E51
:100C7000969587950E94A30580938101802F0E94FD
:100C8000A3058093820180914001882321F0809107
:100C90006601811112C08F2D806880937E01809142
:100CA0006001813091F0DF91CF911F910F91FF9002
:100CB00008958FEF809380017DCF8F2D8F77809364
:100CC0007E0180916001813071F780913701882326
:100CD00051F38FEF809382018093810180937F0194
:100CE00080937E01DF91CF911F910F91FF90089526
:100CF0001F93CF93DF931ABA8FEF8BBB00000000D6
:100D000088B3806788BB0000000020E030E0D1E0BD
:100D1000C3E012E010C061E070EE462B572B5093F9
:100D20005901409358014115504FC9F02F5F3F4F73
:100D30002830310571F1822F4091580150915901AD
:100D4000440F551F69B370E0022E02C07595679578
:100D50000A94E2F760FFDFCF60E070EEDECF90E054
:100D60008830910578F48C529F4FFC010C94480E0A
:100D700080913901811154C090E081E0911180E0AF
:100D800080933901D09349012F5F3F4F28303105BF
:100D900091F68FEF8ABB00000000DF91CF911F9189
:100DA000089580916001813091F510926001D09397
:100DB0004901EACF809160018230B9F3109360015C
:100DC000D0934901E1CF809138018823D9F2D093A3
:100DD0003A0110923801109267018EB58C7F8EBD5A
:100DE000929AD0934901D0CF81E090916601911100
:100DF00013C080936601D0934901C6CF80916001F2
:100E0000833099F2C0936001D0934901BDCFD09354
:100E10006001D0934901B8CF80E080936601EBCFA9
:100E200090913801992359F0109267018EB58C7F0B
:100E30008EBD929A10923801909139019ECF982FD1
:100E40009CCF1F920F920FB60F9211240BB60F92E8
:100E50002F933F934F935F936F937F938F939F93C2
:100E6000AF93BF93CF93EF93FF93209157012F5FE1
:100E70002093570120FD03C081E080934B01822F16
:100E8000877081F480917701909178010196909319
:100E900078018093770181E09091370191113FC0F3
:100EA000809337012F7739F580915A018F5F8093B6
:100EB0005A0180915F018F5F80935F01C1E0C09311
:100EC0004A01809139018823B1F020914401309189
:100ED000450180914601909147012817390741F15A
:100EE00080913A01882339F080913B018F5F809394
:100EF0003B018A30B0F4FF91EF91CF91BF91AF9158
:100F00009F918F917F916F915F914F913F912F9121
:100F10000F900BBE0F900FBE0F901F90189580E0A2
:100F2000BFCF10923A010E94550510923B01E3CFCA
:100F300080913A018111D8CF809138018111DBCFA6
:100F40000E945505C0933801D6CF1F920F920FB65D
:100F50000F9211240BB60F922F933F934F935F93F1
:100F60006F937F938F939F93AF93BF93EF93FF9371
:100F700082B3805882BBC09A20917701309178016A
:100F800080917501909176012817390760F0809162
:100F900067018F5F80936701809167019091740171
:100FA00090E00E946604FF91EF91BF91AF919F91F5
:100FB0008F917F916F915F914F913F912F910F9002
:100FC0000BBE0F900FBE0F901F9018951F920F929F
:100FD0000FB60F9211240BB60F922F933F934F939E
:100FE0005F936F937F938F939F93AF93BF93CF93B1
:100FF000EF93FF93C0915601CF5FC09356018C2FA2
:101000008F73C9F0C77019F481E080934D01FF918F
:10101000EF91CF91BF91AF919F918F917F916F9100
:101020005F914F913F912F910F900BBE0F900FBE8C
:101030000F901F9018950E947806E4CF1F920F9290
:101040000FB60F9211248F939F9385B1843648F089
:1010500081E083BD9F918F910F900FBE0F901F90E5
:10106000189595B184E6891B83BD9F918F910F9050
:101070000FBE0F901F90189580915F0120915E0127
:101080008C3328F02F5F20935E0110925F01E09176
:101090005D012C33C0F530E0E831F0F56E2F70E0E3
:1010A00084E6E89FA0011124F0915B0180915C012E
:1010B00090E0A4E6FA9F800D911D112490934501C4
:1010C00080934401C901840F951F90934701809339
:1010D000460140916601442339F1EC3050F1EC3087
:1010E000D1F16C50710944E6469FC001479F900DB5
:1010F0001124820F931F909343018093420181E05A
:10110000809340010895EF5FE0935D0110925E01CE
:1011100020E030E0E83110F210925D0140E050E054
:1011200060E070E0E0E0C0CF909343018093420123
:101130000895EE2339F09093430180934201109279
:101140004001089520553B4F3093430120934201C5
:1011500010924001089520553B4F30934301209356
:101160004201089580E58DB908958FB9779BFECF30
:10117000089583B113B8000000001FB81E9A000044
:101180000000779BFECF8FB1089580916001882386
:10119000B9F09FEF980F81E001C0880F9A95EAF7A8
:1011A0009091390191118FEF8FB9779BFECF84E039
:1011B00082BB0000000088E082BB000000000895B0
:1011C00080E0EECF80916001833041F1843041F0C6
:1011D0008230D9F080914201909143010E94CD0567
:1011E000EEE7F1E080E02FEF982F9295907F98BB8B
:1011F00091919BBBAFE3B1E01197F1F700C0000004
:101200002BBB8F5F853081F70895809144019091C9
:1012100045010E94CD0510928001E2CF80918600A9
:10122000909187000E94CD058FEF80938001D8CFE9
:1012300080916001813059F0823041F480915C01ED
:101240008F5F8C3388F010925C010895089580912F
:101250005E018F5F8C3358F010925E0180915F01C8
:101260008F5F80935F01089580935C010895809360
:101270005E0180915F018F5F80935F01089580918F
:101280006001813071F0823059F480915C018150AD
:1012900080935C01803F18F08BE380935C0108959C
:1012A000089580915E01815080935E01803FB8F384
:1012B0008BE380935E010895CF93DF931F92CDB7A8
:1012C000DEB78370E0915101EE0FEE0FE82BF0E0F6
:1012D000ED5FFE4F9081913009F1923041F0833003
:1012E00069F0809351010F90DF91CF910895909113
:1012F0005001915090935001833099F79091500193
:101300002EEF290F2830B8F0913F70F41092500161
:10131000809351010F90DF91CF91089590915001EA
:101320009F5F90935001DBCF89830E943F098981A1
:1013300010925001EDCF89830E9418098981109283
:101340005001E6CF80916001823021F1B8F0833006
:1013500051F0843071F581E090913601911124C0F3
:10136000809336010895809100018F5F8093000182
:1013700090E0909387008093860008958130C1F4B7
:1013800080915D018F5F80935D01883158F31092E9
:101390005D01089580915B018F5F80935B018831CF
:1013A00008F310925B01089580E080933601DACF54
:1013B0000895089580916001823029F1B8F083305A
:1013C00051F0843081F581E090913601911126C071
:1013D000809336010895809100018150809300012F
:1013E00090E0909387008093860008958130D1F437
:1013F00080915D01815080935D01803F58F387E1CA
:1014000080935D01089580915B01815080935B0121
:10141000803F00F387E180935B01089580E0809333
:101420003601D8CF08950895CF93DF938C70C82FDD
:10143000D0E0D595C795D595C7959C2FE0915301E0
:10144000EE0FEE0FEC2BF0E0ED5FFE4F8081813070
:10145000F9F0823039F0933061F0C0935301DF919D
:10146000CF91089580915201815080935201933021
:10147000A1F7809152019EEF980F9830A0F0813F24
:1014800068F410925201C0935301DF91CF910895F7
:10149000809152018F5F80935201DDCF0E94DA0963
:1014A00010925201F0CF0E94A20910925201EBCF8C
:1014B000CF93C0915501CF5FC09355010E94B908E9
:1014C00080935401C0FF03C0CF910C945C09CF916D
:1014D0000C94140ACF9382E00E94FF0B0E94330CFD
:1014E000C82F0E94330C2C2F30E0A901582BCA01C1
:1014F000CF9108950F931F93CF93DF9300D000D027
:1015000000D0CDB7DEB780914A0181110BC026967D
:101510000FB6F894DEBF0FBECDBFDF91CF911F9104
:101520000F9108950E946A0A8C0181E00E94620C6A
:1015300010924A014AE0BE016C5F7F4F0E945D0E2F
:101540004AE0BE016F5F7F4FC8010E945D0EE091CF
:101550006301F09164018C8184878D818587E0919E
:101560006101F0916201898184878A818587CFCF6B
:101570000E947A0A80914F01803150F090EF980FCD
:101580009031F8F08B34B0F48F5F80934F01089561
:10159000E0916301F0916401E80FF11D80810E94E8
:1015A000DF0C80914F018F3079F70E94AF0C809152
:1015B0004F01EACF81E08093480110924F010C94D3
:1015C0009D0CE0916101F0916201E80FF11D7097AF
:1015D00080810E94DF0C80914F018F5F80934F01CB
:1015E000089580914E01803130F48F3079F08F5F13
:1015F00080934E01089590EF980F9031C0F38B3493
:10160000B0F38F5F80934E010C949D0C0E94AF0C41
:1016100080914E01ECCF83B7816083BF80B7886033
:1016200080BF85B58A6785BD87B7816487BF089508
:10163000E1E6F0E0808180831092620087B18066ED
:1016400087B986B18F6E86B98FEF83BD089581E823
:1016500080938B0089E080938A008091000190E064
:101660009093870080938600089583E191E09093A2
:1016700064018093630184E291E09093620180931E
:10168000610108951F920F920FB60F9211240BB6AD
:101690000F922F933F938F939F93AF93BF93EF93AB
:1016A000FF938091710090E0FC013897E135F105DE
:1016B000B0F0809171008093830184E08093740086
:1016C000FF91EF91BF91AF919F918F913F912F919A
:1016D0000F900BBE0F900FBE0F901F901895E45205
:1016E000FF4F0C94480E80916501E0918401F091C8
:1016F0008501E80FF11D80917300808384E9809358
:101700007400DECF80918601809373001092650192
:1017100085E880937400D4CF809165019091870112
:10172000891760F7E0918401F091850191E0980FAD
:1017300090936501E80FF11D80818093730085E827
:1017400080937400BDCF85EA80937400B9CF209157
:1017500065018091870130E090E0019728173907F3
:10176000DCF485EC80937400ABCFE0918401F091C0
:1017700085018091650121E0280F20936501E80F24
:10178000F11D8091730080838091870130E090E0AB
:101790000197281739072CF385E88093740090CFC0
:1017A00080917400817008959091740090FDFCCF39
:1017B0008E7F8093860170938501609384014093AE
:1017C000870185EA8093740008959091740090FDDC
:1017D000FCCF8160809386017093850160938401C2
:1017E0004093870185EA8093740008958FEF80937A
:1017F0007300109271008CE08093700008955D9BDF
:10180000FECF8CB95D9BFECF0895FC012081222381
:1018100049F031965D9BFECF2CB95D9BFECF2191A7
:101820002111F8CF08959C01FC014491442369F0F3
:101830000196F90124915D9BFECF2CB95D9BFECFF3
:101840009C01FC0144914111F3CF08958AB1886154
:101850008AB9E5E9F0E0808186608083109290008B
:1018600087E689B9089580E89EE303C00197009751
:1018700021F05F9BFBCF8CB1089580E00895880F25
:10188000892F881F990B9195613009F008959C016B
:10189000220F331F220F331F280F391FAFE8B3EE7B
:1018A0000E944E0E96958795969587959695879565
:1018B000809608951092D80142E068ED71E080E9C9
:1018C0000C94D40B42E06AED71E080E90E94E50BD4
:1018D0008FE39FE10197F1F700C000008091DA01EA
:1018E00090E0982F88272091DB01822B880F892F89
:1018F000881F990B91950895E2E6F0E08081886059
:1019000080838081877F808308951FB8779BFECF77
:1019100081E08FB9779BFECF8091620088608093D1
:10192000620080916200877F809362008FE39FE175
:101930000197F1F700C0000008951FB8779BFECF14
:1019400082E08FB9779BFECF8091620088608093A0
:10195000620080916200877F8093620008951FB8C3
:10196000779BFECF80EC8FB9779BFECF8091620092
:1019700088608093620080916200877F809362001C
:10198000089580E190E041E030E24FB9779BFECFCF
:101990003FB9779BFECF20916200286020936200C0
:1019A00020916200277F20936200EFE9FFE03197EA
:1019B000F1F700C000000197009739F7089591E012
:1019C0009FB9779BFECF8FB9779BFECF8091620046
:1019D00088608093620080916200877F80936200BC
:1019E0008FE99FE00197F1F700C0000008951FB84C
:1019F000779BFECF8CE08FB9779BFECF8091620002
:101A000088608093620080916200877F809362008B
:101A10008FE99FE00197F1F700C000000895DC0115
:101A200080E090E020E030E041E04FB9779BFECFCE
:101A3000FD01E80FF91F80818FB9779BFECF809160
:101A4000620088608093620080916200877F80934B
:101A500062008FE891E00197F1F700C000002F5F6E
:101A60003F4FC901FD0101900020E9F7EA1BFB0B84
:101A70003297E217F307C8F60895809161008860F5
:101A8000809361008FE59AEE0197F1F700C00000A6
:101A900083E090E030E31FB8779BFECF3FB9779BA0
:101AA000FECF2091620028602093620020916200A6
:101AB000277F20936200EFE5FDE63197F1F700C044
:101AC00000000197009739F71FB8779BFECF88E396
:101AD0008FB9779BFECF809162008860809362000F
:101AE00080916200877F809362008FE19EE401977E
:101AF000F1F700C000001FB8779BFECF88E08FB9D8
:101B0000779BFECF80916200886080936200809115
:101B10006200877F80936200EFE1FEE43197F1F786
:101B200000C000001FB8779BFECF81E08FB9779B84
:101B3000FECF809162008860809362008091620095
:101B4000877F809362008FE19EE40197F1F700C0E8
:101B500000001FB8779BFECF86E08FB9779BFECF42
:101B60008091620088608093620080916200877F2C
:101B700080936200EFE1FEE43197F1F700C00000CE
:101B80001FB8779BFECF8EE08FB9779BFECF8091F9
:101B9000620088608093620080916200877F8093FA
:101BA00062008FE19EE40197F1F700C00000089504
:101BB0009FEF92B91F9887EF87BB8A9A84E680933C
:101BC000000183B7816083BF80B7886080BF85B51F
:101BD0008A6785BD87B7816487BF809161008093E4
:101BE00061001092620087B1806687B986B18F6EFE
:101BF00086B993BD0E94620580E58DB90E943D0DB6
:101C00000E94F60B0E94260C81E880938B0089E0ED
:101C100080938A008091000190E0909387008093E8
:101C200086000E945A0C0E94F70C83E191E0909389
:101C300064018093630184E291E090936201809358
:101C40006101789408C080914901811114C080918C
:101C50004B01811118C00E94E2080E943C0880914B
:101C60004D01882381F30E94580A10924D01809102
:101C70004901882361F30E94C508109249018091AF
:101C80004B01882341F30E94B80A10924B01E3CF25
:101C9000EE0FFF1F0590F491E02D0994A29FB00173
:101CA000B39FC001A39F700D811D1124911DB29F90
:101CB000700D811D1124911D0895BB274A3031F408
:101CC000992322F4BDE2909581959F4F0C94690E63
:101CD000BB27FB015527AA27880F991FAA1FA41706
:101CE00010F0A41B83955051B9F7A05DAA3308F0FA
:101CF000A95DA193009779F7B111B1931192CB012E
:101D00000C94820EDC01FC01672F71917723E1F7BF
:101D1000329704C07C916D9370836291AE17BF07B8
:081D2000C8F30895F894FFCF09
:101D280064FF01000102000200000101000002003E
:101D38000201004C6F63616C202074656D703A205D
:101D48002020430052656D6F74652074656D703A8C
:061D5800202020430000E2
:00000001FF
