:100000000C9497000C94B6000C94B6000C94B600B7
:100010000C94B6000C94B6000C94B6000C94B60088
:100020000C94B6000C94B6000C94B6000C94B60078
:100030000C94B6000C94B6000C94B6000C94B60068
:100040000C94B6000C94B6000C94B6000C94B60058
:100050000C94B6000C94B6000C94B6000C94B60048
:100060000C94B6000C94B6000C94B6000C94B60038
:100070000C94B6000C94B6000C94B6000C94B60028
:100080000C94B6000C941D020C94B6005D02340270
:100090003402340234023402340234025D02340287
:1000A000340234023402340234023402670234026D
:1000B0003402340234023402340234023402340290
:1000C000340234023402340234023402670234024D
:1000D0003402340234023402340234023402340270
:1000E0003402340234023402340234027E02340216
:1000F0003402340234023402340234028202340202
:10010000340234023402340234023402340234023F
:1001100034023402340234023402340290023402D3
:100120003402340234023402340234024E02112406
:100130001FBECFEFD0E1DEBFCDBF11E0A0E0B1E048
:10014000E6EFF5E000E00BBF02C007900D92A6308D
:10015000B107D9F721E0A6E0B1E001C01D92A133BB
:10016000B207E1F70E94DA020C94F9020C94000045
:1001700087B3876087BB80E58DB981E08EB908952C
:10018000E2E6F0E08081886080838081877F8083E1
:1001900008951FB8779BFECF81E08FB9779BFECF84
:1001A0008091620088608093620080916200877F06
:1001B000809362008FE39FE10197F1F700C0000098
:1001C00008951FB8779BFECF82E08FB9779BFECF53
:1001D0008091620088608093620080916200877FD6
:1001E0008093620008951FB8779BFECF80EC8FB993
:1001F000779BFECF8091620088608093620080913F
:100200006200877F80936200089580E190E041E082
:1002100030E24FB9779BFECF3FB9779BFECF20915D
:10022000620028602093620020916200277F209363
:100230006200EFE9FFE03197F1F700C0000001979D
:10024000009739F7089591E09FB9779BFECF8FB95A
:10025000779BFECF809162008860809362008091DE
:100260006200877F809362008FE99FE00197F1F73A
:1002700000C0000008951FB8779BFECF8CE08FB9B7
:10028000779BFECF809162008860809362008091AE
:100290006200877F809362008FE99FE00197F1F70A
:1002A00000C000000895DC0180E090E020E030E034
:1002B00041E04FB9779BFECFFD01E80FF91F808128
:1002C0008FB9779BFECF8091620088608093620037
:1002D00080916200877F809362008FE891E00197B0
:1002E000F1F700C000002F5F3F4FC901FD010190F1
:1002F0000020E9F7EA1BFB0B3297E217F307C8F679
:100300000895809161008860809361008FE59AEE86
:100310000197F1F700C0000083E090E030E31FB8E0
:10032000779BFECF3FB9779BFECF2091620028607C
:100330002093620020916200277F20936200EFE506
:10034000FDE63197F1F700C000000197009739F7FB
:100350001FB8779BFECF88E38FB9779BFECF809144
:10036000620088608093620080916200877F809342
:1003700062008FE19EE40197F1F700C000001FB812
:10038000779BFECF88E08FB9779BFECF809162008C
:1003900088608093620080916200877F8093620012
:1003A000EFE1FEE43197F1F700C000001FB8779B42
:1003B000FECF81E08FB9779BFECF8091620088608D
:1003C0008093620080916200877F809362008FE15A
:1003D0009EE40197F1F700C000001FB8779BFECFA5
:1003E00086E08FB9779BFECF809162008860809312
:1003F000620080916200877F80936200EFE1FEE4FB
:100400003197F1F700C000001FB8779BFECF8EE058
:100410008FB9779BFECF80916200886080936200E5
:1004200080916200877F809362008FE19EE4019754
:10043000F1F700C00000089508951F920F920FB6C3
:100440000F9211240BB60F922F933F938F939F938C
:10045000AF93BF93EF93FF938091710090E0FC0105
:100460003897E135F105B0F08091710080932C014F
:1004700084E080937400FF91EF91BF91AF919F91C1
:100480008F913F912F910F900BBE0F900FBE0F9049
:100490001F901895EA5BFF4F0C94F30280910601C0
:1004A000E0912D01F0912E01E80FF11D8091730074
:1004B000808384E980937400DECF80912F01809344
:1004C00073001092060185E880937400D4CF809168
:1004D000060190913001891760F7E0912D01F091AC
:1004E0002E0191E0980F90930601E80FF11D808195
:1004F0008093730085E880937400BDCF85EA809374
:100500007400B9CF209106018091300130E090E075
:10051000019728173907DCF485EC80937400ABCF82
:10052000E0912D01F0912E018091060121E0280F2C
:1005300020930601E80FF11D809173008083809164
:10054000300130E090E00197281739072CF385E857
:100550008093740090CF8091740081700895909181
:10056000740090FDFCCF8E7F80932F0170932E013D
:1005700060932D014093300185EA809374000895C3
:100580009091740090FDFCCF816080932F01709357
:100590002E0160932D014093300185EA8093740011
:1005A00008958FEF80937300109271008CE0809318
:1005B0007000089587B3876087BB80E58DB981E0BF
:1005C0008EB90E9481010E94D1021092280142E05E
:1005D00068E271E080E90E94AF02789480E091E0E7
:1005E0000E945301FFCFEE0FFF1F0590F491E02D05
:0605F0000994F894FFCF0E
:0605F60068656C6C6F00EB
:00000001FF
