S0120000726164696F5F746573742E73726563E4
S11300000C9497000C94B6000C94B6000C94B600B3
S11300100C94B6000C94B6000C94B6000C94B60084
S11300200C94B8000C94B6000C94B6000C94B60072
S11300300C94B6000C94B6000C94B6000C94B60064
S11300400C94B6000C94B6000C94B6000C94B60054
S11300500C94B6000C94B6000C94B6000C94B60044
S11300600C94B6000C94B6000C94B6000C94B60034
S11300700C94B6000C94B6000C94B6000C94B60024
S11300800C94B6000C9466010C94B600A6017D0194
S11300907D017D017D017D017D017D01A6017D0143
S11300A07D017D017D017D017D017D01B0017D0129
S11300B07D017D017D017D017D017D017D017D014C
S11300C07D017D017D017D017D017D01B0017D0109
S11300D07D017D017D017D017D017D017D017D012C
S11300E07D017D017D017D017D017D01C7017D01D2
S11300F07D017D017D017D017D017D01CB017D01BE
S11301007D017D017D017D017D017D017D017D01FB
S11301107D017D017D017D017D017D01D9017D018F
S11301207D017D017D017D017D017D01970111240A
S11301301FBECFEFD0E1DEBFCDBF11E0A0E0B1E044
S1130140E8E4F8E000E00BBF02C007900D92A23093
S1130150B107D9F721E0A2E0B1E001C01D92A839AE
S1130160B207E1F70E94E0030C9422040C9400000F
S11301701F920F920FB60F9211248F9381E08093F8
S113018056018F910F900FBE0F901F901895129AE1
S1130190169A139A1A9A1E9A08951F98179A1A9AD9
S11301A082E48A95F1F700C01A988AE08A95F1F7FB
S11301B0179808950E94F4018111FCCF0C945903FF
S11301C00E94F4018111FCCF0C9440020E94F401BE
S11301D08111FCCF0E94D10280913D018093810165
S11301E00895809181018930B0F0813180F08931A6
S11301F0C8F0813298F08932C8F08133F8F089333D
S1130200C8F08134F8F08FEF80938101089581E084
S113021080938101089510928101089587E080936D
S11302208101089583E08093810108958FE0809394
S1130230810108958FE38093810108958FE1809374
S1130240810108958FE78093810108955D9BFECF1E
S11302508CB95D9BFECF0895FC012081222349F0D7
S113026031965D9BFECF2CB95D9BFECF2191211170
S1130270F8CF08959C01FC014491442369F0019650
S1130280F90124915D9BFECF2CB95D9BFECF9C01AF
S1130290FC0144914111F3CF08958AB188618AB970
S11302A0E5E9F0E08081866080831092900087E623
S11302B089B9089580E89EE303C00197009721F06F
S11302C05F9BFBCF8CB1089580E008951F920F923D
S11302D00FB60F9211240BB60F922F933F938F9367
S11302E09F93AF93BF93EF93FF938091710090E03E
S11302F0FC013897E135F105B0F0809171008093ED
S1130300930184E080937400FF91EF91BF91AF91CA
S11303109F918F913F912F910F900BBE0F900FBE25
S11303200F901F901895EA5BFF4F0C94EC0380919B
S11303300401E0919401F0919501E80FF11D809181
S11303407300808384E980937400DECF80919601EA
S1130350809373001092040185E880937400D4CFD5
S11303608091040190919701891760F7E0919401BD
S1130370F091950191E0980F90930401E80FF11D1D
S113038080818093730085E880937400BDCF85EAF3
S113039080937400B9CF209104018091970130E0DB
S11303A090E0019728173907DCF485EC80937400FA
S11303B0ABCFE0919401F09195018091040121E08B
S11303C0280F20930401E80FF11D809173008083AE
S11303D08091970130E090E00197281739072CF3BA
S11303E085E88093740090CF8091740081700895A3
S11303F09091740090FDFCCF8E7F80939601709352
S11304009501609394014093970185EA8093740069
S113041008959091740090FDFCCF816080939601C3
S113042070939501609394014093970185EA8093BA
S1130430740008958FEF80937300109271008CE024
S113044080937000089584E18093300141E060E37B
S113045071E082E20E94F8010E94F4018111FCCF54
S113046084E68A95F1F741E064E871E082E20E9453
S113047009020E94F4018111FCCF80918401089546
S113048080E28093300110923101809100019091BB
S11304900101909332018093330110923401109240
S11304A0560145E060E371E082E20E94F801809128
S11304B056018823E1F3089580E48093300110927B
S11304C031018091540190915501909332018093B0
S11304D0330110923401109235011092560146E016
S11304E060E371E082E20E94F80180915601882362
S11304F0E1F3089580E480933001109231018091FA
S113050057019091580190933201809333011092D6
S1130510340181E08093350146E060E371E082E2DA
S11305200E94F8018FE19EE40197F1F700C00000FA
S1130530089580910201909103018130910541F168
S1130540F0F0029741F4609157017091580182E8EC
S113055091E00E940D046091430185E091E00E94C6
S1130560000481E18093300141E060E371E082E2C4
S11305700E94F80187E68A95F1F7000008956091DA
S113058000017091010186E091E00E940D04E3CF27
S1130590609154017091550181E491E00E940D0431
S11305A0DACF83E28093300181E08093310142E02D
S11305B060E371E082E20E94F8010E94F40181117B
S11305C0FCCF84E68A95F1F748E069E371E082E2C2
S11305D00E9409020E94F4018111FCCF089582E275
S11305E08093300181E08093310142E060E371E067
S11305F082E20E94F8010E94F4018111FCCF84E69A
S11306008A95F1F748E069E371E082E20E94090209
S11306100E94F4018111FCCF089582E4809330019B
S113062081E08093310142E060E371E082E20E9464
S1130630F8010E94F4018111FCCF84E68A95F1F758
S113064048E069E371E082E20C94090283E4809358
S1130650300181E08093310142E060E371E082E2A5
S11306600E94F8010E94F4018111FCCF84E68A956E
S1130670F1F748E069E371E082E20C94090222E1B7
S11306802093300110923101909332018093330111
S1130690709334016093350146E060E371E082E2D7
S11306A00E94F80183EC99E00197F1F700C0000083
S11306B0089586E091E00E94FA03909301018093EB
S11306C0000185E091E00E94F2038093430181E000
S11306D08093300180E58093310185E0809332017D
S11306E043E060E371E082E20E94F8018FE295E763
S11306F00197F1F700C0000061E070E081E090E054
S11307000C943F0381E491E00E94FA039093550115
S11307108093540185E091E00E94F20380934301A9
S113072081E08093300181E58093310185E08093FD
S1130730320143E060E371E082E20E94F8018FE25B
S113074095E70197F1F700C0000061E070E081E0F7
S113075090E00C943F0382E891E00E94FA039093A6
S113076058018093570185E091E00E94F203809341
S1130770430181E08093300181E58093310185E07C
S11307808093320143E060E371E082E20E94F80169
S11307908FE295E70197F1F700C0000060E070E098
S11307A082E093E30E943F0361E071E082E091E321
S11307B00E943F0361E070E081E090E00C943F030D
S11307C00E94C7000E941A020E944D010E94DA0092
S11307D00E94E0007894FFCFEE0FFF1F0590F49184
S11307E0E02D0994E199FECF9FBB8EBBE09A992737
S11307F08DB30895A8E1B0E042E050E00C941404F5
S1130800262FE199FECF9FBB8EBB2DBB0FB6F8946C
S1130810E29AE19A0FBE019608950E940004272FE0
S11308200C940104DC01CB01FC01E199FECF06C06C
S1130830FFBBEEBBE09A31960DB20D924150504091
S10B0840B8F70895F894FFCF06
S105084806277D
S9030000FC
