:100000000C9497000C94B6000C94B6000C94B600B7
:100010000C94B6000C94B6000C94B6000C94B60088
:100020000C94B8000C94B6000C94B6000C94B60076
:100030000C94B6000C94B6000C94B6000C94B60068
:100040000C94B6000C94B6000C94B6000C94B60058
:100050000C94B6000C94B6000C94B6000C94B60048
:100060000C94B6000C94B6000C94B6000C94B60038
:100070000C94B6000C94B6000C94B6000C94B60028
:100080000C94B6000C9470010C94B600B00187017A
:10009000870187018701870187018701B0018701F7
:1000A000870187018701870187018701BA018701DD
:1000B0008701870187018701870187018701870100
:1000C000870187018701870187018701BA018701BD
:1000D00087018701870187018701870187018701E0
:1000E000870187018701870187018701D101870186
:1000F000870187018701870187018701D501870172
:1001000087018701870187018701870187018701AF
:10011000870187018701870187018701E301870143
:10012000870187018701870187018701A1011124C8
:100130001FBECFEFD0E1DEBFCDBF11E0A0E0B1E048
:10014000E6E3F9E000E00BBF02C007900D92A23099
:10015000B107D9F721E0A2E0B1E001C01D92AC39AE
:10016000B207E1F70E9439040C9499040C94000042
:100170001F920F920FB60F9211248F9381E08093FC
:1001800056018F910F900FBE0F901F901895129AE5
:10019000169A139A1A9A1E9A08951F98179A1A9ADD
:1001A00082E48A95F1F700C01A988AE08A95F1F7FF
:1001B000179808950E94FE018111FCCF0C946303EF
:1001C0000E94FE018111FCCF0C944A020E94FE01A4
:1001D0008111FCCF0E94DB0280913D01809381015F
:1001E0000895809181018930B0F0813180F08931AA
:1001F000C8F0813298F08932C8F08133F8F0893341
:10020000C8F08134F8F08FEF80938101089581E088
:1002100080938101089510928101089587E0809371
:100220008101089583E08093810108958FE0809398
:10023000810108958FE38093810108958FE1809378
:10024000810108958FE780938101089589B78068BF
:1002500089BF8AB7806C8ABF88B7806888BF0895D5
:100260005D9BFECF8CB95D9BFECF0895FC01208184
:10027000222349F031965D9BFECF2CB95D9BFECFCA
:1002800021912111F8CF08959C01FC014491442350
:1002900069F00196F90124915D9BFECF2CB95D9B1D
:1002A000FECF9C01FC0144914111F3CF08958AB126
:1002B00088618AB9E5E9F0E08081866080831092E8
:1002C000900087E689B9089580E89EE303C001970E
:1002D000009721F05F9BFBCF8CB1089580E00895DB
:1002E0001F920F920FB60F9211240BB60F922F93FD
:1002F0003F938F939F93AF93BF93EF93FF9380911F
:10030000710090E0FC013897E135F105B0F0809183
:1003100071008093930184E080937400FF91EF91CA
:10032000BF91AF919F918F913F912F910F900BBEF5
:100330000F900FBE0F901F901895EA5BFF4F0C9423
:10034000540480910401E0919401F0919501E80F2B
:10035000F11D80917300808384E980937400DECF67
:1003600080919601809373001092040185E8809338
:100370007400D4CF8091040190919701891760F7A0
:10038000E0919401F091950191E0980F9093040110
:10039000E80FF11D80818093730085E880937400DD
:1003A000BDCF85EA80937400B9CF2091040180917C
:1003B000970130E090E0019728173907DCF485ECCD
:1003C00080937400ABCFE0919401F09195018091FE
:1003D000040121E0280F20930401E80FF11D809112
:1003E000730080838091970130E090E00197281797
:1003F00039072CF385E88093740090CF80917400C6
:10040000817008959091740090FDFCCF8E7F809351
:10041000960170939501609394014093970185EA4A
:100420008093740008959091740090FDFCCF8160DA
:100430008093960170939501609394014093970186
:1004400085EA8093740008958FEF80937300109273
:1004500071008CE080937000089584E180933001F6
:1004600041E060E371E082E20E9402020E94FE012C
:100470008111FCCF84E68A95F1F741E064E871E0F0
:1004800082E20E9413020E94FE018111FCCF809142
:100490008401089580E280933001109231018091AF
:1004A00000019091010190933201809333011092E9
:1004B00034011092560145E060E371E082E20E944F
:1004C0000202809156018823E1F3089580E480932D
:1004D0003001109231018091540190915501909317
:1004E0003201809333011092340110923501109241
:1004F000560146E060E371E082E20E9402028091D0
:1005000056018823E1F3089580E48093300110922E
:10051000310180915701909158019093320180935D
:1005200033011092340181E08093350146E060E3AD
:1005300071E082E20E9402028FE19EE40197F1F7EE
:1005400000C0000008958091020190910301813064
:10055000910541F1F0F0029741F4609157017091DB
:10056000580182E891E00E9484046091430185E093
:1005700091E00E94770481E18093300141E060E3E3
:1005800071E082E20E94020287E68A95F1F700009C
:100590000895609100017091010186E091E00E9450
:1005A0008404E3CF609154017091550181E491E09E
:1005B0000E948404DACF83E28093300181E080934B
:1005C000310142E060E371E082E20E9402020E9497
:1005D000FE018111FCCF84E68A95F1F748E069E3DA
:1005E00071E082E20E9413020E94FE018111FCCFA1
:1005F000089582E28093300181E08093310142E0EE
:1006000060E371E082E20E9402020E94FE01811119
:10061000FCCF84E68A95F1F748E069E371E082E275
:100620000E9413020E94FE018111FCCF089582E412
:100630008093300181E08093310142E060E371E01A
:1006400082E20E9402020E94FE018111FCCF84E638
:100650008A95F1F748E069E371E082E20C941302B5
:1006600083E48093300181E08093310142E060E3D4
:1006700071E082E20E9402020E94FE018111FCCF21
:1006800084E68A95F1F748E069E371E082E20C9430
:10069000130222E120933001109231019093320134
:1006A00080933301709334016093350146E060E339
:1006B00071E082E20E94020283EC99E00197F1F777
:1006C00000C00000089586E091E00E9471049093BC
:1006D00001018093000185E091E00E94690480930C
:1006E000430181E08093300180E58093310185E012
:1006F0008093320143E060E371E082E20E940202F3
:100700008FE295E70197F1F700C0000061E070E02B
:1007100081E090E00C94490381E491E00E9471042F
:10072000909355018093540185E091E00E94690403
:100730008093430181E08093300181E58093310112
:1007400085E08093320143E060E371E082E20E9441
:1007500002028FE295E70197F1F700C0000061E027
:1007600070E081E090E00C94490382E891E00E94FF
:100770007104909358018093570185E091E00E94A5
:1007800069048093430181E08093300181E5809387
:10079000310185E08093320143E060E371E082E261
:1007A0000E9402028FE295E70197F1F700C0000076
:1007B00060E070E082E093E30E94490361E071E051
:1007C00082E091E30E94490361E070E081E090E003
:1007D0000C944903623009F008959C01220F331FE5
:1007E000220F331F220F331F280F391FADECBCEC33
:1007F0000E945A04969587959695879580960895B8
:100800001092980142E068E971E080E90C940202DC
:10081000CF93C82F42E06AE971E080E90E94130299
:100820008FE39FE10197F1F700C0000020919A014A
:1008300030E0922F882720919B01822B880F892FEF
:10084000881F990B9195C23091F49C01220F331FA0
:10085000220F331F220F331F280F391FADECBCECC2
:100860000E945A0496958795969587958096CF9184
:10087000089583B183B989B7806889BF8AB7806CCE
:100880008ABF88B7806888BF78940E9424020E943B
:1008900000040E9457010E94C7000E94CD000E94E0
:1008A000DA000E94E000FFCFEE0FFF1F0590F491E9
:1008B000E02D0994A29FB001B39FC001A39F700DCA
:1008C000811D1124911DB29F700D811D1124911D58
:1008D0000895E199FECF9FBB8EBBE09A99278DB317
:1008E0000895A8E1B0E042E050E00C948B04262F7C
:1008F000E199FECF9FBB8EBB2DBB0FB6F894E29A59
:10090000E19A0FBE019608950E947704272F0C9458
:100910007804DC01CB01FC01E199FECF06C0FFBBEE
:10092000EEBBE09A31960DB20D9241505040B8F7AF
:060930000895F894FFCFCA
:02093600062792
:00000001FF
