S0110000746573745F70726F672E737265633C
S11300000C94DC000C94FB000C94FB000C94FB009F
S11300100C94FB000C94FB000C94FB000C94FB0070
S11300200C94FB000C94FB000C94BA090C94FB0098
S11300300C94A2060C94FB000C94FB000C94FB00A3
S11300400C9427060C94FB000C94FB000C94FB000E
S11300500C94FB000C94E3060C94FB000C94FB0042
S11300600C94FB000C94FB000C94FB000C94FB0020
S11300700C94FB000C94FB000C94FB000C94FB0010
S11300800C94FB000C94FB000C94FB0037013F0123
S113009047014F0157016001690127012F01BD028A
S11300A0B502B002DA02CD02D502C5028E02860282
S11300B081027902E20296026C0254020203AB024C
S11300C0A3029B0222035C02120364022F03FA02BE
S11300D01A037402F202EA020A034F021D02150215
S11300E025022703080200022A02E3014702100244
S11300F0F301EB013702FB012F02DB01C1013F02D7
S1130100B101A901CE01C601D301A401B9018C0139
S11301109C0187017F01770172019401390457041E
S11301203304450427042D0427042D045D043904F5
S11301305704330445043F0421043F042104870485
S1130140C3047B04F3047B04B704B10421048D04C9
S113015021049F044B04E1042704D5046304DB0455
S11301606904E704AB0451044B0493046F04390499
S113017057043304450427042D0427042D045D0487
S11301803904BD04510433043F0421043F04210411
S11301908704C90499045D04CF048D0463046904CD
S11301A04B045104ED046F04090805080E083208D5
S11301B0F50728081708E90711241FBECFEFD0E17F
S11301C0DEBFCDBF11E0A0E0B1E0E0E8FCE100E07B
S11301D00BBF02C007900D92AA32B107D9F721E0F4
S11301E0AAE2B1E001C01D92AA37B207E1F70E946A
S11301F0D70D0C943E0E0C940000929A10925F015D
S113020010925E0190E090935D0180935C010895EB
S1130210CF93929810925F0110925E0130E0309378
S11302205D0120935C0150E04930510520F01BBC76
S11302301ABCCF9108954A5B5F4FFA01992787FD55
S11302409095A92FB92F815491090C94290E8730C8
S1130250910578F7815B9F4FFC010C94290E873040
S1130260910538F78A5A9F4FFC010C94290E873068
S11302709105F8F6835A9F4FFC010C94290E8730A0
S11302809105B8F68C599F4FFC010C94290E8730C8
S1130290910578F685599F4FFC010C94290E8730FF
S11302A0910538F68E589F4FFC010C94290E873027
S11302B0910508F0BECF87589F4FFC010C94290E7E
S11302C08730910508F0B5CF80589F4FFC010C94FE
S11302D0290E8730910508F0ACCF89579F4FFC0158
S11302E00C94290E88E590E09BBD8ABDA2CF6623BD
S11302F009F40FC283E690E09BBD8ABD9ACF6623C2
S113030009F411C28FE690E09BBD8ABD92CF86E7C7
S113031090E09BBD8ABD8DCF662309F4FFC18AE4BA
S113032090E09BBD8ABD85CF662309F401C283E5B5
S113033090E09BBD8ABD7DCF662309F4B8C182E4F9
S113034090E09BBD8ABD75CF81EB90E09BBD8ABDDB
S113035070CF662309F4D3C185E890E09BBD8ABDC4
S113036068CF662309F4C1C185E990E09BBD8ABDCD
S113037060CF662309F4BEC187EA90E09BBD8ABDC5
S113038058CF84E691E09BBD8ABD53CF662309F420
S1130390BBC180EE90E09BBD8ABD4BCF8DEE90E05B
S11303A09BBD8ABD46CF662309F48BC187EC90E0E0
S11303B09BBD8ABD3ECF662309F474C180E991E0F8
S11303C09BBD8ABD36CF662309F4CBC184E893E094
S11303D09BBD8ABD2ECF662309F4AFC18BE291E0A9
S11303E09BBD8ABD26CF662309F4B1C182EA92E09F
S11303F09BBD8ABD1ECF8CED91E09BBD8ABD19CFFC
S1130400662309F459C187E192E09BBD8ABD11CFEF
S1130410662309F4B0C188E592E09BBD8ABD09CF8B
S11304208AEC92E09BBD8ABD04CF662309F435C1F2
S113043086E496E09BBD8ABDFCCE662309F482C1A6
S11304408AE097E09BBD8ABDF4CE86E995E09BBD2A
S11304508ABDEFCE8AEB93E09BBD8ABDEACE6623CC
S113046009F47AC181EC91E09BBD8ABDE2CE66239A
S113047009F47CC18BE091E09BBD8ABDDACE662392
S113048009F47EC180E591E09BBD8ABDD2CE66238E
S113049009F4ADC182E293E09BBD8ABDCACE86E772
S11304A097E09BBD8ABDC5CE662309F40FC18EECCF
S11304B092E19BBD8ABDBDCE662309F47AC18DE16C
S11304C095E19BBD8ABDB5CE662309F4DCC080E608
S11304D098E09BBD8ABDADCE662309F492C180E14C
S11304E090E09BBD8ABDA5CE8EE29BE09BBD8ABDFC
S11304F0A0CE662309F449C18BE190E09BBD8ABD7F
S113050098CE8CE190E09BBD8ABD93CE662309F41E
S113051041C187E090E09BBD8ABD8BCE662309F480
S1130520DAC08BE090E09BBD8ABD83CE82E190E08F
S11305309BBD8ABD7ECE662309F49BC089E199E107
S11305409BBD8ABD76CE662309F429C180E39CE174
S11305509BBD8ABD6ECE8CED9DE19BBD8ABD69CEEF
S11305608AE390E09BBD8ABD64CE662309F435C15D
S113057080E290E09BBD8ABD5CCE662309F432C163
S113058084E290E09BBD8ABD54CE662309F476C014
S113059089E290E09BBD8ABD4CCE662309F478C005
S11305A081E390E09BBD8ABD44CE8BE290E09BBD8D
S11305B08ABD3FCE662309F493C087E390E09BBDD8
S11305C08ABD37CE662309F44FC088E190E09BBD15
S11305D08ABD2FCE662309F4F6C082EB94E09BBD5E
S11305E08ABD27CE662309F416C18DE89AE09BBD27
S11305F08ABD1FCE662309F4D7C086E19EE09BBD69
S11306008ABD17CE662309F4F7C080EC90E19BBD48
S11306108ABD0FCE662309F4D1C08FE294E09BBD5E
S11306208ABD07CE662309F4F1C087E699E09BBD35
S11306308ABDFFCD662309F4CBC08DE89CE09BBD49
S11306408ABDF7CD8DE596E19BBD8ABDF2CD6623CB
S113065009F4E6C086E495E09BBD8ABDEACD8DEE43
S11306609EE09BBD8ABDE5CD85E190E09BBD8ABD42
S1130670E0CD82EB97E19BBD8ABDDBCD86E290E0C5
S11306809BBD8ABDD6CD87EE97E09BBD8ABDD1CDFB
S11306908EE290E09BBD8ABDCCCD8BEE95E09BBDF8
S11306A08ABDC7CD8AE791E09BBD8ABDC2CD8EE3EA
S11306B090E09BBD8ABDBDCD89EF91E09BBD8ABD15
S11306C0B8CD8CEB90E09BBD8ABDB3CD80EC91E1BD
S11306D09BBD8ABDAECD89E090E09BBD8ABDA9CD0E
S11306E084E390E09BBD8ABDA4CD8DE890E09BBDE2
S11306F08ABD9FCD8EE990E09BBD8ABD9ACD8DE7E2
S113070090E09BBD8ABD95CD83ED90E09BBD8ABDF5
S113071090CD8DE590E09BBD8ABD8BCD86E490E0C5
S11307209BBD8ABD86CD89E690E09BBD8ABD81CD07
S11307308EE490E09BBD8ABD7CCD8BE191E09BBDB6
S11307408ABD77CD85EA96E09BBD8ABD72CD8CE7E4
S113075092E09BBD8ABD6DCD88EA91E09BBD8ABDC8
S113076068CD82E593E09BBD8ABD63CD8CEF90E0BC
S11307709BBD8ABD5ECD87E392E09BBD8ABD59CD0A
S11307808DE391E09BBD8ABD54CD89E190E09BBD92
S11307908ABD4FCD85E090E09BBD8ABD4ACD8AE9F4
S11307A09AE19BBD8ABD45CD8CE49DE09BBD8ABD8D
S11307B040CD8DEE93E19BBD8ABD3BCD83EF93E0AD
S11307C09BBD8ABD36CD8FE694E09BBD8ABD31CDFD
S11307D088ED9BE09BBD8ABD2CCD8EE190E09BBD56
S11307E08ABD27CD82E290E09BBD8ABD22CD85EFF4
S11307F092E09BBD8ABD1DCD80ED9FE09BBD8ABD6F
S113080018CD8DE090E09BBD8ABD13CD8FED98E0AF
S11308109BBD8ABD0ECD86EF99E09BBD8ABD09CDF7
S11308208AEF94E09BBD8ABD04CD8634910520F007
S11308308FEF80934E010895FC01E257FF4F0C9413
S1130840290E22E044E060E081E40C94080126E0F3
S113085044E060E081E40C94080122E044E061E0BB
S113086081E40C94080128E044E060E084E40C9402
S1130870080128E044E060E086E40C94080126E0E6
S113088044E061E082E40C94080128E044E060E084
S113089083E40C94080128E044E060E081E40C94D3
S11308A0080128E044E060E087E40C94080128E0B3
S11308B044E060E085E40C94080120E144E060E059
S11308C081E40C94080124E045E060E083E40C94A6
S11308D0080124E045E060E084E40C940801929A65
S11308E010925F0110925E0188E090E090935D01A8
S11308F080935C010895929A10925F0110925E01B8
S113090081E090E090935D0180935C01089520E183
S113091044E061E082E40C94080128E044E061E0F2
S113092082E40C94080128E144E060E087E40C943C
S1130930080120E145E060E084E40C940801929A07
S113094010925F0110925E0182E090E090935D014D
S113095080935C01089524E044E060E081E40C9419
S1130960080126E044E060E087E40C94080124E0F8
S113097044E061E087E40C94080128E044E061E08D
S113098087E40C94080123E044E060E087E40C94DD
S1130990080120E144E060E084E40C94080120E1D3
S11309A045E060E083E40C94080122E044E061E067
S11309B082E40C94080124E045E061E084E40C94B2
S11309C0080124E044E061E081E40C94080128E09B
S11309D044E060E082E40C94080128E144E060E033
S11309E086E40C94080127E044E060E087E40C947A
S11309F00801862F90E00C94150410924E018EB5D8
S1130A008C7F8EBD929A089510924E018EB58360AC
S1130A108EBD929880914E0190915B0190E00C9470
S1130A2015048F9A87B7816187BF1FBC8EB5886014
S1130A308EBD10927A0083E390E09BBD8ABD109234
S1130A404E018EB58C7F8EBD929A10925F011092EA
S1130A505E0110925D0110925C0110924E011092A1
S1130A605B0108952091440130914501220F331F09
S1130A7049B350E002C0559547958A95E2F740FD89
S1130A800EC081E090EE282B392B30934501209342
S1130A90440181E02115304F09F080E0089580E0A1
S1130AA090EEF1CF811102C080EC0895813091F075
S1130AB0823091F08330A1F0843081F0853091F060
S1130AC0863091F0873091F0883091F0893091F040
S1130AD080E0089589EF089584EA089589E90895E6
S1130AE080EB089582E9089582E8089588EF0895D7
S1130AF080E8089580E90895FF920F931F93CF93A0
S1130B00DF93EC018091460180FF82C08CEF8093DB
S1130B1067019E01ADECBCEC0E942F0E9695879563
S1130B2096958795969587953C2F2AE0829F301954
S1130B301124832F0E945205F82E9E013695279585
S1130B4036952795ABE7B4E10E942F0E96958795CD
S1130B5044E6489F9001499F300D1124CE01821B29
S1130B60930B9C01ADECBCEC0E942F0E96958795DF
S1130B7096958795969587950E9452058093660170
S1130B809E01369527953695279536952795A5EC9C
S1130B90B0E20E942F0E8C01129502950F7001276E
S1130BA01F70012748EE53E0049F9001059F300D0C
S1130BB0149F300D1124CE01821B930B9C0136959A
S1130BC0279536952795ABE7B4E10E942F0E9695AD
S1130BD087950E94520580936801802F0E945205D8
S1130BE08093690180913401882321F080914D0123
S1130BF0811112C08F2D80688093650180914C0112
S1130C00813091F0DF91CF911F910F91FF90089562
S1130C108FEF809367017DCF8F2D8F778093650150
S1130C2080914C01813071F780912A01882351F31E
S1130C308FEF8093690180936801809366018093AC
S1130C406501DF91CF911F910F91FF9008951F923D
S1130C500F920FB60F9211240BB60F922F933F935E
S1130C604F935F936F937F938F939F93AF93BF93B0
S1130C70EF93FF93209143012F5F20934301822F31
S1130C80877081F480915E0190915F010196909349
S1130C905F0180935E0181E090912A0191113BC034
S1130CA080932A012F7721F5809146018F5F8093ED
S1130CB0460180914B018F5F80934B0180912D0100
S1130CC08823B1F0209137013091380180913901A6
S1130CD090913A012817390739F180912E01882320
S1130CE039F080912F018F5F80932F018A30A8F40F
S1130CF0FF91EF91BF91AF919F918F917F916F91F0
S1130D005F914F913F912F910F900BBE0F900FBEAB
S1130D100F901F90189580E0C3CF10922E010E946F
S1130D20040510922F01E4CF80912E018111D9CFB7
S1130D3080912C018111DCCF0E94040581E0809315
S1130D402C01D6CF1F920F920FB60F9211240BB61F
S1130D500F922F933F934F935F936F937F938F9350
S1130D609F93AF93BF93EF93FF9382B3805882BB5B
S1130D70C09A20915E0130915F0180915C01909155
S1130D805D012817390760F080914E018F5F8093D1
S1130D904E0180914E0190915B0190E00E941504F8
S1130DA0FF91EF91BF91AF919F918F917F916F913F
S1130DB05F914F913F912F910F900BBE0F900FBEFB
S1130DC00F901F9018951F920F920FB60F92112437
S1130DD08F939F9385B1843648F081E083BD9F91C2
S1130DE08F910F900FBE0F901F90189595B184E6C8
S1130DF0891B83BD9F918F910F900FBE0F901F9001
S1130E00189580914B0120914A018C3328F02F5F73
S1130E1020934A0110924B01E09149012C33C0F513
S1130E2030E0E831F0F56E2F70E084E6E89FA00131
S1130E301124F09147018091480190E0A4E6FA9FC3
S1130E40800D911D11249093380180933701C901BD
S1130E50840F951F90933A018093390140914D017D
S1130E60442339F1EC3050F1EC30D1F16C5071097C
S1130E7044E6469FC001479F900D1124820F931FA3
S1130E80909336018093350181E080933401089575
S1130E90EF5FE093490110924A0120E030E0E8312D
S1130EA010F21092490140E050E060E070E0E0E0B0
S1130EB0C0CF90933601809335010895EE2339F025
S1130EC09093360180933501109234010895205592
S1130ED03B4F30933601209335011092340108952D
S1130EE020553B4F3093360120933501089580E51A
S1130EF08DB908958FB9779BFECF089583B113B848
S1130F00000000001FB81E9A00000000779BFECF6F
S1130F108FB1089580914C018823B9F09FEF980F09
S1130F2081E001C0880F9A95EAF790912D01911103
S1130F3080EF8FB9779BFECF84E082BB0000000076
S1130F4088E082BB00000000089580E0EECFFF92AD
S1130F500F931F93CF93DF931ABA8FEF8BBB0000CD
S1130F60000088B3806788BB00000000C0E0D0E0C8
S1130F7011E003E0F02E02E00FC041E050EE242B1C
S1130F80352B30934501209344012115304FC1F096
S1130F902196C830D10579F18C2F209144013091EC
S1130FA04501220F331F49B350E00C2E02C0559562
S1130FB047950A94E2F740FFE0CF40E050EEDFCFE0
S1130FC090E08830910588F4FC01EC52FF4F0C94BA
S1130FD0290E80912D01811157C090E081E091117B
S1130FE080E080932D0110933B010E948A07219693
S1130FF0C830D10589F68FEF8ABB00000000DF916D
S1131000CF911F910F91FF90089580914C018130F1
S113101091F510924C010E948A07E9CF80914C010E
S11310208230B9F300934C010E948A07E0CF80918B
S11310302C018823D1F210932E0110922C011092CE
S11310404E018EB58C7F8EBD929A0E948A07CFCFB7
S113105081E090914D01911113C080934D010E9444
S11310608A07C5CF80914C01833099F2F0924C01EC
S11310700E948A07BCCF10934C010E948A07B7CF05
S113108080E080934D01EBCF90912C01992359F08E
S113109010924E018EB58C7F8EBD929A10922C01C7
S11310A090912D019BCF982F99CF80914C01833043
S11310B031F1843041F08230C9F080913501909152
S11310C036010E947C05E5E6F1E080E02FEF982FE1
S11310D09295907F98BB91919BBB95ED9A95F1F772
S11310E000002BBB8F5F853091F708958091370105
S11310F0909138010E947C0510926701E4CF8091A1
S11311002B0190E00E947C058FEF80936701DBCF79
S113111080914C01813059F0823041F48091480132
S11311208F5F8C3388F01092480108950895809160
S11311304A018F5F8C3358F010924A0180914B0121
S11311408F5F80934B0108958093480108958093A5
S11311504A0180914B018F5F80934B0108958091E8
S11311604C01813071F0823059F4809148018150F2
S113117080934801803F18F08BE3809348010895E1
S1131180089580914A01815080934A01803FB8F3C9
S11311908BE380934A010895CF93DF931F92CDB7D9
S11311A0DEB78370E0913D01EE0FEE0FE82BF0E027
S11311B0EE5FFE4F9081913009F1923041F083301F
S11311C069F080933D010F90DF91CF910895909144
S11311D03C01915090933C01833099F790913C01EC
S11311E02EEF290F2830B8F0913F70F410923C0193
S11311F080933D010F90DF91CF91089590913C0130
S11312009F5F90933C01DBCF89830E94AF08898163
S113121010923C01EDCF89830E9488088981109245
S11312203C01E6CF80914C018230D1F0833069F0EB
S1131230813009F00895809149018F5F80934901BD
S11312408831C0F310924901089580912B018F5F7A
S113125080932B0190E090938700809386000895FB
S1131260809147018F5F80934701883118F3109272
S11312704701089580914C018230D9F0833071F098
S1131280813009F00895809149018150809349018A
S1131290803FC0F387E180934901089580912B0139
S11312A0815080932B0190E0909387008093860077
S11312B0089580914701815080934701803F10F346
S11312C087E1809347010895CF93DF938C70C82FF3
S11312D0D0E0D595C795D595C7959C2FE0913F0152
S11312E0EE0FEE0FEC2BF0E0EE5FFE4F80818130CD
S11312F0F9F0823039F0933061F0C0933F01DF910F
S1131300CF91089580913E01815080933E019330A6
S1131310A1F780913E019EEF980F9830A0F0813F95
S113132068F410923E01C0933F01DF91CF9108957C
S113133080913E018F5F80933E01DDCF0E943A0988
S113134010923E01F0CF0E94120910923E01EBCFA1
S1131350CF93C0914101CF5FC09341010E947E07AA
S113136080934001C0FF03C0CF910C94CC08CF916F
S11313700C9464091F920F920FB60F9211240BB6AE
S11313800F922F933F934F935F936F937F938F931A
S11313909F93AF93BF93CF93EF93FF93C091420179
S11313A0CF5FC09342018C2F8F73C1F0C77011F4CB
S11313B00E94A809FF91EF91CF91BF91AF919F91A6
S11313C08F917F916F915F914F913F912F910F90EA
S11313D00BBE0F900FBE0F901F9018950E94A70789
S11313E0E5CF83B7816083BF80B7886080BF85B550
S11313F08A6785BD87B7816487BF0895E1E6F0E019
S1131400808180831092620087B1806687B986B13B
S11314108F6E86B98FEF83BD0895139A81E8809308
S11314208B0089E080938A0080912B0190E0909357
S11314308700809386000895E2E6F0E0808188606A
S113144080838081877F808308951FB8779BFECF38
S113145081E08FB9779BFECF809162008860809392
S1131460620080916200877F809362008FE891E040
S11314700197F1F700C000008FE39FE10197F1F7B6
S113148000C0000008951FB8779BFECF80E88FB995
S1131490779BFECF80916200886080936200809188
S11314A06200877F809362008FE891E00197F1F7F3
S11314B000C0000008951FB8779BFECF80EC8FB961
S11314C0779BFECF80916200886080936200809158
S11314D06200877F809362008FE891E00197F1F7C3
S11314E000C0000008951FB8779BFECF8FE08FB92E
S11314F0779BFECF80916200886080936200809128
S11315006200877F809362008FE891E00197F1F792
S113151000C0000008951FB8779BFECF8CE08FB900
S1131520779BFECF809162008860809362008091F7
S11315306200877F809362008FE891E00197F1F762
S113154000C000000895603120F4813019F0823029
S1131550C9F0089560581FB8779BFECF6FB9779B89
S1131560FECF809162008860809362008091620067
S1131570877F809362008FE891E00197F1F700C0C4
S1131580000008956054E7CF80E190E041E030E24C
S11315904FB9779BFECF3FB9779BFECF2091620076
S11315A028602093620020916200277F20936200CC
S11315B0EFE8F1E03197F1F700C0000001970097E0
S11315C039F70895843608F45DC09CE9980F943681
S11315D008F45CC0885C22E391E09FB9779BFECF5E
S11315E02FB9779BFECF9091620098609093620030
S11315F090916200977F90936200EFE8F1E0319759
S1131600F1F700C0000091E08A30C0F190E09F5FE4
S11316108A508A30E0F721E02FB9779BFECF905DA6
S11316209FB9779BFECF909162009860909362007F
S113163090916200977F90936200EFE8F1E0319718
S1131640F1F700C000008823F9F0805D91E09FB9B4
S1131650779BFECF8FB9779BFECF80916200886025
S11316608093620080916200877F809362008FE89C
S113167091E00197F1F700C000000895913019F747
S113168090E0C9CF90E0C0CF80E3E0CF892F21E381
S1131690A3CF803127E2920708F4BFC020E001C045
S11316A0232F31E0320F80519742803147E2940773
S11316B0B8F731E03FB9779BFECF2F5C2FB9779B0A
S11316C0FECF209162002860209362002091620086
S11316D0277F20936200EFE8F1E03197F1F700C033
S11316E0000021E0883EF3E09F0708F48EC020E06C
S11316F02F5F885E9340883E33E09307C8F731E05C
S11317003FB9779BFECF205D2FB9779BFECF209109
S1131710620028602093620020916200277F20935A
S11317206200EFE8F1E03197F1F700C0000031E02A
S11317308436910508F465C020E02F5F8456910932
S113174084369105D0F7222309F45BC031E03FB918
S1131750779BFECF205D2FB9779BFECF209162004F
S113176028602093620020916200277F209362000A
S1131770EFE8F1E03197F1F700C0000031E08A3082
S11317809105D8F120E02F5F0A978A309105D8F7A8
S1131790222399F131E03FB9779BFECF205D2FB929
S11317A0779BFECF209162002860209362002091F5
S11317B06200277F20936200EFE8F1E03197F1F7B0
S11317C000C00000009759F1805D91E09FB9779BBC
S11317D0FECF8FB9779BFECF8091620088608093A3
S11317E0620080916200877F809362008FE891E0BD
S11317F00197F1F700C000000895313019F720E097
S1131800C9CF313041F030E0BACF213011F030E0AF
S11318108FCF20E074CF20E099CF20E063CF80E326
S1131820D4CF91E09FB9779BFECF8FB9779BFECF42
S11318308091620088608093620080916200877F5B
S1131840809362008FE891E00197F1F700C00000F7
S11318500895DC0120E030E090E041E04FB9779B4F
S1131860FECFFD01E20FF31F80818FB9779BFECF7E
S11318708091620088608093620080916200877F1B
S113188080936200EFE8F1E03197F1F700C00000C7
S11318909F5F292F30E0FD0101900020E9F7EA1B4A
S11318A0FB0B3297E217F307C8F60895E1E6F0E080
S11318B080818860808388B388BB87B3876087BB57
S11318C080E58DB9089580916100886080936100FE
S11318D088B388BB87B3876087BB80E58DB9809167
S11318E061008860809361008FE59AEE0197F1F7BB
S11318F000C000001FB8779BFECF88E38FB9779BA9
S1131900FECF8091620088608093620080916200C3
S1131910877F809362008FE891E00197F1F700C020
S113192000008FE19EE40197F1F700C000001FB8AA
S1131930779BFECF88E08FB9779BFECF80916200C2
S113194088608093620080916200877F8093620048
S11319508FE891E00197F1F700C000008FE39FE169
S11319600197F1F700C000001FB8779BFECF86E017
S11319708FB9779BFECF809162008860809362006C
S113198080916200877F809362008FE891E00197E5
S1131990F1F700C000001FB8779BFECF80E48FB939
S11319A0779BFECF80916200886080936200809173
S11319B06200877F809362008FE891E00197F1F7DE
S11319C000C0000081E08FB9779BFECF8EE08FB915
S11319D0779BFECF80916200886080936200809143
S11319E06200877F809362008FE891E00197F1F7AE
S11319F000C0000081E08FB9779BFECF8BE18FB9E7
S1131A00779BFECF80916200886080936200809112
S1131A106200877F809362008FE891E00197F1F77D
S1131A2000C0000081E08FB9779BFECF81E18FB9C0
S1131A30779BFECF809162008860809362008091E2
S1131A406200877F809362008FE891E00197F1F74D
S1131A5000C0000081E08FB9779BFECF81E18FB990
S1131A60779BFECF809162008860809362008091B2
S1131A706200877F809362008FE891E00197F1F71D
S1131A8000C0000081E08FB9779BFECF81E18FB960
S1131A90779BFECF80916200886080936200809182
S1131AA06200877F809362008FE891E00197F1F7ED
S1131AB000C0000081E08FB9779BFECF81E18FB930
S1131AC0779BFECF80916200886080936200809152
S1131AD06200877F809362008FE891E00197F1F7BD
S1131AE000C0000081E08FB9779BFECF81E18FB900
S1131AF0779BFECF80916200886080936200809122
S1131B006200877F809362008FE891E00197F1F78C
S1131B1000C0000081E08FB9779BFECF8FE18FB9C1
S1131B20779BFECF809162008860809362008091F1
S1131B306200877F809362008FE891E00197F1F75C
S1131B4000C000001FB8779BFECF81E08FB9779B60
S1131B50FECF809162008860809362008091620071
S1131B60877F809362008FE891E00197F1F700C0CE
S1131B7000008FE19EE40197F1F700C000001FB858
S1131B80779BFECF8CE08FB9779BFECF809162006C
S1131B9088608093620080916200877F80936200F6
S1131BA08FE891E00197F1F700C00000089580EC00
S1131BB082B91F9887EF87BB8A9A84E680932B01AA
S1131BC083B7816083BF80B7886080BF85B58A672B
S1131BD085BD87B7816487BF809161008093610070
S1131BE01092620087B1806687B986B18F6E86B91C
S1131BF08FEF83BD0E94110580E58DB90E94630CAF
S1131C00139A81E880938B0089E080938A00809105
S1131C102B0190E0909387008093860078940E9433
S1131C2055080E94010780913B018823C1F30E945B
S1131C30250A80912D01882339F082E191E00E94E8
S1131C40290C10923B01EBCF8DE191E00E94290C0D
S1131C50F8CFEE0FFF1F0590F491E02D0994A29F99
S1131C60B001B39FC001A39F700D811D1124911D6C
S1131C70B29F700D811D1124911D0895F894FFCF1A
S1131C80FF01000102000200000101000002000245
S1131C900100414C41524D204F4E212100414C4105
S10D1CA0524D204F4646212100005A
S9030000FC
