:100000000C94D4000C94F3000C94F3000C94F300C3
:100010000C94F3000C94F3000C94F3000C94F30094
:100020000C94F3000C94F3000C94B5080C94F300BA
:100030000C94AE060C94F3000C94F3000C94F300B3
:100040000C9478060C94F3000C94F3000C94F300D9
:100050000C94F3000C94EF060C94F3000C94F30052
:100060000C94F3000C94F3000C94F3000C94F30044
:100070000C94F3000C94F3000C94F3000C94F30034
:100080000C94F3000C94F3000C94F3002F0137014F
:100090003F0147014F01580161011F012701B502CE
:1000A000AD02A802D202C502CD02BD0286027E02C6
:1000B00079027102DA028E0264024C02FA02A30291
:1000C0009B0293021A0354020A035C022703F20202
:1000D00012036C02EA02E2020203470215020D0259
:1000E0001D021F030002F8012202DB013F02080289
:1000F000EB01E3012F02F3012702D301B90137021B
:10010000A901A101C601BE01CB019C01B10184017D
:1001100094017F0177016F016A018C0131044F0462
:100120002B043D041F0425041F0425045504310439
:100130004F042B043D0437041904370419047F04C9
:10014000BB047304EB047304AF04A904190485040D
:10015000190497044304D9041F04CD045B04D30499
:100160006104DF04A304490443048B0467043104DD
:100170004F042B043D041F0425041F0425045504CB
:100180003104B50449042B04370419043704190455
:100190007F04C10491045504C70485045B04610411
:1001A00043044904E504670411241FBECFEFD0E1E6
:1001B000DEBFCDBF11E0A0E0B1E0EAE0F3E100E096
:1001C0000BBF02C007900D92A031B107D9F721E013
:1001D000A0E1B1E001C01D92A534B207E1F70E9491
:1001E00022090C9483090C940000929A10923E010B
:1001F00010923D0190E090933C0180933B01089563
:10020000CF93929810923E0110923D0130E03093CE
:100210003C0120933B0150E04930510520F01BBCCC
:100220001ABCCF9108954A5B5F4FFA01992787FD69
:100230009095A92FB92F815491090C946E0987309C
:10024000910578F7815B9F4FFC010C946E09873014
:10025000910538F78A5A9F4FFC010C946E0987303C
:100260009105F8F6835A9F4FFC010C946E09873074
:100270009105B8F68C599F4FFC010C946E0987309C
:10028000910578F685599F4FFC010C946E098730D3
:10029000910538F68E589F4FFC010C946E098730FB
:1002A000910508F0BECF87589F4FFC010C946E0952
:1002B0008730910508F0B5CF80589F4FFC010C9412
:1002C0006E098730910508F0ACCF89579F4FFC012C
:1002D0000C946E0988E590E09BBD8ABDA2CF662391
:1002E00009F40FC283E690E09BBD8ABD9ACF6623D6
:1002F00009F411C28FE690E09BBD8ABD92CF86E7DC
:1003000090E09BBD8ABD8DCF662309F4FFC18AE4CE
:1003100090E09BBD8ABD85CF662309F401C283E5C9
:1003200090E09BBD8ABD7DCF662309F4B8C182E40D
:1003300090E09BBD8ABD75CF81EB90E09BBD8ABDEF
:1003400070CF662309F4D3C185E890E09BBD8ABDD8
:1003500068CF662309F4C1C185E990E09BBD8ABDE1
:1003600060CF662309F4BEC187EA90E09BBD8ABDD9
:1003700058CF84E691E09BBD8ABD53CF662309F434
:10038000BBC180EE90E09BBD8ABD4BCF8DEE90E06F
:100390009BBD8ABD46CF662309F48BC187EC90E0F4
:1003A0009BBD8ABD3ECF662309F474C180E991E00C
:1003B0009BBD8ABD36CF662309F4CBC184E893E0A8
:1003C0009BBD8ABD2ECF662309F4AFC18BE291E0BD
:1003D0009BBD8ABD26CF662309F4B1C182EA92E0B3
:1003E0009BBD8ABD1ECF8CED91E09BBD8ABD19CF10
:1003F000662309F459C187E192E09BBD8ABD11CF04
:10040000662309F4B0C188E592E09BBD8ABD09CF9F
:100410008AEC92E09BBD8ABD04CF662309F435C106
:1004200086E496E09BBD8ABDFCCE662309F482C1BA
:100430008AE097E09BBD8ABDF4CE86E995E09BBD3E
:100440008ABDEFCE8AEB93E09BBD8ABDEACE6623E0
:1004500009F47AC181EC91E09BBD8ABDE2CE6623AE
:1004600009F47CC18BE091E09BBD8ABDDACE6623A6
:1004700009F47EC180E591E09BBD8ABDD2CE6623A2
:1004800009F4ADC182E293E09BBD8ABDCACE86E786
:1004900097E09BBD8ABDC5CE662309F40FC18EECE3
:1004A00092E19BBD8ABDBDCE662309F47AC18DE180
:1004B00095E19BBD8ABDB5CE662309F4DCC080E61C
:1004C00098E09BBD8ABDADCE662309F492C180E160
:1004D00090E09BBD8ABDA5CE8EE29BE09BBD8ABD10
:1004E000A0CE662309F449C18BE190E09BBD8ABD93
:1004F00098CE8CE190E09BBD8ABD93CE662309F433
:1005000041C187E090E09BBD8ABD8BCE662309F494
:10051000DAC08BE090E09BBD8ABD83CE82E190E0A3
:100520009BBD8ABD7ECE662309F49BC089E199E11B
:100530009BBD8ABD76CE662309F429C180E39CE188
:100540009BBD8ABD6ECE8CED9DE19BBD8ABD69CE03
:100550008AE390E09BBD8ABD64CE662309F435C171
:1005600080E290E09BBD8ABD5CCE662309F432C177
:1005700084E290E09BBD8ABD54CE662309F476C028
:1005800089E290E09BBD8ABD4CCE662309F478C019
:1005900081E390E09BBD8ABD44CE8BE290E09BBDA1
:1005A0008ABD3FCE662309F493C087E390E09BBDEC
:1005B0008ABD37CE662309F44FC088E190E09BBD29
:1005C0008ABD2FCE662309F4F6C082EB94E09BBD72
:1005D0008ABD27CE662309F416C18DE89AE09BBD3B
:1005E0008ABD1FCE662309F4D7C086E19EE09BBD7D
:1005F0008ABD17CE662309F4F7C080EC90E19BBD5D
:100600008ABD0FCE662309F4D1C08FE294E09BBD72
:100610008ABD07CE662309F4F1C087E699E09BBD49
:100620008ABDFFCD662309F4CBC08DE89CE09BBD5D
:100630008ABDF7CD8DE596E19BBD8ABDF2CD6623DF
:1006400009F4E6C086E495E09BBD8ABDEACD8DEE57
:100650009EE09BBD8ABDE5CD85E190E09BBD8ABD56
:10066000E0CD82EB97E19BBD8ABDDBCD86E290E0D9
:100670009BBD8ABDD6CD87EE97E09BBD8ABDD1CD0F
:100680008EE290E09BBD8ABDCCCD8BEE95E09BBD0C
:100690008ABDC7CD8AE791E09BBD8ABDC2CD8EE3FE
:1006A00090E09BBD8ABDBDCD89EF91E09BBD8ABD29
:1006B000B8CD8CEB90E09BBD8ABDB3CD80EC91E1D1
:1006C0009BBD8ABDAECD89E090E09BBD8ABDA9CD22
:1006D00084E390E09BBD8ABDA4CD8DE890E09BBDF6
:1006E0008ABD9FCD8EE990E09BBD8ABD9ACD8DE7F6
:1006F00090E09BBD8ABD95CD83ED90E09BBD8ABD0A
:1007000090CD8DE590E09BBD8ABD8BCD86E490E0D9
:100710009BBD8ABD86CD89E690E09BBD8ABD81CD1B
:100720008EE490E09BBD8ABD7CCD8BE191E09BBDCA
:100730008ABD77CD85EA96E09BBD8ABD72CD8CE7F8
:1007400092E09BBD8ABD6DCD88EA91E09BBD8ABDDC
:1007500068CD82E593E09BBD8ABD63CD8CEF90E0D0
:100760009BBD8ABD5ECD87E392E09BBD8ABD59CD1E
:100770008DE391E09BBD8ABD54CD89E190E09BBDA6
:100780008ABD4FCD85E090E09BBD8ABD4ACD8AE908
:100790009AE19BBD8ABD45CD8CE49DE09BBD8ABDA1
:1007A00040CD8DEE93E19BBD8ABD3BCD83EF93E0C1
:1007B0009BBD8ABD36CD8FE694E09BBD8ABD31CD11
:1007C00088ED9BE09BBD8ABD2CCD8EE190E09BBD6A
:1007D0008ABD27CD82E290E09BBD8ABD22CD85EF08
:1007E00092E09BBD8ABD1DCD80ED9FE09BBD8ABD83
:1007F00018CD8DE090E09BBD8ABD13CD8FED98E0C4
:100800009BBD8ABD0ECD86EF99E09BBD8ABD09CD0B
:100810008AEF94E09BBD8ABD04CD8634910520F01B
:100820008FEF80932D010895FC01E257FF4F0C9448
:100830006E0922E044E060E081E40C94000126E0CF
:1008400044E060E081E40C94000122E044E061E0D7
:1008500081E40C94000128E044E060E084E40C941E
:10086000000128E044E060E086E40C94000126E00A
:1008700044E061E082E40C94000128E044E060E0A0
:1008800083E40C94000128E044E060E081E40C94EF
:10089000000128E044E060E087E40C94000128E0D7
:1008A00044E060E085E40C94000120E144E060E075
:1008B00081E40C94000124E045E060E083E40C94C2
:1008C000000124E045E060E084E40C940001929A89
:1008D00010923E0110923D0188E090E090933C011F
:1008E00080933B010895929A10923E0110923D012F
:1008F00081E090E090933C0180933B01089520E1DA
:1009000044E061E082E40C94000128E044E061E00E
:1009100082E40C94000128E144E060E087E40C9458
:10092000000120E145E060E084E40C940001929A2B
:1009300010923E0110923D0182E090E090933C01C4
:1009400080933B01089524E044E060E081E40C944E
:10095000000126E044E060E087E40C94000124E01C
:1009600044E061E087E40C94000128E044E061E0A9
:1009700087E40C94000123E044E060E087E40C94F9
:10098000000120E144E060E084E40C94000120E1F7
:1009900045E060E083E40C94000122E044E061E083
:1009A00082E40C94000124E045E061E084E40C94CE
:1009B000000124E044E061E081E40C94000128E0BF
:1009C00044E060E082E40C94000128E144E060E04F
:1009D00086E40C94000127E044E060E087E40C9496
:1009E0000001862F90E00C940D0410922D018EB51D
:1009F0008C7F8EBD929A089510922D018EB58360E2
:100A00008EBD929880912D0190913A0190E00C94C6
:100A10000D048F9A87B7816187BF1FBC8EB5886030
:100A20008EBD10927A0083E390E09BBD8ABD109248
:100A30002D018EB58C7F8EBD929A10923E01109240
:100A40003D0110923C0110923B0110922D01109239
:100A50003A0108952091240130912501220F331F7E
:100A600049B350E002C0559547958A95E2F740FD9D
:100A70000EC081E090EE282B392B30932501209376
:100A8000240181E02115304F09F080E0089580E0D5
:100A900090EEF1CF811102C080EC0895813091F089
:100AA000823091F08330A1F0843081F0853091F074
:100AB000863091F0873091F0883091F0893091F054
:100AC00080E0089589EF089584EA089589E90895FA
:100AD00080EB089582E9089582E8089588EF0895EB
:100AE00080E8089580E908950F931F93CF93DF93D3
:100AF000EC018091260180FF79C08CEF8093420148
:100B00009E01ADECBCEC0E94740996958795969574
:100B10008795969587953C2F2AE0829F301911245E
:100B2000832F0E944A05809340019E0136952795A8
:100B300036952795ABE7B4E10E94740996958795A1
:100B400044E6489F9001499F300D1124CE01821B3D
:100B5000930B9C01ADECBCEC0E94740996958795B3
:100B600096958795969587950E944A0580934101B1
:100B70009E01369527953695279536952795A5ECB0
:100B8000B0E20E9474098C01129502950F70012742
:100B90001F70012728EE33E0029FC001039F900DD4
:100BA000129F900D11249E01281B390B3695279515
:100BB00036952795ABE7B4E10E9474099695879521
:100BC0000E944A0580934301802F0E944A0580932A
:100BD000440180912C018330F9F0823029F1813079
:100BE00049F0DF91CF911F910F9108958FEF80937E
:100BF000420186CF80911001882399F38FEF809373
:100C00004401809343018093410180934001DF912F
:100C1000CF911F910F9108958FEF80934201DF9143
:100C2000CF911F910F91089510924201DF91CF91C2
:100C30001F910F9108951ABA8FEF8BBB000000002F
:100C400088B3806788BB00000000209124013091A8
:100C50002501E091110161E080E090E071E0A901DF
:100C6000440F551F29B330E0082E02C03595279553
:100C70000A94E2F720FD15C021E030EE242B352B3D
:100C80003093250120932401211540EF340761F0B2
:100C900001966F5F693019F78FEF8ABB0000000083
:100CA000089520E030EEEACF4091220150912301D7
:100CB0004817590759F08630B1F0873061F06093DA
:100CC0002C019093230180932201E2CF873019F009
:100CD00010922C01089541E050911201511140E011
:100CE00040931201EECFEE2351F370931301E9CF3D
:100CF0001F920F920FB60F9211242F938F939F93F1
:100D0000209121012F5F20932101822F877081F490
:100D100080913D0190913E01019690933E01809318
:100D20003D0181E090911001911116C08093100156
:100D30002F7751F4809126018F5F80932601809157
:100D40002B018F5F80932B019F918F912F910F909B
:100D50000FBE0F901F90189580E0E8CF1F920F9262
:100D60000FB60F9211240BB60F922F933F934F9310
:100D70005F936F937F938F939F93AF93BF93EF9303
:100D8000FF9382B3805882BBC09A20913D0130917D
:100D90003E0180913B0190913C012817390760F09A
:100DA00080912D018F5F80932D0180912D01909175
:100DB0003A0190E00E940D04FF91EF91BF91AF9135
:100DC0009F918F917F916F915F914F913F912F9163
:100DD0000F900BBE0F900FBE0F901F9018951F9293
:100DE0000F920FB60F9211248F939F9385B1843683
:100DF00048F081E083BD9F918F910F900FBE0F90BF
:100E00001F90189595B184E6891B83BD9F918F91A2
:100E10000F900FBE0F901F90189580912B018C336F
:100E200010F580912A01209129018C3338F590E04A
:100E3000283168F11092290120E030E0820F931FE1
:100E400090931A0180931901209127018091280124
:100E500090E034E6239F800D911D1124909318019A
:100E600080931701089580912A018F5F80932A0152
:100E700010922B01209129018C33C8F22F5F20930F
:100E8000290110922A0180E090E0283198F644E68A
:100E9000249F90011124D2CF81E58DB908958FB997
:100EA000779BFECF089583B113B8000000001FB8F0
:100EB0001E9A00000000779BFECF8FB108958091AD
:100EC0002C018823B9F09FEF980F81E001C0880FB3
:100ED0009A95EAF790911201911180EF8FB9779B63
:100EE000FECF84E082BB0000000088E082BB0000EF
:100EF0000000089580E0EECF80912C01813019F13F
:100F000010F18230C9F0833021F485B190E00E9465
:100F10007405E0E4F1E080E02FEF982F9295907F48
:100F200098BB91919BBB95E39A95F1F700002BBB81
:100F30008F5F853091F70895809117019091180186
:100F40000E947405E6CF8091190190911A010E94C8
:100F50007405DFCF80912C01813059F0823041F44B
:100F6000809128018F5F8C3388F0109228010895BA
:100F7000089580912A018F5F8C3358F010922A01D6
:100F800080912B018F5F80932B010895809328011E
:100F9000089580932A0180912B018F5F80932B010C
:100FA000089580912C01813071F0823059F4809144
:100FB0002801815080932801803F18F08BE38093B3
:100FC00028010895089580912A01815080932A0173
:100FD000803FB8F38BE380932A010895CF93C82F05
:100FE000C370E0911C01EE0FEE0FEC2BF0E0E0502F
:100FF000FF4F80818130E9F0823031F0C33059F009
:10100000C0931C01CF91089580911B018150809362
:101010001B01C330A9F780911B019EEF980F9830F8
:1010200098F0813F60F410921B01C0931C01CF9196
:10103000089580911B018F5F80931B01DFCF0E9479
:10104000D10710921B01F1CF0E94AA0710921B0139
:10105000ECCF80912C01813069F0823051F4809185
:1010600027018F5F80932701883110F010922701AC
:1010700008950895809129018F5F80932901883117
:10108000B8F310922901089580912C01813071F0FC
:10109000823059F480912701815080932701803F4D
:1010A00018F087E180932701089508958091290120
:1010B000815080932901803FB8F387E18093290113
:1010C0000895CF93DF938C70C82FD0E0D595C79546
:1010D000D595C7959C2FE0911E01EE0FEE0FEC2BDE
:1010E000F0E0E050FF4F80818130F9F0823039F03C
:1010F000933061F0C0931E01DF91CF9108958091EC
:101100001D01815080931D019330A1F780911D0135
:101110009EEF980F9830A0F0813F68F410921D0167
:10112000C0931E01DF91CF91089580911D018F5FC3
:1011300080931D01DDCF0E94440810921D01F0CF65
:101140000E94290810921D01EBCFCF93DF930E94DC
:10115000530780931F01C82FD0E0CE010E94610881
:10116000CE01DF91CF910C94EE071F920F920FB634
:101170000F9211240BB60F922F933F934F935F93CF
:101180006F937F938F939F93AF93BF93CF93EF937F
:10119000FF93C0912001CF5FC09320018C2F8F71EE
:1011A000E9F0C770C1F0C13011F40E947C07FF91D3
:1011B000EF91CF91BF91AF919F918F917F916F915F
:1011C0005F914F913F912F910F900BBE0F900FBEEB
:1011D0000F901F9018950E94A508E9CF0E941B064A
:1011E0000E945F07DECF83B7816083BF80B78860CE
:1011F00080BF85B58A6785BD87B7816487BF08953D
:10120000E1E6F0E0808180831092620087B1806621
:1012100087B986B18F6E86B98FEF83BD08958EB57D
:1012200082608EBD08958EB58C7F8EBD0895A79A7D
:1012300087B7806187BF88E08EBD8FEF9FEF9BBD32
:101240008ABD089580EC82B91F9887EF87BB8A9A80
:1012500081E58DB983B7816083BF80B7886080BF27
:1012600085B58A6785BD87B7816487BF8091610036
:10127000809361001092620087B1806687B986B161
:101280008F6E86B98FEF83BD0E9409057894C1E007
:101290000E940D07809112018823D1F3209117013C
:1012A000309118018091190190911A01281739077E
:1012B00029F080911301882359F304C08091130110
:1012C000882339F0109213010E94FC04109214013B
:1012D000DFCF0E94FC04C0931101EBCFEE0FFF1F84
:1012E0000590F491E02D0994A29FB001B39FC00135
:1012F000A39F700D811D1124911DB29F700D811D42
:0A1300001124911D0895F894FFCF09
:10130A0000010200020000010100000200020100C7
:00000001FF
