:100000000C9446000C9465000C9465000C946500FB
:100010000C9465000C9465000C9465000C946500CC
:100020000C9465000C9465000C94D6030C94650048
:100030000C949B010C9465000C9465000C94650075
:100040000C9402020C9465000C9465000C946500FD
:100050000C9465000C94A5010C9465000C9465004B
:100060000C9465000C9465000C9465000C9465007C
:100070000C9465000C9465000C9465000C9465006C
:100080000C9465000C9465000C94650011241FBE4F
:10009000CFEFD0E1DEBFCDBF11E0A0E0B1E0E0E303
:1000A000F9E000E00BBF02C007900D92A031B1074C
:1000B000D9F721E0A0E1B1E001C01D92A833B20759
:1000C000E1F70E9461040C9496040C9400002091C6
:1000D0001D0130911E01220F331F49B350E002C0B1
:1000E000559547958A95E2F740FD0EC081E090EE68
:1000F000282B392B30931E0120931D0181E02115FF
:10010000304F09F080E0089580E090EEF1CF81114A
:1001100002C080EC0895813091F0823091F08330FC
:10012000A1F0843081F0853091F0863091F08730F5
:1001300091F0883091F0893091F080E0089589EF56
:10014000089584EA089589E9089580EB089582E985
:10015000089582E8089588EF089580E8089580E979
:1001600008950F931F93CF93DF93EC0180911F01AC
:1001700080FF79C08CEF809335019E01ADECBCEC23
:100180000E9487049695879596958795969587956D
:100190003C2F2AE0829F30191124832F0E94870070
:1001A000809333019E013695279536952795ABE7C9
:1001B000B4E10E9487049695879544E6489F900194
:1001C000499F300D1124CE01821B930B9C01ADEC95
:1001D000BCEC0E9487049695879596958795969591
:1001E00087950E948700809334019E01369527955C
:1001F0003695279536952795A5ECB0E20E948704A1
:100200008C01129502950F7001271F70012728EEAF
:1002100033E0029FC001039F900D129F900D1124A7
:100220009E01281B390B3695279536952795ABE708
:10023000B4E10E948704969587950E948700809379
:100240003601802F0E94870080933701809125011D
:100250008330F9F0823029F1813049F0DF91CF917C
:100260001F910F9108958FEF8093350186CF809174
:100270001001882399F38FEF809337018093360123
:100280008093340180933301DF91CF911F910F91BF
:1002900008958FEF80933501DF91CF911F910F91DA
:1002A000089510923501DF91CF911F910F9108951C
:1002B0001ABA8FEF8BBB0000000088B3806788BB41
:1002C00000000000E0912501F0E020911D01309137
:1002D0001E0181E090E0A901440F551F29B330E0D1
:1002E000BC016150710902C0359527956A95E2F706
:1002F00020FD15C021E030EE242B352B30931E015C
:1003000020931D01211540EF340761F001968530DF
:10031000910509F78FEF8ABB00000000089520E0E7
:1003200030EEEACF8E179F0719F080932501EECFAC
:100330001092250108951F920F920FB60F9211246B
:100340000F900FBE0F901F9018951F920F920FB62F
:100350000F9211248F939F9385B1843648F081E0EA
:1003600083BD9F918F910F900FBE0F901F90189596
:1003700095B184E6891B83BD9F918F910F900FBE2D
:100380000F901F901895809124018C3310F5809167
:100390002301209122018C3338F590E0283168F157
:1003A0001092220120E030E0820F931F90931401FD
:1003B00080931301209120018091210190E034E687
:1003C000239F800D911D11249093120180931101A0
:1003D0000895809123018F5F80932301109224015F
:1003E000209122018C33C8F22F5F209322011092BA
:1003F000230180E090E0283198F644E6249F9001A4
:100400001124D2CF1F920F920FB60F9211240BB668
:100410000F922F933F934F935F936F937F938F939D
:100420009F93AF93BF93CF93EF93FF93C0911C0122
:10043000CF5FC0931C010E94C3018C2F8F7139F4D0
:1004400081E090911001911122C080931001CF772B
:1004500051F480911F018F5F80931F0180912401CF
:100460008F5F80932401FF91EF91CF91BF91AF9166
:100470009F918F917F916F915F914F913F912F91BC
:100480000F900BBE0F900FBE0F901F90189580E03D
:10049000DCCF81E58DB908958FB9779BFECF0895A4
:1004A00083B113B8000000001FB81E9A00000000BE
:1004B000779BFECF8FB1089580912501882399F015
:1004C0009FEF980F81E001C0880F9A95EAF78FB9E6
:1004D000779BFECF84E082BB0000000088E082BBF7
:1004E00000000000089580E0F2CF80912501813066
:1004F00079F170F1823029F1833021F485B190E0F7
:100500000E94B10080911901853010F010921901FC
:1005100088B38F7888BB28B38091190130E1839F1D
:10052000C0011124282B28BBE0911901F0E0ED5CFB
:10053000FE4F80818BBB809119018F5F80931901E1
:10054000089580911101909112010E94B100DACFBB
:1005500080911301909114010E94B100D3CF81309A
:10056000910569F0029709F0089580913201815058
:1005700080933201803FC0F3109232010895809140
:100580003201893020F089E08093320108958F5F35
:1005900080933201089580912501813059F0823095
:1005A00041F4809121018F5F8C3388F010922101FA
:1005B00008950895809123018F5F8C3358F0109235
:1005C0002301809124018F5F8093240108958093FB
:1005D0002101089580932301809124018F5F8093EE
:1005E0002401089580912501813071F0823059F401
:1005F00080912101815080932101803F18F08BE38D
:100600008093210108950895809123018150809362
:100610002301803FB8F38BE3809323010895CF93A8
:10062000C82FC370E0911601EE0FEE0FEC2BF0E037
:10063000E050FF4F80818130E9F0823031F0C330EB
:1006400059F0C0931601CF91089580911501815002
:1006500080931501C330A9F7809115019EEF980F83
:10066000983098F0813F60F410921501C093160104
:10067000CF910895809115018F5F80931501DFCF91
:100680000E94F20210921501F1CF0E94CB0210924B
:100690001501ECCF80912501813069F0823051F451
:1006A000809120018F5F80932001883110F010929B
:1006B000200108950895809122018F5F8093220187
:1006C0008831B8F31092220108958091250181307C
:1006D00071F0823059F48091200181508093200183
:1006E000803F18F087E1809320010895089580915C
:1006F0002201815080932201803FB8F387E18093EB
:1007000022010895CF93DF938C70C82FD0E0D59548
:10071000C795D595C7959C2FE0911801EE0FEE0F68
:10072000EC2BF0E0E050FF4F80818130F9F0823017
:1007300039F0933061F0C0931801DF91CF910895A3
:10074000809117018150809317019330A1F7809118
:1007500017019EEF980F9830A0F0813F68F4109237
:100760001701C0931801DF91CF910895809117016F
:100770008F5F80931701DDCF0E94650310921701F0
:10078000F0CF0E944A0310921701EBCFCF93DF9373
:100790000E94500280931A01C82FD0E0CE010E941F
:1007A0008203CE01DF91CF910C940F031F920F9221
:1007B0000FB60F9211240BB60F922F933F934F93C6
:1007C0005F936F937F938F939F93AF93BF93CF93D9
:1007D000EF93FF93C0911B01CF5FC0931B018C2F40
:1007E0008F71D9F0C0FF16C00E947502FF91EF9182
:1007F000CF91BF91AF919F918F917F916F915F91B9
:100800004F913F912F910F900BBE0F900FBE0F9005
:100810001F9018950E94C603E9CF0E9458010E94BC
:100820005C02E0CF809121018C3310F01092210105
:1008300080912001883110F010922001089580915C
:100840002201803F50F087E18093220180912301B3
:100850008C3310F01092230108958831B8F3109270
:100860002201F4CF83B7816083BF80B7886080BFE7
:1008700085B58A6785BD87B7816487BF0895E1E63E
:10088000F0E0808180831092620087B1806687B932
:1008900086B18F6E86B98FEF83BD08958EB5826065
:1008A0008EBD08958EB58C7F8EBD0895A79A87B7AB
:1008B000806187BF88E08EBD8FEF9FEF9BBD8ABDB3
:1008C000089580EC82B91F9887EF87BB8A9A81E5EB
:1008D0008DB983B7816083BF80B7886080BF85B5DD
:1008E0008A6785BD87B7816487BF809161008093E7
:1008F00061001092620087B1806687B986B18F6E01
:1009000086B98FEF83BD78940E945C02FDCFA29FD1
:10091000B001B39FC001A39F700D811D1124911DD3
:10092000B29F700D811D1124911D0895F894FFCF81
:1009300000010200020000010100000200020100AB
:00000001FF
