S0110000746573745F70726F672E737265633C
S11300000C94C7010C94E6010C94E6010C94E601EF
S11300100C94E6010C94E6010C94E6010C94E601C0
S11300200C94E6010C94E6010C94BD0F0C94E601CB
S11300300C94340C0C94E6010C94E6010C94E60147
S11300400C94A30D0C94E6010C94E6010C94E601C7
S11300500C94E6010C94D00D0C94E6010C94E6018A
S11300600C94E6010C94E6010C94E6010C94E60170
S11300700C94E6010C94E6010C94E6010C94E60160
S11300800C94E6010C94E6010C94E60122022A0287
S113009032023A0242024B02540212021A02A8032A
S11300A0A0039B03C503B803C003B0037903710322
S11300B06C036403CD03810357033F03ED039603ED
S11300C08E0386030D044703FD034F031A04E5035F
S11300D005045F03DD03D503F5033A0308030003B6
S11300E010031204F302EB021503CE023203FB02E7
S11300F0DE02D6022203E6021A03C602AC022A0377
S11301009C029402B902B102BE028F02A4027702D9
S1130110870272026A0262025D027F0224054205BE
S11301201E05300512051805120518054805240595
S113013042051E0530052A050C052A050C05720525
S1130140AE056605DE056605A2059C050C05780569
S11301500C058A053605CC051205C0054E05C605F5
S11301605405D20596053C0536057E055A05240539
S113017042051E0530051205180512051805480527
S11301802405A8053C051E052A050C052A050C05B1
S11301907205B40584054805BA0578054E0554056D
S11301A036053C05D8055A05F6051A06F005140669
S11301B098069206F0051A062006FC05A406F0052A
S11301C0F6051406F0055C06F0050806F605380683
S11301D02006FC053206B60608062606C206740684
S11301E026068C06F005F6051406F0055606FC05F1
S11301F01A06F0050806F60538062006FC05B006C2
S11302004A0644060E063E062C060E0680068606A0
S11302107A064A0644060E063E062C069E06AA06E2
S1130220320662066806720B660B600B540B4E0BAB
S1130230420B3C0B360B300B2A0B1E0B180B120B0C
S1130240060B000BF40AEE0AE20ADC0AD00ACA0A18
S1130250C40ABE0AB80AAC0AA60AA00A9A0A940AF0
S1130260880A820A760A700A6A0A640A580A520AD2
S1130270460A400A340A2E0A220A1C0A100A0A0AEA
S1130280FE09F809F209EC09E609DA09D409CE09EC
S1130290C809C209B609B009A4099E0998099209B6
S11302A0860980097A0974096E0962095C09500992
S11302B04A0944093E0932092C092609200914096E
S11302C00E0908090209FC08F008EA08DE08D80843
S11302D0CC08C608BA08B408A808A2089C0896085E
S11302E0900884087E0872086C0866086008540840
S11302F04E08480842083608300824081E08120828
S11303000C080008FA07EE07E807DC07D607CA0757
S1130310C407BE07B807B207A607A0079A078E0747
S113032088077C0776076A076407580752074C0753
S113033046073A0734072807220716071007040759
S1130340FE06F806F206EC06E006DA06D406780B9A
S1130350A20B900BA20B900BA20B900BC60B900B55
S1130360C60BAE0B9C0BDE0B9C0BCC0BBA0BA80B79
S1130370900BA80B900BA80B900BC00B900BC00B11
S1130380AE0BD20BD80B900B9C0BE40BBA0B1124C5
S11303901FBECFEFD0E1DEBFCDBF11E0A0E0B1E0E2
S11303A0ECEEF0E200E00BBF02C007900D92A0312A
S11303B0B107D9F721E0A0E1B1E001C01D92AF334C
S11303C0B207E1F70E943E100C9474100C940000E4
S11303D0929A109238011092370190E0909336016E
S11303E0809335010895CF9392981092380110921A
S11303F0370130E0309336012093350150E0493025
S1130400510520F01BBC1ABCCF9108954A5B5F4F85
S1130410FA01992787FD9095A92FB92F8154910945
S11304200C945F108730910578F7815B9F4FFC0136
S11304300C945F108730910538F78A5A9F4FFC015E
S11304400C945F1087309105F8F6835A9F4FFC0196
S11304500C945F1087309105B8F68C599F4FFC01BE
S11304600C945F108730910578F685599F4FFC01F5
S11304700C945F108730910538F68E589F4FFC011D
S11304800C945F108730910508F0BECF87589F4FBA
S1130490FC010C945F108730910508F0B5CF8058AB
S11304A09F4FFC010C945F108730910508F0ACCF8E
S11304B089579F4FFC010C945F1088E590E09BBD29
S11304C08ABDA2CF662309F40FC283E690E09BBDE8
S11304D08ABD9ACF662309F411C28FE690E09BBDD2
S11304E08ABD92CF86E790E09BBD8ABD8DCF6623FF
S11304F009F4FFC18AE490E09BBD8ABD85CF6623E1
S113050009F401C283E590E09BBD8ABD7DCF6623DB
S113051009F4B8C182E490E09BBD8ABD75CF81EB3C
S113052090E09BBD8ABD70CF662309F4D3C185E8F2
S113053090E09BBD8ABD68CF662309F4C1C185E9FB
S113054090E09BBD8ABD60CF662309F4BEC187EAF3
S113055090E09BBD8ABD58CF84E691E09BBD8ABDE7
S113056053CF662309F4BBC180EE90E09BBD8ABDE6
S11305704BCF8DEE90E09BBD8ABD46CF662309F438
S11305808BC187EC90E09BBD8ABD3ECF662309F406
S113059074C180E991E09BBD8ABD36CF662309F41E
S11305A0CBC184E893E09BBD8ABD2ECF662309F4BA
S11305B0AFC18BE291E09BBD8ABD26CF662309F4CF
S11305C0B1C182EA92E09BBD8ABD1ECF8CED91E061
S11305D09BBD8ABD19CF662309F459C187E192E016
S11305E09BBD8ABD11CF662309F4B0C188E592E0B2
S11305F09BBD8ABD09CF8AEC92E09BBD8ABD04CF26
S1130600662309F435C186E496E09BBD8ABDFCCE21
S1130610662309F482C18AE097E09BBD8ABDF4CECB
S113062086E995E09BBD8ABDEFCE8AEB93E09BBD46
S11306308ABDEACE662309F47AC181EC91E09BBDC0
S11306408ABDE2CE662309F47CC18BE091E09BBDB8
S11306508ABDDACE662309F47EC180E591E09BBDB4
S11306608ABDD2CE662309F4ADC182E293E09BBD7C
S11306708ABDCACE86E797E09BBD8ABDC5CE6623F8
S113068009F40FC18EEC92E19BBD8ABDBDCE6623F9
S113069009F47AC18DE195E19BBD8ABDB5CE66238F
S11306A009F4DCC080E698E09BBD8ABDADCE66232C
S11306B009F492C180E190E09BBD8ABDA5CE8EE293
S11306C09BE09BBD8ABDA0CE662309F449C18BE1A2
S11306D090E09BBD8ABD98CE8CE190E09BBD8ABD25
S11306E093CE662309F441C187E090E09BBD8ABDA7
S11306F08BCE662309F4DAC08BE090E09BBD8ABD03
S113070083CE82E190E09BBD8ABD7ECE662309F450
S11307109BC089E199E19BBD8ABD76CE662309F42D
S113072029C180E39CE19BBD8ABD6ECE8CED9DE129
S11307309BBD8ABD69CE8AE390E09BBD8ABD64CE31
S1130740662309F435C180E290E09BBD8ABD5CCE8E
S1130750662309F432C184E290E09BBD8ABD54CE85
S1130760662309F476C089E290E09BBD8ABD4CCE35
S1130770662309F478C081E390E09BBD8ABD44CE32
S11307808BE290E09BBD8ABD3FCE662309F493C003
S113079087E390E09BBD8ABD37CE662309F44FC042
S11307A088E190E09BBD8ABD2FCE662309F4F6C094
S11307B082EB94E09BBD8ABD27CE662309F416C163
S11307C08DE89AE09BBD8ABD1FCE662309F4D7C08D
S11307D086E19EE09BBD8ABD17CE662309F4F7C06F
S11307E080EC90E19BBD8ABD0FCE662309F4D1C095
S11307F08FE294E09BBD8ABD07CE662309F4F1C065
S113080087E699E09BBD8ABDFFCD662309F4CBC082
S11308108DE89CE09BBD8ABDF7CD8DE596E19BBD3F
S11308208ABDF2CD662309F4E6C086E495E09BBD5B
S11308308ABDEACD8DEE9EE09BBD8ABDE5CD85E106
S113084090E09BBD8ABDE0CD82EB97E19BBD8ABD64
S1130850DBCD86E290E09BBD8ABDD6CD87EE97E0E6
S11308609BBD8ABDD1CD8EE290E09BBD8ABDCCCD2F
S11308708BEE95E09BBD8ABDC7CD8AE791E09BBD19
S11308808ABDC2CD8EE390E09BBD8ABDBDCD89EF0C
S113089091E09BBD8ABDB8CD8CEB90E09BBD8ABD39
S11308A0B3CD80EC91E19BBD8ABDAECD89E090E0F3
S11308B09BBD8ABDA9CD84E390E09BBD8ABDA4CD38
S11308C08DE890E09BBD8ABD9FCD8EE990E09BBDF5
S11308D08ABD9ACD8DE790E09BBD8ABD95CD83ED11
S11308E090E09BBD8ABD90CD8DE590E09BBD8ABD17
S11308F08BCD86E490E09BBD8ABD86CD89E690E0F1
S11309009BBD8ABD81CD8EE490E09BBD8ABD7CCD2C
S11309108BE191E09BBD8ABD77CD85EA96E09BBDD6
S11309208ABD72CD8CE792E09BBD8ABD6DCD88EA0D
S113093091E09BBD8ABD68CD82E593E09BBD8ABDF5
S113094063CD8CEF90E09BBD8ABD5ECD87E392E0E2
S11309509BBD8ABD59CD8DE391E09BBD8ABD54CD2D
S113096089E190E09BBD8ABD4FCD85E090E09BBDC1
S11309708ABD4ACD8AE99AE19BBD8ABD45CD8CE406
S11309809DE09BBD8ABD40CD8DEE93E19BBD8ABDAC
S11309903BCD83EF93E09BBD8ABD36CD8FE694E0DB
S11309A09BBD8ABD31CD88ED9BE09BBD8ABD2CCD1E
S11309B08EE190E09BBD8ABD27CD82E290E09BBD95
S11309C08ABD22CD85EF92E09BBD8ABD1DCD80ED11
S11309D09FE09BBD8ABD18CD8DE090E09BBD8ABD94
S11309E013CD8FED98E09BBD8ABD0ECD86EF99E0C7
S11309F09BBD8ABD09CD8AEF94E09BBD8ABD04CD21
S1130A008634910520F08FEF809327010895FC012F
S1130A10E257FF4F0C945F1022E044E060E081E471
S1130A200C94F30126E044E060E081E40C94F301CB
S1130A3022E044E061E081E40C94F30128E044E026
S1130A4060E084E40C94F30128E044E060E086E490
S1130A500C94F30126E044E061E082E40C94F30199
S1130A6028E044E060E083E40C94F30128E044E0EF
S1130A7060E081E40C94F30128E044E060E087E462
S1130A800C94F30128E044E060E085E40C94F30165
S1130A9020E144E060E081E40C94F30124E045E0CB
S1130AA060E083E40C94F30124E045E060E084E436
S1130AB00C94F301929A109238011092370188E055
S1130AC090E090933601809335010895929A1092A4
S1130AD038011092370181E090E0909336018093C1
S1130AE03501089520E144E061E082E40C94F301CF
S1130AF028E044E061E082E40C94F30128E144E05E
S1130B0060E087E40C94F30120E145E060E084E4D4
S1130B100C94F301929A109238011092370182E0FA
S1130B2090E09093360180933501089524E044E0E9
S1130B3060E081E40C94F30126E044E060E087E4A3
S1130B400C94F30124E044E061E087E40C94F301A5
S1130B5028E044E061E087E40C94F30123E044E0FE
S1130B6060E087E40C94F30120E144E060E084E475
S1130B700C94F30120E145E060E083E40C94F3017C
S1130B8022E044E061E082E40C94F30124E045E0D7
S1130B9061E084E40C94F30124E044E061E081E446
S1130BA00C94F30128E044E060E082E40C94F30147
S1130BB028E144E060E086E40C94F30127E044E09B
S1130BC060E087E40C94F3018F33910520F08FEFFC
S1130BD0809327010895FC01EC52FF4F0C945F10A1
S1130BE024E044E060E083E40C94F30128E044E072
S1130BF060E085E40C94F301929A1092380110920B
S1130C00370181E090E09093360180933501089597
S1130C1028E044E060E084E40C94F30120E143E044
S1130C2060E083E40C94F30124E044E060E084E4B5
S1130C300C94F30124E043E060E082E40C94F301BB
S1130C4027E043E060E081E40C94F30124E044E015
S1130C5060E086E40C94F30120E142E060E082E489
S1130C600C94F30120E143E060E081E40C94F3018F
S1130C7028E044E060E083E40C94F30120E143E0E5
S1130C8060E084E40C94F30120E143E060E085E457
S1130C900C94F301929A109238011092370188E073
S1130CA090E09093360180933501089527E043E066
S1130CB060E082E40C94F3012CE043E060E082E421
S1130CC00C94F30120E143E061E081E40C94F3012E
S1130CD0929A109238011092370180E190E090933B
S1130CE0360180933501089524E044E060E087E410
S1130CF00C94F30128E042E060E082E40C94F301F8
S1130D0020E142E060E081E40C94F30120E142E060
S1130D1061E081E40C94F3012CE044E060E085E4BC
S1130D200C94F30122E044E060E084E40C94F301C9
S1130D3022E044E060E085E40C94F30128E043E021
S1130D4060E083E40C94F30124E043E060E081E498
S1130D500C94F30128E043E060E085E40C94F30193
S1130D6028E043E060E081E40C94F301929A10924D
S1130D7038011092370184E090E09093360180931B
S1130D803501089528E044E060E081E40C94F30127
S1130D908539910520F08FEF809327010895FC0198
S1130DA0ED5EFE4F0C945F1024E043E060E087E4C6
S1130DB00C94F30122E043E060E081E40C94F3013D
S1130DC0929A109238011092370182E090E0909349
S1130DD0360180933501089522E044E060E083E425
S1130DE00C94F30122E044E060E085E40C94F30108
S1130DF024E044E060E084E40C94F30122E044E065
S1130E0060E083E40C94F301929A109238011092FA
S1130E10370182E090E09093360180933501089584
S1130E2022E044E060E083E40C94F301929A10928F
S1130E3038011092370182E090E09093360180935C
S1130E403501089522E044E060E083E40C94F3016A
S1130E50929A109238011092370181E090E09093B9
S1130E60360180933501089522E044E060E083E494
S1130E700C94F301929A109238011092370180E198
S1130E8090E09093360180933501089522E044E088
S1130E9060E085E40C94F30122E044E060E084E443
S1130EA00C94F30122E044E060E083E40C94F30149
S1130EB0929A109238011092370182E090E0909358
S1130EC0360180933501089522E044E060E083E434
S1130ED00C94F301929A109238011092370182E037
S1130EE090E09093360180933501089522E044E028
S1130EF060E083E40C94F301929A1092380110920A
S1130F00370181E090E09093360180933501089594
S1130F1022E044E060E083E40C94F301929A10929E
S1130F2038011092370184E090E090933601809369
S1130F303501089524E043E060E087E40C94F30174
S1130F4022E043E060E081E40C94F301929A109271
S1130F5038011092370182E090E09093360180933B
S1130F603501089522E044E060E083E40C94F30149
S1130F7022E044E060E085E40C94F30124E044E0E2
S1130F8060E084E40C94F30122E044E060E083E454
S1130F900C94F301929A109238011092370182E076
S1130FA090E09093360180933501089522E044E067
S1130FB060E083E40C94F301929A10923801109249
S1130FC0370182E090E090933601809335010895D3
S1130FD022E044E060E083E40C94F301929A1092DE
S1130FE038011092370181E090E0909336018093AC
S1130FF03501089522E044E060E083E40C94F301B9
S1131000929A10923801109237018AE090E09093FE
S1131010360180933501089524E044E060E083E4E0
S11310200C94F301929A109238011092370184E0E3
S113103090E09093360180933501089522E044E0D6
S113104060E084E40C94F301929A109238011092B7
S1131050370182E090E09093360180933501089542
S113106024E044E061E085E40C94F301929A109248
S113107038011092370184E090E090933601809318
S11310803501089522E044E060E084E40C94F30127
S113109022E044E060E083E40C94F30122E043E0C6
S11310A060E081E40C94F301929A1092380110925A
S11310B0370182E090E090933601809335010895E2
S11310C022E044E060E083E40C94F30122E043E096
S11310D060E081E40C94F30122E043E061E081E408
S11310E00C94F301929A109238011092370182E025
S11310F090E09093360180933501089522E044E016
S113110060E085E40C94F301929A109238011092F5
S1131110370182E090E09093360180933501089581
S113112022E044E061E085E40C94F30122E044E031
S113113060E086E40C94F30122E044E061E087E49B
S11311400C94F30122E044E060E087E40C94F301A2
S1131150929A109238011092370188E090E09093AF
S1131160360180933501089524E044E060E087E48B
S11311700C94F301929A109238011092370181E095
S113118090E09093360180933501089521E044E086
S113119060E087E40C94F301929A10923801109263
S11311A0370182E090E090933601809335010895F1
S11311B022E044E060E087E40C94F301929A1092F8
S11311C038011092370182E090E0909336018093C9
S11311D03501089522E043E060E085E40C94F301D6
S11311E0929A109238011092370182E090E0909325
S11311F0360180933501089522E043E061E085E4FF
S11312000C94F30122E043E060E086E40C94F301E3
S113121022E043E061E087E40C94F30122E043E040
S113122060E087E40C94F301929A109238011092D2
S1131230370184E090E0909336018093350108955E
S113124022E044E060E084E40C94F30122E044E012
S113125060E083E40C94F30122E043E060E081E485
S11312600C94F301929A109238011092370182E0A3
S113127090E09093360180933501089522E044E094
S113128060E083E40C94F30122E043E060E081E455
S11312900C94F30122E043E061E081E40C94F30157
S11312A0929A109238011092370182E090E0909364
S11312B0360180933501089522E044E060E085E43E
S11312C00C94F301929A109238011092370182E043
S11312D090E09093360180933501089522E044E034
S11312E061E085E40C94F30122E044E060E086E4EC
S11312F00C94F30122E044E061E087E40C94F301F0
S113130022E044E060E087E40C94F301929A1092A6
S113131038011092370188E090E090933601809371
S11313203501089522E043E060E082E40C94F30187
S113133022E044E060E084E40C94F30122E044E021
S113134060E083E40C94F301929A109238011092B5
S1131350370182E090E0909336018093350108953F
S113136022E044E060E085E40C94F301929A109248
S113137038011092370182E090E090933601809317
S11313803501089522E044E060E087E40C94F30121
S113139022E044E060E086E40C94F30124E044E0BD
S11313A060E081E40C94F30122E044E060E087E42F
S11313B00C94F301929A109238011092370181E053
S11313C090E09093360180933501089522E044E043
S11313D060E085E40C94F30123E043E060E087E4FB
S11313E00C94F30124E043E060E081E40C94F30105
S11313F022E043E061E082E40C94F301929A1092BB
S113140038011092370182E090E090933601809386
S11314103501089522E043E060E082E40C94F30196
S1131420929A109238011092370182E090E09093E2
S1131430360180933501089522E043E060E081E4C1
S11314400C94F301929A109238011092370182E0C1
S113145090E09093360180933501089524E043E0B1
S113146060E085E40C94F301929A10923801109292
S1131470370183E090E0909336018093350108951D
S113148022E043E060E087E40C94F301929A109226
S113149038011092370182E090E0909336018093F6
S11314A03501089525E044E060E083E40C94F30101
S11314B0929A109238011092370184E090E0909350
S11314C0360180933501089522E043E060E082E430
S11314D00C94F30122E044E060E084E40C94F30112
S11314E022E044E060E083E40C94F301929A1092C9
S11314F038011092370182E090E090933601809396
S11315003501089522E044E060E085E40C94F301A1
S1131510929A109238011092370182E090E09093F1
S1131520360180933501089522E044E060E087E4C9
S11315300C94F30122E044E060E086E40C94F301AF
S113154024E044E060E081E40C94F30122E044E010
S113155060E087E40C94F301929A1092380110929F
S1131560370181E090E0909336018093350108952E
S113157022E044E060E085E40C94F30123E043E0DE
S113158060E087E40C94F30124E043E060E081E44C
S11315900C94F30122E043E061E082E40C94F30153
S11315A0929A109238011092370182E090E0909361
S11315B0360180933501089522E043E060E082E43F
S11315C00C94F301929A109238011092370182E040
S11315D090E09093360180933501089522E043E032
S11315E060E081E40C94F301929A10923801109215
S11315F0370182E090E0909336018093350108959D
S113160024E043E060E085E40C94F301929A1092A4
S113161038011092370184E090E090933601809372
S11316203501089522E043E060E087E40C94F3017F
S113163025E044E060E083E40C94F301929A109274
S113164038011092370188E090E09093360180933E
S11316503501089528E042E060E087E40C94F3014A
S113166028E044E060E087E40C94F30124E044E0E3
S113167060E085E40C94F30122E044E060E083E45C
S11316800C94F301929A109238011092370182E07F
S113169090E09093360180933501089522E044E070
S11316A060E085E40C94F301929A10923801109250
S11316B0370181E090E090933601809335010895DD
S11316C023E044E060E085E40C94F301929A1092E4
S11316D038011092370181E090E0909336018093B5
S11316E03501089521E044E060E085E40C94F301C1
S11316F0929A109238011092370188E090E090930A
S113170036018093350108958F31910520F08FEFD4
S1131710809327010895FC01E855FE4F0C945F1057
S1131720929A109238011092370181E090E09093E0
S1131730360180933501089524E045E060E085E4B6
S11317400C94F30127E044E060E085E40C94F30199
S113175027E044E061E085E40C94F301929A10924E
S113176038011092370185E090E090933601809320
S11317703501089528E045E060E085E40C94F30128
S113178023E044E061E085E40C94F30123E044E0C9
S113179060E085E40C94F30128E045E060E087E430
S11317A00C94F30124E045E061E085E40C94F3013A
S11317B023E045E060E085E40C94F30124E045E097
S11317C061E087E40C94F30128E045E061E087E4FC
S11317D00C94F301813089F060F0823031F0833071
S11317E041F4862F90E00C94840B862F90E00C94A7
S11317F0C806862F90E00C940005862F90E00C9488
S1131800E405109227018EB58C7F8EBD929A0895BF
S1131810109227018EB583608EBD92986091270146
S1131820809134010C94EA0B87B7806187BF1FBC99
S11318308EB588608EBD10927A0081E390E09BBDE6
S11318408ABD109227018EB58C7F8EBD929A10921C
S1131850380110923701109236011092350110921E
S113186027011092340108951F920F920FB60F9220
S113187011240BB60F922F933F934F935F936F9363
S11318807F938F939F93AF93BF93EF93FF9382B311
S1131890805882BB20913701309138018091350105
S11318A0909136012817390758F0809127018F5FEE
S11318B08093270160912701809134010E94EA0BF3
S11318C0FF91EF91BF91AF919F918F917F916F9114
S11318D05F914F913F912F910F900BBE0F900FBED0
S11318E00F901F90189520911E0130911F01220F17
S11318F0331F49B350E002C0559547958A95E2F7E6
S113190040FD0EC081E090EE282B392B30931F014F
S113191020931E0181E02115304F09F080E00895E5
S113192080E090EEF1CF811102C080EC0895813007
S113193091F0823091F08330A1F0843081F08530D1
S113194091F0863091F0873091F0883091F08930B1
S113195091F080E0089589EF089584EA089589E973
S1131960089580EB089582E9089582E8089588EF48
S1131970089580E8089580E908950F931F93CF9305
S1131980DF93EC018091200180FF79C08CEF80937C
S11319903C019E01ADECBCEC0E94651096958795C8
S11319A096958795969587953C2F2AE0829F3019C6
S11319B01124832F0E94930C80933A019E01369543
S11319C0279536952795ABE7B4E10E946510969567
S11319D0879544E6489F9001499F300D1124CE011C
S11319E0821B930B9C01ADECBCEC0E946510969598
S11319F0879596958795969587950E94930C8093E5
S1131A003B019E0136952795369527953695279562
S1131A10A5ECB0E20E9465108C01129502950F703E
S1131A2001271F70012728EE33E0029FC001039FA6
S1131A30900D129F900D11249E01281B390B369591
S1131A40279536952795ABE7B4E10E9465109695E6
S1131A5087950E94930C80933D01802F0E94930CE4
S1131A6080933E01809126018330F9F0823029F180
S1131A70813049F0DF91CF911F910F9108958FEF3D
S1131A8080933C0186CF80911001882399F38FEFD6
S1131A9080933E0180933D0180933B0180933A0102
S1131AA0DF91CF911F910F9108958FEF80933C01A7
S1131AB0DF91CF911F910F91089510923C01DF9116
S1131AC0CF911F910F9108951ABA8FEF8BBB00002D
S1131AD0000088B3806788BB00000000E091260105
S1131AE0F0E020911E0130911F0181E090E0A901F6
S1131AF0440F551F29B330E0BC016150710902C085
S1131B00359527956A95E2F720FD11C021E030EE66
S1131B10242B352B30931F0120931E01211540EFF8
S1131B20340741F001968530910509F7089520E0C6
S1131B3030EEEECF8E179F0719F080932601F2CF77
S1131B401092260108951F920F920FB60F9211243E
S1131B502F938F939F9380911D018F5F80931D011D
S1131B60982F9F7139F491E020911001211116C032
S1131B70909310018F7751F4809120018F5F8093AF
S1131B802001809125018F5F809325019F918F9182
S1131B902F910F900FBE0F901F90189590E0E8CFF3
S1131BA01F920F920FB60F9211248F939F9385B1BA
S1131BB0843648F081E083BD9F918F910F900FBED2
S1131BC00F901F90189595B184E6891B83BD9F9152
S1131BD08F910F900FBE0F901F9018958091250143
S1131BE08C3310F580912401209123018C3338F536
S1131BF090E0283168F11092230120E030E0820F58
S1131C00931F9093150180931401209121018091D9
S1131C10220190E034E6239F800D911D11249093BE
S1131C201301809312010895809124018F5F8093A2
S1131C30240110922501209123018C33C8F22F5FD7
S1131C40209323011092240180E090E0283198F63B
S1131C5044E6249F90011124D2CF81E58DB90895E3
S1131C608FB9779BFECF089583B113B800000000AD
S1131C701FB81E9A00000000779BFECF8FB1089515
S1131C808091260181110EC0109211018FB9779BAA
S1131C90FECF84E082BB0000000088E082BB00002D
S1131CA000000895823061F02FEF280F81E090E06A
S1131CB0022E01C0880F0A94EAF780931101E6CF3F
S1131CC08FEF80931101E2CF8FEF8ABB00000000F9
S1131CD080912601813019F110F18230C9F08330EE
S1131CE021F485B190E00E94BD0CEAE3F1E080E0CC
S1131CF02FEF982F9295907F98BB91919BBB95E382
S1131D009A95F1F700002BBB8F5F853091F708950A
S1131D1080911201909113010E94BD0CE6CF809135
S1131D201401909115010E94BD0CDFCF8130910503
S1131D3069F0029709F008958091390181508093E8
S1131D403901803FC0F3109239010895809139011F
S1131D50893020F089E08093390108958F5F809362
S1131D603901089580912601813059F0823041F47F
S1131D70809122018F5F8C3388F0109222010895A4
S1131D800895809124018F5F8C3358F010922401C0
S1131D90809125018F5F809325010895809322010E
S1131DA0089580932401809125018F5F80932501FC
S1131DB0089580912601813071F0823059F4809128
S1131DC02201815080932201803F18F08BE380939D
S1131DD02201089508958091240181508093240163
S1131DE0803FB8F38BE3809324010895CF93C82FE9
S1131DF0C370E0911701EE0FEE0FEC2BF0E0E05012
S1131E00FF4F80818130E9F0823031F0C33059F0E6
S1131E10C0931701CF91089580911601815080934A
S1131E201601C330A9F7809116019EEF980F9830E0
S1131E3098F0813F60F410921601C0931701CF917E
S1131E400895809116018F5F80931601DFCF0E9461
S1131E50D90E10921601F1CF0E94B20E1092160103
S1131E60ECCF80912601813069F0823051F4809169
S1131E7021018F5F80932101883110F0109221019C
S1131E8008950895809123018F5F80932301883101
S1131E90B8F310922301089580912601813071F0E6
S1131EA0823059F480912101815080932101803F37
S1131EB018F087E18093210108950895809123010A
S1131EC0815080932301803FB8F387E180932301FD
S1131ED00895CF93DF938C70C82FD0E0D595C79524
S1131EE0D595C7959C2FE0911901EE0FEE0FEC2BC1
S1131EF0F0E0E050FF4F80818130F9F0823039F01A
S1131F00933061F0C0931901DF91CF9108958091CE
S1131F1018018150809318019330A1F78091180122
S1131F209EEF980F9830A0F0813F68F4109218014A
S1131F30C0931901DF91CF910895809118018F5FAB
S1131F4080931801DDCF0E944C0F10921801F0CF3E
S1131F500E94310F10921801EBCFCF93DF930E94B0
S1131F60340E80931A01C82FD0E0CE010E94690F6D
S1131F70CE01DF91CF910C94F60E1F920F920FB603
S1131F800F9211240BB60F922F933F934F935F93AD
S1131F906F937F938F939F93AF93BF93EF93FF932D
S1131FA080911B0190911C01019690931C018093D8
S1131FB01B018770907897FD1DC081309105B9F0A1
S1131FC0029711F40E94640DFF91EF91BF91AF91BC
S1131FD09F918F917F916F915F914F913F912F913D
S1131FE00F900BBE0F900FBE0F901F9018950E947C
S1131FF0AD0FEACF0197886F9F6F0196DECF809176
S113200022018C3310F01092220180912101883139
S113201010F010922101089580912301803F50F027
S113202087E180932301809124018C3310F0109276
S1132030240108958831B8F310922301F4CF83B7B3
S1132040816083BF80B7886080BF85B58B6785BD9D
S113205087B7816487BF86B7806486BF0895E1E649
S1132060F0E0808180831092620087B1806687B936
S113207086B18F6E86B98FEF83BD089580EC82B9E7
S11320801F9887EF87BB8A9A81E58DB90E941F103C
S113209080916100809361001092620087B1806634
S11320A087B986B18F6E86B98FEF83BD7894C9E006
S11320B00E94400E0E94640EC0932401F9CFEE0FDB
S11320C0FF1F0590F491E02D0994A29FB001B39FE6
S11320D0C001A39F700D811D1124911DB29F700D2D
S10F20E0811D1124911D0895F894FFCF78
S11320EC00010200020000010100000200020100D4
S9030000FC
