:100000000C94C7010C94E6010C94E6010C94E601F3
:100010000C94E6010C94E6010C94E6010C94E601C4
:100020000C94E6010C94E6010C94F20F0C94E6019A
:100030000C943F0C0C94E6010C94E6010C94E60140
:100040000C94300E0C94E6010C94E6010C94E6013D
:100050000C94E6010C94C60D0C94E6010C94E60198
:100060000C94E6010C94E6010C94E6010C94E60174
:100070000C94E6010C94E6010C94E6010C94E60164
:100080000C94E6010C94E6010C94E6012D02350275
:100090003D0245024D0256025F021D022502B303D6
:1000A000AB03A603D003C303CB03BB0384037C03CE
:1000B00077036F03D8038C0362034A03F803A10399
:1000C000990391031804520308045A032504F0030A
:1000D00010046A03E803E0030004450313030B0361
:1000E0001B031D04FE02F6022003D9023D03060392
:1000F000E902E1022D03F1022503D102B702350323
:10010000A7029F02C402BC02C9029A02AF02820285
:1001100092027D0275026D0268028A022F054D056A
:1001200029053B051D0523051D05230553052F0541
:100130004D0529053B0535051705350517057D05D1
:10014000B9057105E9057105AD05A7051705830515
:10015000170595054105D7051D05CB055905D105A1
:100160005F05DD05A10547054105890565052F05E5
:100170004D0529053B051D0523051D0523055305D3
:100180002F05B3054705290535051705350517055D
:100190007D05BF058F055305C505830559055F0519
:1001A00041054705E305650501062506FB051F0614
:1001B000A3069D06FB0525062B060706AF06FB05D5
:1001C00001061F06FB056706FB051306010643062D
:1001D0002B0607063D06C10613063106CD067F062F
:1001E00031069706FB0501061F06FB05610607069B
:1001F0002506FB051306010643062B060706BB066C
:1002000055064F0619064906370619068B0691064C
:10021000850655064F06190649063706A906B5068E
:100220003D066D0673067D0B710B6B0B5F0B590B57
:100230004D0B470B410B3B0B350B290B230B1D0BB8
:10024000110B0B0BFF0AF90AED0AE70ADB0AD50AC4
:10025000CF0AC90AC30AB70AB10AAB0AA50A9F0A9C
:10026000930A8D0A810A7B0A750A6F0A630A5D0A7E
:10027000510A4B0A3F0A390A2D0A270A1B0A150A96
:10028000090A030AFD09F709F109E509DF09D90996
:10029000D309CD09C109BB09AF09A909A3099D0962
:1002A00091098B0985097F0979096D0967095B093E
:1002B00055094F0949093D09370931092B091F091A
:1002C000190913090D090709FB08F508E908E308EE
:1002D000D708D108C508BF08B308AD08A708A1080A
:1002E0009B088F0889087D08770871086B085F08EC
:1002F000590853084D0841083B082F0829081D08D4
:1003000017080B080508F907F307E707E107D50702
:10031000CF07C907C307BD07B107AB07A5079907F3
:1003200093078707810775076F0763075D075707FF
:10033000510745073F0733072D0721071B070F0705
:1003400009070307FD06F706EB06E506DF06830B44
:10035000AD0B9B0BAD0B9B0BAD0B9B0BD10B9B0B01
:10036000D10BB90BA70BE90BA70BD70BC50BB30B25
:100370009B0BB30B9B0BB30B9B0BCB0B9B0BCB0BBD
:10038000B90BDD0BE30B9B0BA70BEF0BC50B11247C
:100390001FBECFEFD0E1DEBFCDBF11E0A0E0B1E0E6
:1003A000ECEDF0E200E00BBF02C007900D92A0312F
:1003B000B107D9F721E0A0E1B1E001C01D92AD3352
:1003C000B207E1F70E943D100C946C100C940000F1
:1003D000809137018150803F18F0109237010895C5
:1003E000809337010895929A109236011092350148
:1003F00090E090933401809333010895CF939298C5
:10040000109236011092350130E030933401209380
:10041000330150E04930510520F01BBC1ABCCF918C
:1004200008954A5B5F4FFA01992787FD9095A92FA0
:10043000B92F815491090C9457108730910578F7A2
:10044000815B9F4FFC010C9457108730910538F762
:100450008A5A9F4FFC010C94571087309105F8F68B
:10046000835A9F4FFC010C94571087309105B8F6C2
:100470008C599F4FFC010C9457108730910578F6EA
:1004800085599F4FFC010C9457108730910538F621
:100490008E589F4FFC010C9457108730910508F03F
:1004A000BECF87589F4FFC010C94571087309105A1
:1004B00008F0B5CF80589F4FFC010C94571087303F
:1004C000910508F0ACCF89579F4FFC010C94571051
:1004D00088E590E09BBD8ABDA2CF662309F40FC2D8
:1004E00083E690E09BBD8ABD9ACF662309F411C2D2
:1004F0008FE690E09BBD8ABD92CF86E790E09BBDE2
:100500008ABD8DCF662309F4FFC18AE490E09BBDCC
:100510008ABD85CF662309F401C283E590E09BBDC7
:100520008ABD7DCF662309F4B8C182E490E09BBD0B
:100530008ABD75CF81EB90E09BBD8ABD70CF6623ED
:1005400009F4D3C185E890E09BBD8ABD68CF6623DE
:1005500009F4C1C185E990E09BBD8ABD60CF6623E7
:1005600009F4BEC187EA90E09BBD8ABD58CF84E6FE
:1005700091E09BBD8ABD53CF662309F4BBC180EED9
:1005800090E09BBD8ABD4BCF8DEE90E09BBD8ABDB8
:1005900046CF662309F48BC187EC90E09BBD8ABDF2
:1005A0003ECF662309F474C180E991E09BBD8ABD0A
:1005B00036CF662309F4CBC184E893E09BBD8ABDA6
:1005C0002ECF662309F4AFC18BE291E09BBD8ABDBB
:1005D00026CF662309F4B1C182EA92E09BBD8ABDB1
:1005E0001ECF8CED91E09BBD8ABD19CF662309F427
:1005F00059C187E192E09BBD8ABD11CF662309F402
:10060000B0C188E592E09BBD8ABD09CF8AEC92E03B
:100610009BBD8ABD04CF662309F435C186E496E00C
:100620009BBD8ABDFCCE662309F482C18AE097E0B7
:100630009BBD8ABDF4CE86E995E09BBD8ABDEFCE19
:100640008AEB93E09BBD8ABDEACE662309F47AC1AA
:1006500081EC91E09BBD8ABDE2CE662309F47CC1AA
:100660008BE091E09BBD8ABDDACE662309F47EC1A2
:1006700080E591E09BBD8ABDD2CE662309F4ADC171
:1006800082E293E09BBD8ABDCACE86E797E09BBD20
:100690008ABDC5CE662309F40FC18EEC92E19BBDE5
:1006A0008ABDBDCE662309F47AC18DE195E19BBD7B
:1006B0008ABDB5CE662309F4DCC080E698E09BBD18
:1006C0008ABDADCE662309F492C180E190E09BBD66
:1006D0008ABDA5CE8EE29BE09BBD8ABDA0CE6623DF
:1006E00009F449C18BE190E09BBD8ABD98CE8CE1B5
:1006F00090E09BBD8ABD93CE662309F441C187E09B
:1007000090E09BBD8ABD8BCE662309F4DAC08BE0F6
:1007100090E09BBD8ABD83CE82E190E09BBD8ABD07
:100720007ECE662309F49BC089E199E19BBD8ABD19
:1007300076CE662309F429C180E39CE19BBD8ABD86
:100740006ECE8CED9DE19BBD8ABD69CE8AE390E0C3
:100750009BBD8ABD64CE662309F435C180E290E07A
:100760009BBD8ABD5CCE662309F432C184E290E071
:100770009BBD8ABD54CE662309F476C089E290E021
:100780009BBD8ABD4CCE662309F478C081E390E01E
:100790009BBD8ABD44CE8BE290E09BBD8ABD3FCE1F
:1007A000662309F493C087E390E09BBD8ABD37CEF2
:1007B000662309F44FC088E190E09BBD8ABD2FCE2F
:1007C000662309F4F6C082EB94E09BBD8ABD27CE78
:1007D000662309F416C18DE89AE09BBD8ABD1FCE41
:1007E000662309F4D7C086E19EE09BBD8ABD17CE83
:1007F000662309F4F7C080EC90E19BBD8ABD0FCE63
:10080000662309F4D1C08FE294E09BBD8ABD07CE78
:10081000662309F4F1C087E699E09BBD8ABDFFCD50
:10082000662309F4CBC08DE89CE09BBD8ABDF7CD63
:100830008DE596E19BBD8ABDF2CD662309F4E6C045
:1008400086E495E09BBD8ABDEACD8DEE9EE09BBD22
:100850008ABDE5CD85E190E09BBD8ABDE0CD82EB10
:1008600097E19BBD8ABDDBCD86E290E09BBD8ABD52
:10087000D6CD87EE97E09BBD8ABDD1CD8EE290E0CC
:100880009BBD8ABDCCCD8BEE95E09BBD8ABDC7CD0F
:100890008AE791E09BBD8ABDC2CD8EE390E09BBD0F
:1008A0008ABDBDCD89EF91E09BBD8ABDB8CD8CEBF3
:1008B00090E09BBD8ABDB3CD80EC91E19BBD8ABD2C
:1008C000AECD89E090E09BBD8ABDA9CD84E390E0E8
:1008D0009BBD8ABDA4CD8DE890E09BBD8ABD9FCD18
:1008E0008EE990E09BBD8ABD9ACD8DE790E09BBDDF
:1008F0008ABD95CD83ED90E09BBD8ABD90CD8DE501
:1009000090E09BBD8ABD8BCD86E490E09BBD8ABD07
:1009100086CD89E690E09BBD8ABD81CD8EE490E0D6
:100920009BBD8ABD7CCD8BE191E09BBD8ABD77CD1F
:1009300085EA96E09BBD8ABD72CD8CE792E09BBDB7
:100940008ABD6DCD88EA91E09BBD8ABD68CD82E508
:1009500093E09BBD8ABD63CD8CEF90E09BBD8ABDCB
:100960005ECD87E392E09BBD8ABD59CD8DE391E0DA
:100970009BBD8ABD54CD89E190E09BBD8ABD4FCD22
:1009800085E090E09BBD8ABD4ACD8AE99AE19BBD96
:100990008ABD45CD8CE49DE09BBD8ABD40CD8DEEEA
:1009A00093E19BBD8ABD3BCD83EF93E09BBD8ABDA8
:1009B00036CD8FE694E09BBD8ABD31CD88ED9BE0BE
:1009C0009BBD8ABD2CCD8EE190E09BBD8ABD27CD1D
:1009D00082E290E09BBD8ABD22CD85EF92E09BBD77
:1009E0008ABD1DCD80ED9FE09BBD8ABD18CD8DE0F9
:1009F00090E09BBD8ABD13CD8FED98E09BBD8ABD75
:100A00000ECD86EF99E09BBD8ABD09CD8AEF94E0BB
:100A10009BBD8ABD04CD8634910520F08FEF809375
:100A200025010895FC01E257FF4F0C94571022E076
:100A300044E060E081E40C94FE0126E044E060E0E4
:100A400081E40C94FE0122E044E061E081E40C9436
:100A5000FE0128E044E060E084E40C94FE0128E01C
:100A600044E060E086E40C94FE0126E044E061E0AE
:100A700082E40C94FE0128E044E060E083E40C94FE
:100A8000FE0128E044E060E081E40C94FE0128E0EF
:100A900044E060E087E40C94FE0128E044E060E07C
:100AA00085E40C94FE0120E144E060E081E40C94D4
:100AB000FE0124E045E060E083E40C94FE0124E0C4
:100AC00045E060E084E40C94FE01929A10923601B5
:100AD0001092350188E090E09093340180933301C7
:100AE0000895929A109236011092350181E090E0BB
:100AF0009093340180933301089520E144E061E054
:100B000082E40C94FE0128E044E061E082E40C946D
:100B1000FE0128E144E060E087E40C94FE0120E15E
:100B200045E060E084E40C94FE01929A1092360154
:100B30001092350182E090E090933401809333016C
:100B4000089524E044E060E081E40C94FE0126E096
:100B500044E060E087E40C94FE0124E044E061E0BE
:100B600087E40C94FE0128E044E061E087E40C9403
:100B7000FE0123E044E060E087E40C94FE0120E104
:100B800044E060E084E40C94FE0120E145E060E094
:100B900083E40C94FE0122E044E061E082E40C94E2
:100BA000FE0124E045E061E084E40C94FE0124E0D1
:100BB00044E061E081E40C94FE0128E044E060E060
:100BC00082E40C94FE0128E144E060E086E40C94A9
:100BD000FE0127E044E060E087E40C94FE018F33DF
:100BE000910520F08FEF809325010895FC01EC52D0
:100BF000FF4F0C94571024E044E060E083E40C9431
:100C0000FE0128E044E060E085E40C94FE01929A45
:100C1000109236011092350181E090E090933401FA
:100C200080933301089528E044E060E084E40C946C
:100C3000FE0120E143E060E083E40C94FE0124E047
:100C400044E060E084E40C94FE0124E043E060E0D2
:100C500082E40C94FE0127E043E060E081E40C9420
:100C6000FE0124E044E060E086E40C94FE0120E113
:100C700042E060E082E40C94FE0120E143E060E0A9
:100C800081E40C94FE0128E044E060E083E40C94ED
:100C9000FE0120E143E060E084E40C94FE0120E1E9
:100CA00043E060E085E40C94FE01929A10923601D4
:100CB0001092350188E090E09093340180933301E5
:100CC000089527E043E060E082E40C94FE012CE00C
:100CD00043E060E082E40C94FE0120E143E061E047
:100CE00081E40C94FE01929A109236011092350123
:100CF00080E190E09093340180933301089524E0E3
:100D000044E060E087E40C94FE0128E042E060E00B
:100D100082E40C94FE0120E142E060E081E40C9466
:100D2000FE0120E142E061E081E40C94FE012CE050
:100D300044E060E085E40C94FE0122E044E060E0E1
:100D400084E40C94FE0122E044E060E085E40C942D
:100D5000FE0128E043E060E083E40C94FE0124E01F
:100D600043E060E081E40C94FE0128E043E060E0B1
:100D700085E40C94FE0128E043E060E081E40C94FB
:100D8000FE01929A109236011092350184E090E0B3
:100D90009093340180933301089528E044E060E0AB
:100DA00081E40C94FE018539910520F08FEF80934A
:100DB00025010895FC01ED5EFE4F0C94571024E0D0
:100DC00043E060E087E40C94FE0122E043E060E051
:100DD00081E40C94FE01929A109236011092350132
:100DE00082E090E09093340180933301089522E0F3
:100DF00044E060E083E40C94FE0122E044E060E023
:100E000085E40C94FE0124E044E060E084E40C946A
:100E1000FE0122E044E060E083E40C94FE01929A3B
:100E2000109236011092350182E090E090933401E7
:100E300080933301089522E044E060E083E40C9461
:100E4000FE01929A109236011092350182E090E0F4
:100E50009093340180933301089522E044E060E0F0
:100E600083E40C94FE01929A10923601109235019F
:100E700081E090E09093340180933301089522E063
:100E800044E060E083E40C94FE01929A10923601F3
:100E90001092350180E190E090933401809333010A
:100EA000089522E044E060E085E40C94FE0122E035
:100EB00044E060E084E40C94FE0122E044E060E061
:100EC00083E40C94FE01929A10923601109235013F
:100ED00082E090E09093340180933301089522E002
:100EE00044E060E083E40C94FE01929A1092360193
:100EF0001092350182E090E09093340180933301A9
:100F0000089522E044E060E083E40C94FE01929AAC
:100F1000109236011092350181E090E090933401F7
:100F200080933301089522E044E060E083E40C9470
:100F3000FE01929A109236011092350184E090E001
:100F40009093340180933301089524E043E060E0FE
:100F500087E40C94FE0122E043E060E081E40C941D
:100F6000FE01929A109236011092350182E090E0D3
:100F70009093340180933301089522E044E060E0CF
:100F800083E40C94FE0122E044E060E085E40C94EC
:100F9000FE0124E044E060E084E40C94FE0122E0E1
:100FA00044E060E083E40C94FE01929A10923601D2
:100FB0001092350182E090E09093340180933301E8
:100FC000089522E044E060E083E40C94FE01929AEC
:100FD000109236011092350182E090E09093340136
:100FE00080933301089522E044E060E083E40C94B0
:100FF000FE01929A109236011092350181E090E044
:101000009093340180933301089522E044E060E03E
:1010100083E40C94FE01929A1092360110923501ED
:101020008AE090E09093340180933301089524E0A6
:1010300044E060E083E40C94FE01929A1092360141
:101040001092350184E090E0909334018093330155
:10105000089522E044E060E084E40C94FE01929A5A
:10106000109236011092350182E090E090933401A5
:1010700080933301089524E044E061E085E40C941A
:10108000FE01929A109236011092350184E090E0B0
:101090009093340180933301089522E044E060E0AE
:1010A00084E40C94FE0122E044E060E083E40C94CC
:1010B000FE0122E043E060E081E40C94FE01929A9C
:1010C000109236011092350182E090E09093340145
:1010D00080933301089522E044E060E083E40C94BF
:1010E000FE0122E043E060E081E40C94FE0122E096
:1010F00043E061E081E40C94FE01929A1092360183
:101100001092350182E090E0909334018093330196
:10111000089522E044E060E085E40C94FE01929A98
:10112000109236011092350182E090E090933401E4
:1011300080933301089522E044E061E085E40C945B
:10114000FE0122E044E060E086E40C94FE0122E02F
:1011500044E061E087E40C94FE0122E044E060E0BA
:1011600087E40C94FE01929A109236011092350198
:1011700088E090E09093340180933301089524E057
:1011800044E060E087E40C94FE01929A10923601EC
:101190001092350181E090E0909334018093330107
:1011A000089521E044E060E087E40C94FE01929A07
:1011B000109236011092350182E090E09093340154
:1011C00080933301089522E044E060E087E40C94CA
:1011D000FE01929A109236011092350182E090E061
:1011E0009093340180933301089522E043E060E05E
:1011F00085E40C94FE01929A10923601109235010A
:1012000082E090E09093340180933301089522E0CE
:1012100043E061E085E40C94FE0122E043E060E0FD
:1012200086E40C94FE0122E043E061E087E40C9444
:10123000FE0122E043E060E087E40C94FE01929A14
:10124000109236011092350184E090E090933401C1
:1012500080933301089522E044E060E084E40C943C
:10126000FE0122E044E060E083E40C94FE0122E011
:1012700043E060E081E40C94FE01929A1092360102
:101280001092350182E090E0909334018093330115
:10129000089522E044E060E083E40C94FE0122E043
:1012A00043E060E081E40C94FE0122E043E061E071
:1012B00081E40C94FE01929A10923601109235014D
:1012C00082E090E09093340180933301089522E00E
:1012D00044E060E085E40C94FE01929A109236019D
:1012E0001092350182E090E09093340180933301B5
:1012F000089522E044E061E085E40C94FE0122E0E0
:1013000044E060E086E40C94FE0122E044E061E009
:1013100087E40C94FE0122E044E060E087E40C9452
:10132000FE01929A109236011092350188E090E009
:101330009093340180933301089522E043E060E00C
:1013400082E40C94FE0122E044E060E084E40C942A
:10135000FE0122E044E060E083E40C94FE01929AF6
:10136000109236011092350182E090E090933401A2
:1013700080933301089522E044E060E085E40C941A
:10138000FE01929A109236011092350182E090E0AF
:101390009093340180933301089522E044E060E0AB
:1013A00087E40C94FE0122E044E060E086E40C94C3
:1013B000FE0124E044E060E081E40C94FE0122E0C0
:1013C00044E060E087E40C94FE01929A10923601AA
:1013D0001092350181E090E09093340180933301C5
:1013E000089522E044E060E085E40C94FE0123E0EF
:1013F00043E060E087E40C94FE0124E043E060E019
:1014000081E40C94FE0122E043E061E082E40C946C
:10141000FE01929A109236011092350182E090E01E
:101420009093340180933301089522E043E060E01B
:1014300082E40C94FE01929A1092360110923501CA
:1014400082E090E09093340180933301089522E08C
:1014500043E060E081E40C94FE01929A1092360120
:101460001092350182E090E0909334018093330133
:10147000089524E043E060E085E40C94FE01929A34
:10148000109236011092350183E090E09093340180
:1014900080933301089522E043E060E087E40C94F8
:1014A000FE01929A109236011092350182E090E08E
:1014B0009093340180933301089525E044E060E087
:1014C00083E40C94FE01929A109236011092350139
:1014D00084E090E09093340180933301089522E0FA
:1014E00043E060E082E40C94FE0122E044E060E02E
:1014F00084E40C94FE0122E044E060E083E40C9478
:10150000FE01929A109236011092350182E090E02D
:101510009093340180933301089522E044E060E029
:1015200085E40C94FE01929A1092360110923501D6
:1015300082E090E09093340180933301089522E09B
:1015400044E060E087E40C94FE0122E044E060E0C7
:1015500086E40C94FE0124E044E060E081E40C9415
:10156000FE0122E044E060E087E40C94FE01929AE0
:10157000109236011092350181E090E09093340191
:1015800080933301089522E044E060E085E40C9408
:10159000FE0123E043E060E087E40C94FE0124E0D8
:1015A00043E060E081E40C94FE0122E043E061E06E
:1015B00082E40C94FE01929A109236011092350149
:1015C00082E090E09093340180933301089522E00B
:1015D00043E060E082E40C94FE01929A109236019E
:1015E0001092350182E090E09093340180933301B2
:1015F000089522E043E060E081E40C94FE01929AB9
:10160000109236011092350182E090E090933401FF
:1016100080933301089524E043E060E085E40C9476
:10162000FE01929A109236011092350184E090E00A
:101630009093340180933301089522E043E060E009
:1016400087E40C94FE0125E044E060E083E40C9420
:10165000FE01929A109236011092350188E090E0D6
:101660009093340180933301089528E042E060E0D4
:1016700087E40C94FE0128E044E060E087E40C94E9
:10168000FE0124E044E060E085E40C94FE0122E0E9
:1016900044E060E083E40C94FE01929A10923601DB
:1016A0001092350182E090E09093340180933301F1
:1016B000089522E044E060E085E40C94FE01929AF3
:1016C000109236011092350181E090E09093340140
:1016D00080933301089523E044E060E085E40C94B6
:1016E000FE01929A109236011092350181E090E04D
:1016F0009093340180933301089521E044E060E049
:1017000085E40C94FE01929A1092360110923501F4
:1017100088E090E0909334018093330108958F31F5
:10172000910520F08FEF809325010895FC01E85585
:10173000FE4F0C945710929A109236011092350178
:1017400081E090E09093340180933301089524E088
:1017500045E060E085E40C94FE0127E044E060E0B1
:1017600085E40C94FE0127E044E061E085E40C94FC
:10177000FE01929A109236011092350185E090E0B8
:101780009093340180933301089528E045E060E0B0
:1017900085E40C94FE0123E044E061E085E40C94D0
:1017A000FE0123E044E060E085E40C94FE0128E0C3
:1017B00045E060E087E40C94FE0124E045E061E050
:1017C00085E40C94FE0123E045E060E085E40C94A0
:1017D000FE0124E045E061E087E40C94FE0128E08E
:1017E00045E061E087E40C94FE01813089F060F00F
:1017F000823031F0833041F4862F90E00C948F0BCF
:10180000862F90E00C94D306862F90E00C940B0565
:10181000862F90E00C94EF05109225018EB58C7FF9
:101820008EBD929A0895109225018EB583608EBD6B
:10183000929860912501809132010C94F50B87B745
:10184000806187BF1FBC8EB588608EBD10927A0004
:1018500081E390E09BBD8ABD109225018EB58C7FFF
:101860008EBD929A10923601109235011092340179
:1018700010923301109225011092320108951F92A7
:101880000F920FB60F9211240BB60F922F933F9326
:101890004F935F936F937F938F939F93AF93BF9378
:1018A000EF93FF9382B3805882BB20913501309132
:1018B000360180913301909134012817390758F08F
:1018C000809125018F5F8093250160912501809192
:1018D00032010E94F50BFF91EF91BF91AF919F9163
:1018E0008F917F916F915F914F913F912F910F90C9
:1018F0000BBE0F900FBE0F901F90189520911C01EA
:1019000030911D01220F331F49B350E002C055959D
:1019100047958A95E2F740FD0EC081E090EE282BB6
:10192000392B30931D0120931C0181E02115304F8C
:1019300009F080E0089580E090EEF1CF811102C0BF
:1019400080EC0895813091F0823091F08330A1F0E5
:10195000843081F0853091F0863091F0873091F0BD
:10196000883091F0893091F080E0089589EF0895F2
:1019700084EA089589E9089580EB089582E908953D
:1019800082E8089588EF089580E8089580E9089531
:101990000F931F93CF93DF93EC0180911E0180FF83
:1019A00079C08CEF80933A019E01ADECBCEC0E94B3
:1019B0005D109695879596958795969587953C2F7A
:1019C0002AE0829F30191124832F0E949E0C80935D
:1019D00038019E013695279536952795ABE7B4E1FA
:1019E0000E945D109695879544E6489F9001499F17
:1019F000300D1124CE01821B930B9C01ADECBCEC8D
:101A00000E945D10969587959695879596958795F2
:101A10000E949E0C809339019E013695279536953C
:101A2000279536952795A5ECB0E20E945D108C01B4
:101A3000129502950F7001271F70012728EE33E0E1
:101A4000029FC001039F900D129F900D11249E01D3
:101A5000281B390B3695279536952795ABE7B4E1CA
:101A60000E945D10969587950E949E0C80933B0185
:101A7000802F0E949E0C80933C0180912401833032
:101A8000F9F0823029F1813049F0DF91CF911F9137
:101A90000F9108958FEF80933A0186CF80911001C6
:101AA000882399F38FEF80933C0180933B018093CF
:101AB000390180933801DF91CF911F910F910895E3
:101AC0008FEF80933A01DF91CF911F910F9108958D
:101AD00010923A01DF91CF911F910F910895CF930A
:101AE0001ABA8FEF8BBB0000000088B3806788BBF9
:101AF000000000006091240170E080911C01909131
:101B00001D01F1E0E0E0C3E0B2E0A1E09C01220FA2
:101B1000331F89B34E2F50E090E00E2E02C09595F2
:101B200087950A94E2F780FD11C081E090EE822B48
:101B3000932B90931D0180931C01811520EF920738
:101B400041F0F430A1F0EF5FFF5FE0CF80E090EE76
:101B5000EECF4F5F5F4F4617570779F0EE2381F0C6
:101B6000E13089F0E23069F7C0932401ECCF8FEFC8
:101B70008ABB00000000CF91089510922401FBCF92
:101B8000A0932401E0CFB0932401DDCF1F920F92E8
:101B90000FB60F9211248F939F9385B1843648F02E
:101BA00081E083BD9F918F910F900FBE0F901F908A
:101BB000189595B184E6891B83BD9F918F910F90F5
:101BC0000FBE0F901F901895409123018091220124
:101BD0004C3380F550E08C3328F580912101883119
:101BE00010F0109221016091200180911F016C334F
:101BF00048F52091220174E6279F90011124883135
:101C000050F110921F0180E090E0240F351F3093B7
:101C1000140120931301860F911D9093120180935C
:101C200011010895809121018F5F8093210110920D
:101C30002201D5CF8F5F809322011092230140E0D3
:101C400050E0C9CF8F5F80931F011092220120E0E6
:101C500030E08831B0F674E6879FC0011124D5CFFB
:101C60001F920F920FB60F9211240BB60F922F9363
:101C70003F934F935F936F937F938F939F93AF9314
:101C8000BF93CF93EF93FF93C0911B01CF5FC0939E
:101C90001B010E94E40D8C2F8F7139F481E090912B
:101CA0001001911122C080931001CF7751F48091DF
:101CB0001E018F5F80931E01809123018F5F8093AF
:101CC0002301FF91EF91CF91BF91AF919F918F91A0
:101CD0007F916F915F914F913F912F910F900BBE2C
:101CE0000F900FBE0F901F90189580E0DCCF81E51C
:101CF0008DB908958FB9779BFECF089583B113B83E
:101D0000000000001FB81E9A00000000779BFECF65
:101D10008FB1089581E08FB9779BFECF84E082BBBD
:101D20000000000088E082BB000000000895809160
:101D30002401813099F190F1823049F1833021F40E
:101D400085B190E00E94C80C80911901853010F097
:101D50001092190188B38F7888BB28B3809119013C
:101D600030E1839FC0011124282B28BBE091190189
:101D7000F0E0E85CFE4F80818BBB809119018F5FA2
:101D80008093190185E38A95F1F700000895809109
:101D90001101909112010E94C80CD6CF80911301BD
:101DA000909114010E94C80CCFCF8130910529F089
:101DB000029709F008950C94E80180913701893069
:101DC00020F089E08093370108958F5F8093370179
:101DD000089580912401823099F0833069F0813038
:101DE00009F00895809123018F5F809323018C3344
:101DF000C0F310922301089581E090E00C94D50E79
:101E0000809120018F5F809320018C3350F31092DA
:101E10002001089580912401823091F0833071F087
:101E2000813009F00895809123018150809323012E
:101E3000803FC0F38BE38093230108950C94E80165
:101E400080912001815080932001803F58F38BE3E3
:101E5000809320010895CF93C82FC370E09116019D
:101E6000EE0FEE0FEC2BF0E0E050FF4F8081813061
:101E7000E9F0823031F0C33059F0C0931601CF91B0
:101E8000089580911501815080931501C330A9F701
:101E9000809115019EEF980F983098F0813F60F483
:101EA00010921501C0931601CF91089580911501EC
:101EB0008F5F80931501DFCF0E940A0F10921501EA
:101EC000F1CF0E94E90E10921501ECCF8091240110
:101ED000813069F0823051F480911F018F5F8093CF
:101EE0001F01873110F010921F010895089580910D
:101EF00022018F5F809322018C33B8F3109222016C
:101F0000089580912401813071F0823059F48091DC
:101F10001F01815080931F01803F18F087E180935B
:101F20001F0108950895809122018150809322011C
:101F3000803FB8F38BE3809322010895CF93DF9322
:101F40008C70C82FD0E0D595C795D595C7959C2F97
:101F5000E0911801EE0FEE0FEC2BF0E0E050FF4F98
:101F600080818130F9F0823039F0933061F0C09394
:101F70001801DF91CF9108958091170181508093CE
:101F800017019330A1F7809117019EEF980F9830B9
:101F9000A0F0813F68F410921701C0931801DF91FF
:101FA000CF910895809117018F5F80931701DDCF46
:101FB0000E94810F10921701F0CF0E94660F1092BD
:101FC0001701EBCFCF93DF930E947E0E80931A010F
:101FD000C82FD0E0CE010E949E0FCE01DF91CF919D
:101FE0000C942B0F1F920F920FB60F9211240BB669
:101FF0000F922F933F934F935F936F937F938F93A2
:102000009F93AF93BF93EF93FF930E946F0D0E9436
:10201000E20F0E94970EFF91EF91BF91AF919F91B8
:102020008F917F916F915F914F913F912F910F9081
:102030000BBE0F900FBE0F901F90189583B7816055
:1020400083BF80B7886080BF85B58B6785BD87B744
:10205000816487BF86B7806486BF0895E1E6F0E0BB
:10206000808180831092620087B1806687B986B1D3
:102070008F6E86B98FEF83BD089580EC82B91F986B
:1020800087EF87BB8A9A81E58DB90E941E108091E7
:102090006100809361001092620087B1806687B909
:1020A00086B18F6E86B98FEF83BD7894FFCFEE0F28
:1020B000FF1F0590F491E02D0994A29FB001B39FFA
:1020C000C001A39F700D811D1124911DB29F700D41
:0C20D000811D1124911D0895F894FFCF8C
:1020DC0000010200020000010100000200020100E8
:00000001FF
