:100000000C9446000C9465000C9465000C946500FB
:100010000C9465000C9465000C9465000C946500CC
:100020000C9465000C9465000C9465000C946500BC
:100030000C9465000C9465000C9465000C946500AC
:100040000C9465000C9465000C9465000C9465009C
:100050000C9465000C9465000C9465000C9465008C
:100060000C9465000C9465000C9465000C9465007C
:100070000C9465000C9467000C9465000C9465006A
:100080000C9465000C9465000C94650011241FBE4F
:10009000CFEFD0E1DEBFCDBF11E0A0E0B1E0E8E6F8
:1000A000F1E000E00BBF02C007900D92A832B1074B
:1000B000D9F721E0A8E2B1E001C01D92A932B20750
:1000C000E1F70E9498000C94B2000C9400001F927B
:1000D0000F920FB60F9211240BB60F922F938F939E
:1000E0009F93EF93FF93209128018DEC289F812D02
:1000F000112482958F70E22F94E1899FE0191124D9
:10010000F0E0EE0FFF1FE050FF4F808191819BBD1B
:100110008ABD2F5F20932801FF91EF919F918F91CE
:100120002F910F900BBE0F900FBE0F901F90189540
:1001300080E287BB8FB5826C8FBD8EB589618EBD25
:1001400010927A0080E090EF97BD86BD10928B00F0
:1001500082E080938A0010928C0084E080937D007E
:080160007894FFCFF894FFCF63
:100168002C01E80388132823983A3075409CC8AFBF
:1001780098B750C350C398B7C8AF409C3075983AE9
:0801880028238813E8032C0171
:00000001FF
